{
  "_format": "hh-sol-artifact-1",
  "contractName": "Feedback",
  "sourceName": "contracts/Feedback.sol",
  "abi": [
    {
      "inputs": [
        {
          "internalType": "address",
          "name": "semaphoreAddress",
          "type": "address"
        },
        {
          "internalType": "string",
          "name": "tokenAName",
          "type": "string"
        },
        {
          "internalType": "string",
          "name": "tokenBName",
          "type": "string"
        },
        {
          "internalType": "string",
          "name": "tokenASymbol",
          "type": "string"
        },
        {
          "internalType": "string",
          "name": "tokenBSymbol",
          "type": "string"
        }
      ],
      "stateMutability": "nonpayable",
      "type": "constructor"
    },
    {
      "anonymous": false,
      "inputs": [
        {
          "indexed": false,
          "internalType": "uint256",
          "name": "groupId",
          "type": "uint256"
        },
        {
          "indexed": false,
          "internalType": "uint256",
          "name": "timestamp",
          "type": "uint256"
        },
        {
          "indexed": false,
          "internalType": "uint256",
          "name": "newCoinBalance",
          "type": "uint256"
        },
        {
          "indexed": false,
          "internalType": "uint256",
          "name": "newTokenABalance",
          "type": "uint256"
        },
        {
          "indexed": false,
          "internalType": "uint256",
          "name": "newTokenBBalance",
          "type": "uint256"
        }
      ],
      "name": "UpdatePoolBalances",
      "type": "event"
    },
    {
      "inputs": [
        {
          "internalType": "uint256",
          "name": "groupIdsIdx",
          "type": "uint256"
        },
        {
          "internalType": "uint256[2]",
          "name": "a",
          "type": "uint256[2]"
        },
        {
          "internalType": "uint256[2][2]",
          "name": "b",
          "type": "uint256[2][2]"
        },
        {
          "internalType": "uint256[2]",
          "name": "c",
          "type": "uint256[2]"
        },
        {
          "internalType": "uint256[8]",
          "name": "input",
          "type": "uint256[8]"
        }
      ],
      "name": "_verifyCheck",
      "outputs": [
        {
          "internalType": "bool",
          "name": "",
          "type": "bool"
        }
      ],
      "stateMutability": "view",
      "type": "function"
    },
    {
      "inputs": [
        {
          "internalType": "uint256",
          "name": "groupIdsIdx",
          "type": "uint256"
        }
      ],
      "name": "checkBalances",
      "outputs": [
        {
          "internalType": "uint256",
          "name": "",
          "type": "uint256"
        },
        {
          "internalType": "uint256",
          "name": "",
          "type": "uint256"
        },
        {
          "internalType": "uint256",
          "name": "",
          "type": "uint256"
        },
        {
          "internalType": "uint256",
          "name": "",
          "type": "uint256"
        }
      ],
      "stateMutability": "view",
      "type": "function"
    },
    {
      "inputs": [],
      "name": "checkGroupIds",
      "outputs": [
        {
          "internalType": "uint256[]",
          "name": "",
          "type": "uint256[]"
        }
      ],
      "stateMutability": "view",
      "type": "function"
    },
    {
      "inputs": [
        {
          "internalType": "uint256",
          "name": "groupIdsIdx",
          "type": "uint256"
        }
      ],
      "name": "checkPrice",
      "outputs": [
        {
          "internalType": "uint256",
          "name": "",
          "type": "uint256"
        },
        {
          "internalType": "uint256",
          "name": "",
          "type": "uint256"
        }
      ],
      "stateMutability": "view",
      "type": "function"
    },
    {
      "inputs": [
        {
          "internalType": "uint256",
          "name": "_groupIdsIdx",
          "type": "uint256"
        }
      ],
      "name": "claim",
      "outputs": [],
      "stateMutability": "nonpayable",
      "type": "function"
    },
    {
      "inputs": [
        {
          "internalType": "uint256",
          "name": "",
          "type": "uint256"
        }
      ],
      "name": "coinBalances",
      "outputs": [
        {
          "internalType": "uint256",
          "name": "",
          "type": "uint256"
        }
      ],
      "stateMutability": "view",
      "type": "function"
    },
    {
      "inputs": [],
      "name": "createGroup",
      "outputs": [],
      "stateMutability": "nonpayable",
      "type": "function"
    },
    {
      "inputs": [
        {
          "internalType": "uint256",
          "name": "groupIdsIdx",
          "type": "uint256"
        },
        {
          "internalType": "uint256",
          "name": "amount",
          "type": "uint256"
        }
      ],
      "name": "deposit",
      "outputs": [],
      "stateMutability": "nonpayable",
      "type": "function"
    },
    {
      "inputs": [
        {
          "internalType": "uint256",
          "name": "",
          "type": "uint256"
        }
      ],
      "name": "groupIds",
      "outputs": [
        {
          "internalType": "uint256",
          "name": "",
          "type": "uint256"
        }
      ],
      "stateMutability": "view",
      "type": "function"
    },
    {
      "inputs": [
        {
          "internalType": "uint256",
          "name": "identityCommitment",
          "type": "uint256"
        },
        {
          "internalType": "uint256",
          "name": "groupIdsIdx",
          "type": "uint256"
        }
      ],
      "name": "joinGroup",
      "outputs": [],
      "stateMutability": "nonpayable",
      "type": "function"
    },
    {
      "inputs": [],
      "name": "mockCoin",
      "outputs": [
        {
          "internalType": "contract MockCoin",
          "name": "",
          "type": "address"
        }
      ],
      "stateMutability": "view",
      "type": "function"
    },
    {
      "inputs": [
        {
          "internalType": "uint256",
          "name": "",
          "type": "uint256"
        }
      ],
      "name": "results",
      "outputs": [
        {
          "internalType": "uint256",
          "name": "",
          "type": "uint256"
        }
      ],
      "stateMutability": "view",
      "type": "function"
    },
    {
      "inputs": [],
      "name": "semaphore",
      "outputs": [
        {
          "internalType": "contract ISemaphore",
          "name": "",
          "type": "address"
        }
      ],
      "stateMutability": "view",
      "type": "function"
    },
    {
      "inputs": [
        {
          "components": [
            {
              "internalType": "uint256",
              "name": "merkleTreeDepth",
              "type": "uint256"
            },
            {
              "internalType": "uint256",
              "name": "merkleTreeRoot",
              "type": "uint256"
            },
            {
              "internalType": "uint256",
              "name": "nullifier",
              "type": "uint256"
            },
            {
              "internalType": "uint256",
              "name": "feedback",
              "type": "uint256"
            },
            {
              "internalType": "uint256",
              "name": "scope",
              "type": "uint256"
            },
            {
              "internalType": "uint256[8]",
              "name": "points",
              "type": "uint256[8]"
            },
            {
              "internalType": "uint256[2]",
              "name": "a",
              "type": "uint256[2]"
            },
            {
              "internalType": "uint256[2][2]",
              "name": "b",
              "type": "uint256[2][2]"
            },
            {
              "internalType": "uint256[2]",
              "name": "c",
              "type": "uint256[2]"
            },
            {
              "internalType": "uint256[8]",
              "name": "input",
              "type": "uint256[8]"
            }
          ],
          "internalType": "struct Feedback.FeedbackInput",
          "name": "feedbackInput",
          "type": "tuple"
        },
        {
          "internalType": "uint256",
          "name": "groupIdsIdx",
          "type": "uint256"
        },
        {
          "internalType": "address",
          "name": "ethAddress",
          "type": "address"
        },
        {
          "internalType": "uint256[4]",
          "name": "diffAmounts",
          "type": "uint256[4]"
        }
      ],
      "name": "sendFeedback",
      "outputs": [],
      "stateMutability": "nonpayable",
      "type": "function"
    },
    {
      "inputs": [
        {
          "internalType": "uint256",
          "name": "_groupIdsIdx",
          "type": "uint256"
        },
        {
          "internalType": "uint256",
          "name": "_coinBalance",
          "type": "uint256"
        },
        {
          "internalType": "uint256",
          "name": "_tokenABalance",
          "type": "uint256"
        },
        {
          "internalType": "uint256",
          "name": "_tokenBBalance",
          "type": "uint256"
        },
        {
          "internalType": "address",
          "name": "_ethAddress",
          "type": "address"
        },
        {
          "internalType": "uint256",
          "name": "_poolAdd",
          "type": "uint256"
        },
        {
          "internalType": "uint256",
          "name": "_poolSub",
          "type": "uint256"
        }
      ],
      "name": "setBalances",
      "outputs": [],
      "stateMutability": "nonpayable",
      "type": "function"
    },
    {
      "inputs": [
        {
          "internalType": "address",
          "name": "mockCoinAddress",
          "type": "address"
        }
      ],
      "name": "setMockCoin",
      "outputs": [],
      "stateMutability": "nonpayable",
      "type": "function"
    },
    {
      "inputs": [
        {
          "internalType": "uint256",
          "name": "_groupIdsIdx",
          "type": "uint256"
        },
        {
          "internalType": "uint256",
          "name": "_result",
          "type": "uint256"
        }
      ],
      "name": "setResult",
      "outputs": [],
      "stateMutability": "nonpayable",
      "type": "function"
    },
    {
      "inputs": [
        {
          "internalType": "uint256",
          "name": "",
          "type": "uint256"
        }
      ],
      "name": "tokenABalances",
      "outputs": [
        {
          "internalType": "uint256",
          "name": "",
          "type": "uint256"
        }
      ],
      "stateMutability": "view",
      "type": "function"
    },
    {
      "inputs": [
        {
          "internalType": "uint256",
          "name": "",
          "type": "uint256"
        }
      ],
      "name": "tokenBBalances",
      "outputs": [
        {
          "internalType": "uint256",
          "name": "",
          "type": "uint256"
        }
      ],
      "stateMutability": "view",
      "type": "function"
    },
    {
      "inputs": [
        {
          "internalType": "uint256[2]",
          "name": "a",
          "type": "uint256[2]"
        },
        {
          "internalType": "uint256[2][2]",
          "name": "b",
          "type": "uint256[2][2]"
        },
        {
          "internalType": "uint256[2]",
          "name": "c",
          "type": "uint256[2]"
        },
        {
          "internalType": "uint256[8]",
          "name": "input",
          "type": "uint256[8]"
        }
      ],
      "name": "verify",
      "outputs": [
        {
          "internalType": "bool",
          "name": "",
          "type": "bool"
        }
      ],
      "stateMutability": "view",
      "type": "function"
    },
    {
      "inputs": [
        {
          "internalType": "uint256[2]",
          "name": "_pA",
          "type": "uint256[2]"
        },
        {
          "internalType": "uint256[2][2]",
          "name": "_pB",
          "type": "uint256[2][2]"
        },
        {
          "internalType": "uint256[2]",
          "name": "_pC",
          "type": "uint256[2]"
        },
        {
          "internalType": "uint256[8]",
          "name": "_pubSignals",
          "type": "uint256[8]"
        }
      ],
      "name": "verifyProof",
      "outputs": [
        {
          "internalType": "bool",
          "name": "isValid",
          "type": "bool"
        }
      ],
      "stateMutability": "view",
      "type": "function"
    }
  ],
  "bytecode": "0x60806040523480156200001157600080fd5b5060405162002f6838038062002f688339818101604052810190620000379190620005ba565b846000806101000a81548173ffffffffffffffffffffffffffffffffffffffff021916908373ffffffffffffffffffffffffffffffffffffffff16021790555060008060009054906101000a900473ffffffffffffffffffffffffffffffffffffffff1673ffffffffffffffffffffffffffffffffffffffff16635c3f3b60306040518263ffffffff1660e01b8152600401620000d59190620006cf565b6020604051808303816000875af1158015620000f5573d6000803e3d6000fd5b505050506040513d601f19601f820116820180604052508101906200011b919062000727565b9050600181908060018154018082558091505060019003906000526020600020016000909190919091505560008060009054906101000a900473ffffffffffffffffffffffffffffffffffffffff1673ffffffffffffffffffffffffffffffffffffffff16635c3f3b60306040518263ffffffff1660e01b8152600401620001a49190620006cf565b6020604051808303816000875af1158015620001c4573d6000803e3d6000fd5b505050506040513d601f19601f82011682018060405250810190620001ea919062000727565b9050600181908060018154018082558091505060019003906000526020600020016000909190919091505560008060009054906101000a900473ffffffffffffffffffffffffffffffffffffffff1673ffffffffffffffffffffffffffffffffffffffff16635c3f3b60306040518263ffffffff1660e01b8152600401620002739190620006cf565b6020604051808303816000875af115801562000293573d6000803e3d6000fd5b505050506040513d601f19601f82011682018060405250810190620002b9919062000727565b9050600181908060018154018082558091505060019003906000526020600020016000909190919091505560008060009054906101000a900473ffffffffffffffffffffffffffffffffffffffff1673ffffffffffffffffffffffffffffffffffffffff16635c3f3b60306040518263ffffffff1660e01b8152600401620003429190620006cf565b6020604051808303816000875af115801562000362573d6000803e3d6000fd5b505050506040513d601f19601f8201168201806040525081019062000388919062000727565b9050600181908060018154018082558091505060019003906000526020600020016000909190919091505550505050505050505062000759565b6000604051905090565b600080fd5b600080fd5b600073ffffffffffffffffffffffffffffffffffffffff82169050919050565b60006200040382620003d6565b9050919050565b6200041581620003f6565b81146200042157600080fd5b50565b60008151905062000435816200040a565b92915050565b600080fd5b600080fd5b6000601f19601f8301169050919050565b7f4e487b7100000000000000000000000000000000000000000000000000000000600052604160045260246000fd5b620004908262000445565b810181811067ffffffffffffffff82111715620004b257620004b162000456565b5b80604052505050565b6000620004c7620003c2565b9050620004d5828262000485565b919050565b600067ffffffffffffffff821115620004f857620004f762000456565b5b620005038262000445565b9050602081019050919050565b60005b838110156200053057808201518184015260208101905062000513565b60008484015250505050565b6000620005536200054d84620004da565b620004bb565b90508281526020810184848401111562000572576200057162000440565b5b6200057f84828562000510565b509392505050565b600082601f8301126200059f576200059e6200043b565b5b8151620005b18482602086016200053c565b91505092915050565b600080600080600060a08688031215620005d957620005d8620003cc565b5b6000620005e98882890162000424565b955050602086015167ffffffffffffffff8111156200060d576200060c620003d1565b5b6200061b8882890162000587565b945050604086015167ffffffffffffffff8111156200063f576200063e620003d1565b5b6200064d8882890162000587565b935050606086015167ffffffffffffffff811115620006715762000670620003d1565b5b6200067f8882890162000587565b925050608086015167ffffffffffffffff811115620006a357620006a2620003d1565b5b620006b18882890162000587565b9150509295509295909350565b620006c981620003f6565b82525050565b6000602082019050620006e66000830184620006be565b92915050565b6000819050919050565b6200070181620006ec565b81146200070d57600080fd5b50565b6000815190506200072181620006f6565b92915050565b60006020828403121562000740576200073f620003cc565b5b6000620007508482850162000710565b91505092915050565b6127ff80620007696000396000f3fe608060405234801561001057600080fd5b50600436106101375760003560e01c80634fdda1f5116100b8578063c9219a7a1161007c578063c9219a7a14610376578063d2c57132146103a6578063d4be2573146103c4578063e2bbb158146103e0578063e4927805146103fc578063eb610a851461041857610137565b80634fdda1f5146102bb578063575185ed146102ee5780637b5d2534146102f8578063817edf9414610316578063b7ea1d271461034657610137565b8063310efb48116100ff578063310efb48146101f35780633266f9ca1461020f578063379607f51461023f57806340876fe91461025b5780634093d7a11461028b57610137565b806304c68fa91461013c5780630aa87dbe1461015a5780631a0c750c146101765780631b0c27da146101925780631de7463a146101c2575b600080fd5b610144610448565b6040516101519190611c3e565b60405180910390f35b610174600480360381019061016f9190611d3b565b6104a0565b005b610190600480360381019061018b9190611da6565b610cb4565b005b6101ac60048036038101906101a79190611de6565b610d63565b6040516101b99190611e22565b60405180910390f35b6101dc60048036038101906101d79190611de6565b610d7b565b6040516101ea929190611e3d565b60405180910390f35b61020d60048036038101906102089190611da6565b610e4b565b005b61022960048036038101906102249190611de6565b610e67565b6040516102369190611e22565b60405180910390f35b61025960048036038101906102549190611de6565b610e7f565b005b61027560048036038101906102709190611de6565b610ed8565b6040516102829190611e22565b60405180910390f35b6102a560048036038101906102a09190611de6565b610ef0565b6040516102b29190611e22565b60405180910390f35b6102d560048036038101906102d09190611de6565b610f14565b6040516102e59493929190611e66565b60405180910390f35b6102f6611001565b005b6103006110ce565b60405161030d9190611f0a565b60405180910390f35b610330600480360381019061032b9190611f8b565b6110f2565b60405161033d9190612023565b60405180910390f35b610360600480360381019061035b9190611de6565b611110565b60405161036d9190611e22565b60405180910390f35b610390600480360381019061038b919061203e565b611128565b60405161039d9190612023565b60405180910390f35b6103ae61181d565b6040516103bb91906120c8565b60405180910390f35b6103de60048036038101906103d991906120e3565b611843565b005b6103fa60048036038101906103f59190611da6565b611887565b005b61041660048036038101906104119190612110565b6119c4565b005b610432600480360381019061042d919061203e565b611b59565b60405161043f9190612023565b60405180910390f35b6060600180548060200260200160405190810160405280929190818152602001828054801561049657602002820191906000526020600020905b815481526020019060010190808311610482575b5050505050905090565b6104bd83856101a001866101e0018761026001886102a0016110f2565b506000846102a0016003600881106104d8576104d76121b2565b5b6020020135146105a75760076000856102a0016003600881106104fe576104fd6121b2565b5b6020020135815260200190815260200160002060009054906101000a900460ff1661055e576040517f08c379a00000000000000000000000000000000000000000000000000000000081526004016105559061223e565b60405180910390fd5b600060076000866102a00160036008811061057c5761057b6121b2565b5b6020020135815260200190815260200160002060006101000a81548160ff0219169083151502179055505b600160076000866102a0016004600881106105c5576105c46121b2565b5b6020020135815260200190815260200160002060006101000a81548160ff02191690831515021790555060006040518060c0016040528086600001358152602001866020013581526020018660400135815260200186606001358152602001866080013581526020018660a0016008806020026040519081016040528092919082600860200280828437600081840152601f19601f820116905080830192505050505050815250905060008054906101000a900473ffffffffffffffffffffffffffffffffffffffff1673ffffffffffffffffffffffffffffffffffffffff1663d0d898dd600186815481106106be576106bd6121b2565b5b9060005260206000200154836040518363ffffffff1660e01b81526004016106e792919061235e565b600060405180830381600087803b15801561070157600080fd5b505af1158015610715573d6000803e3d6000fd5b5050505060006040518060e00160405280876102a00160056008811061073e5761073d6121b2565b5b60200201358152602001876102a0016006600881106107605761075f6121b2565b5b60200201358152602001876102a001600760088110610782576107816121b2565b5b602002013581526020016003600088815260200190815260200160002054815260200160046000888152602001908152602001600020548152602001600560008881526020019081526020016000205481526020016006600088815260200190815260200160002054815250905060008160c00151036109ec57600083600360048110610812576108116121b2565b5b602002013514610920576000600260009054906101000a900473ffffffffffffffffffffffffffffffffffffffff1673ffffffffffffffffffffffffffffffffffffffff166323b872dd863087600360048110610872576108716121b2565b5b60200201356040518463ffffffff1660e01b815260040161089593929190612397565b6020604051808303816000875af11580156108b4573d6000803e3d6000fd5b505050506040513d601f19601f820116820180604052508101906108d891906123fa565b90508061091a576040517f08c379a000000000000000000000000000000000000000000000000000000000815260040161091190612473565b60405180910390fd5b506109e7565b82600060048110610934576109336121b2565b5b602002013560036000878152602001908152602001600020600082825461095b91906124c2565b9250508190555082600160048110610976576109756121b2565b5b602002013560046000878152602001908152602001600020600082825461099d91906124c2565b92505081905550826002600481106109b8576109b76121b2565b5b60200201356005600087815260200190815260200160002060008282546109df91906124c2565b925050819055505b610c61565b60018160c00151148015610a185750600083600260048110610a1157610a106121b2565b5b6020020135145b15610c5657600083600060048110610a3357610a326121b2565b5b602002013514158015610a5f5750600083600160048110610a5757610a566121b2565b5b602002013514155b8015610a835750600083600360048110610a7c57610a7b6121b2565b5b6020020135145b15610b32576000816080015184600160048110610aa357610aa26121b2565b5b60200201358360600151610ab791906124f6565b610ac19190612567565b905080600360008881526020019081526020016000206000828254610ae69190612598565b9250508190555083600160048110610b0157610b006121b2565b5b60200201358260800151610b159190612598565b600460008881526020019081526020016000208190555050610c51565b600083600360048110610b4857610b476121b2565b5b602002013514610c50576000600260009054906101000a900473ffffffffffffffffffffffffffffffffffffffff1673ffffffffffffffffffffffffffffffffffffffff1663a9059cbb8686600360048110610ba757610ba66121b2565b5b60200201356040518363ffffffff1660e01b8152600401610bc99291906125cc565b6020604051808303816000875af1158015610be8573d6000803e3d6000fd5b505050506040513d601f19601f82011682018060405250810190610c0c91906123fa565b905080610c4e576040517f08c379a0000000000000000000000000000000000000000000000000000000008152600401610c4590612473565b60405180910390fd5b505b5b610c60565b60028160c0015150505b5b7f66d5bbe67f59694833fb31dee9460ea88b4e3614d741ddba079f5ca31901fb268542836000015184602001518560400151604051610ca49594939291906125f5565b60405180910390a1505050505050565b60008054906101000a900473ffffffffffffffffffffffffffffffffffffffff1673ffffffffffffffffffffffffffffffffffffffff16631783efc360018381548110610d0457610d036121b2565b5b9060005260206000200154846040518363ffffffff1660e01b8152600401610d2d929190611e3d565b600060405180830381600087803b158015610d4757600080fd5b505af1158015610d5b573d6000803e3d6000fd5b505050505050565b60066020528060005260406000206000915090505481565b600080600060056000858152602001908152602001600020546004600086815260200190815260200160002054610db291906124c2565b905060008111610df7576040517f08c379a0000000000000000000000000000000000000000000000000000000008152600401610dee906126e0565b60405180910390fd5b6000816004600087815260200190815260200160002054610e189190612567565b90506000826005600088815260200190815260200160002054610e3b9190612567565b9050818194509450505050915091565b8060066000848152602001908152602001600020819055505050565b60036020528060005260406000206000915090505481565b6000600660008381526020019081526020016000205403610ed5576040517f08c379a0000000000000000000000000000000000000000000000000000000008152600401610ecc9061274c565b60405180910390fd5b50565b60046020528060005260406000206000915090505481565b60018181548110610f0057600080fd5b906000526020600020016000915090505481565b600080600080600360008681526020019081526020016000205460046000878152602001908152602001600020546005600088815260200190815260200160002054600260009054906101000a900473ffffffffffffffffffffffffffffffffffffffff1673ffffffffffffffffffffffffffffffffffffffff166370a08231306040518263ffffffff1660e01b8152600401610fb1919061276c565b602060405180830381865afa158015610fce573d6000803e3d6000fd5b505050506040513d601f19601f82011682018060405250810190610ff2919061279c565b93509350935093509193509193565b60008060009054906101000a900473ffffffffffffffffffffffffffffffffffffffff1673ffffffffffffffffffffffffffffffffffffffff16635c3f3b60306040518263ffffffff1660e01b815260040161105d919061276c565b6020604051808303816000875af115801561107c573d6000803e3d6000fd5b505050506040513d601f19601f820116820180604052508101906110a0919061279c565b9050600181908060018154018082558091505060019003906000526020600020016000909190919091505550565b60008054906101000a900473ffffffffffffffffffffffffffffffffffffffff1681565b60008061110186868686611128565b90508091505095945050505050565b60056020528060005260406000206000915090505481565b6000611784565b7f30644e72e131a029b85045b68181585d97816a916871ca8d3c208c16d87cfd478110611160576000805260206000f35b50565b600060405183815284602082015285604082015260408160608360076107d05a03fa915081611196576000805260206000f35b825160408201526020830151606082015260408360808360066107d05a03fa9150816111c6576000805260206000f35b505050505050565b600060808601600087017f0617ca8a2811f0728413e75cc8242376b66db4f2214741a5ff0f0adbec5c58fe81527f2fa8f46c472eda96cf85b18e1ceba860ece850cef82b2c21eb8b8a1d3170238c602082015261127160008801357f0bcf48ca5f2c0f19e22d4264b16ac6ff0775616ef4990b6b9977bef3211ef73d7f27b0a3cb3ea9dec037fab4df3f313aff21972805e6ce873dbbc05ec281191f3384611163565b6112c160208801357f22fd3ca0867e192b7efea809409f2a4e2972bcf0846ef186b28088c1d1f741297f2b4fc80c5e100ccd6ae3238ed0b187aec7f33a2f203d044030b2f3dcee5cfb9f84611163565b61131160408801357f104d7379c32cd44d33ea6a8ef0c6779d73f7d963cceb97dae2b80cecfe74b5317f1dc972366ddc00e64e9e0cc946bebf5638aeeeb5f500c605821df74a1f58d84584611163565b61136160608801357f151b9b16593cf12cfc83bab33a1663b6a8397c2343b23fd5ed27ff440e714bd37f2f99eef587a8b406aeafd164f1d62a55e7f918f36d08249d88b7852a043b251884611163565b6113b160808801357f2c3bb099016fbb4d6c402eb012080daf76ff9b5b04f1ff7949fef1c832533d5a7f16f25eb2e4f0b2081f0ca89d0f724e043f66fc5c10ebe57853b3cf0afea824f484611163565b61140060a08801357e6a5bb91a1baf26ef30d1f23ecc4c3bcf5d96d0a535bbe8bb6cca53967973737f15117ee0d3d4378548895d2d573e0718aea96cc4473b75a917bde29eec9d5f2e84611163565b61145060c08801357f2a0939e88d47d170dcd764165996763e99d406899e974cbfac79c2085e550fad7f17f21c852d268987ede177ebcdcb6c1db8a7dc592baf180d2e905b4fd4d9f1a584611163565b6114a060e08801357f18ef950f9c595fd17b6293301a818200ef6d762584409d68c077be0685d93c087f164b03a6c60f4c262949141b40f394d12ef4bdedf09101a0972ea82b005c421884611163565b833582527f30644e72e131a029b85045b68181585d97816a916871ca8d3c208c16d87cfd4760208501357f30644e72e131a029b85045b68181585d97816a916871ca8d3c208c16d87cfd4703066020830152843560408301526020850135606083015260408501356080830152606085013560a08301527f2d4d9aa7e302d9df41749d5507949d05dbea33fbb16c643b22f599a2be6df2e260c08301527f14bedd503c37ceb061d8ec60209fe345ce89830a19230301f076caff004d192660e08301527f0967032fcbf776d1afc985f88877f182d38480a653f2decaa9794cbc3bf3060c6101008301527f0e187847ad4c798374d0d6732bf501847dd68bc0e071241e0213bc7fc13db7ab6101208301527f304cfbd1e08a704a99f5e847d93f8c3caafddec46b7a0d379da69a4d112346a76101408301527f1739c1b1a457a8c7313123d24d2f9192f896b7c63eea05a9d57f06547ad0cec8610160830152600088015161018083015260206000018801516101a08301527f198e9393920d483a7260bfb731fb5d25f1aa493335a9e71297e485b7aef312c26101c08301527f1800deef121f1e76426a00665e5c4479674322d4f75edadd46debd5cd992f6ed6101e08301527f090689d0585ff075ec9e99ad690c3395bc4b313370b38ef355acdadcd122975b6102008301527f12c85ea5db8c6deb4aab71808dcb408fe3d1e7690c43d37b4ce6cc0166fa7daa610220830152853561024083015260208601356102608301527f211a880e9f284b33b2bc946883be8f588acb11b199127553e5eae87b037403ba6102808301527f0c4e949a157d18a60a5e7bd70ef1e0ab0e3457c8abdd58a4fea71d500d63c2346102a08301527f19658949934997cd4f74a7f5ea8e1cdd5ba8d44d396c8c71182f6d2b42f50c626102c08301527f2201fa60069beaf0bdcd145f4463cff46a9a21e4b30ee520838ab5a256c740cc6102e08301526020826103008460086107d05a03fa82518116935050505095945050505050565b604051610380810160405261179c600084013561112f565b6117a9602084013561112f565b6117b6604084013561112f565b6117c3606084013561112f565b6117d0608084013561112f565b6117dd60a084013561112f565b6117ea60c084013561112f565b6117f760e084013561112f565b61180561010084013561112f565b611812818486888a6111ce565b915050949350505050565b600260009054906101000a900473ffffffffffffffffffffffffffffffffffffffff1681565b80600260006101000a81548173ffffffffffffffffffffffffffffffffffffffff021916908373ffffffffffffffffffffffffffffffffffffffff16021790555050565b600260009054906101000a900473ffffffffffffffffffffffffffffffffffffffff1673ffffffffffffffffffffffffffffffffffffffff166323b872dd3330846040518463ffffffff1660e01b81526004016118e693929190612397565b6020604051808303816000875af1158015611905573d6000803e3d6000fd5b505050506040513d601f19601f8201168201806040525081019061192991906123fa565b508060036000848152602001908152602001600020600082825461194d91906124c2565b92505081905550600a8161196191906124f6565b60046000848152602001908152602001600020600082825461198391906124c2565b92505081905550600a8161199791906124f6565b6005600084815260200190815260200160002060008282546119b991906124c2565b925050819055505050565b856003600089815260200190815260200160002081905550846004600089815260200190815260200160002081905550836005600089815260200190815260200160002081905550600260009054906101000a900473ffffffffffffffffffffffffffffffffffffffff1673ffffffffffffffffffffffffffffffffffffffff166323b872dd8430856040518463ffffffff1660e01b8152600401611a6b93929190612397565b6020604051808303816000875af1158015611a8a573d6000803e3d6000fd5b505050506040513d601f19601f82011682018060405250810190611aae91906123fa565b50600260009054906101000a900473ffffffffffffffffffffffffffffffffffffffff1673ffffffffffffffffffffffffffffffffffffffff1663a9059cbb84836040518363ffffffff1660e01b8152600401611b0c9291906125cc565b6020604051808303816000875af1158015611b2b573d6000803e3d6000fd5b505050506040513d601f19601f82011682018060405250810190611b4f91906123fa565b5050505050505050565b600080611b6886868686611128565b905080915050949350505050565b600081519050919050565b600082825260208201905092915050565b6000819050602082019050919050565b6000819050919050565b611bb581611ba2565b82525050565b6000611bc78383611bac565b60208301905092915050565b6000602082019050919050565b6000611beb82611b76565b611bf58185611b81565b9350611c0083611b92565b8060005b83811015611c31578151611c188882611bbb565b9750611c2383611bd3565b925050600181019050611c04565b5085935050505092915050565b60006020820190508181036000830152611c588184611be0565b905092915050565b600080fd5b600080fd5b60006103a08284031215611c8157611c80611c65565b5b81905092915050565b611c9381611ba2565b8114611c9e57600080fd5b50565b600081359050611cb081611c8a565b92915050565b600073ffffffffffffffffffffffffffffffffffffffff82169050919050565b6000611ce182611cb6565b9050919050565b611cf181611cd6565b8114611cfc57600080fd5b50565b600081359050611d0e81611ce8565b92915050565b600080fd5b600081905082602060040282011115611d3557611d34611d14565b5b92915050565b6000806000806104608587031215611d5657611d55611c60565b5b6000611d6487828801611c6a565b9450506103a0611d7687828801611ca1565b9350506103c0611d8887828801611cff565b9250506103e0611d9a87828801611d19565b91505092959194509250565b60008060408385031215611dbd57611dbc611c60565b5b6000611dcb85828601611ca1565b9250506020611ddc85828601611ca1565b9150509250929050565b600060208284031215611dfc57611dfb611c60565b5b6000611e0a84828501611ca1565b91505092915050565b611e1c81611ba2565b82525050565b6000602082019050611e376000830184611e13565b92915050565b6000604082019050611e526000830185611e13565b611e5f6020830184611e13565b9392505050565b6000608082019050611e7b6000830187611e13565b611e886020830186611e13565b611e956040830185611e13565b611ea26060830184611e13565b95945050505050565b6000819050919050565b6000611ed0611ecb611ec684611cb6565b611eab565b611cb6565b9050919050565b6000611ee282611eb5565b9050919050565b6000611ef482611ed7565b9050919050565b611f0481611ee9565b82525050565b6000602082019050611f1f6000830184611efb565b92915050565b600081905082602060020282011115611f4157611f40611d14565b5b92915050565b600081905082604060020282011115611f6357611f62611d14565b5b92915050565b600081905082602060080282011115611f8557611f84611d14565b5b92915050565b60008060008060006102208688031215611fa857611fa7611c60565b5b6000611fb688828901611ca1565b9550506020611fc788828901611f25565b9450506060611fd888828901611f47565b93505060e0611fe988828901611f25565b925050610120611ffb88828901611f69565b9150509295509295909350565b60008115159050919050565b61201d81612008565b82525050565b60006020820190506120386000830184612014565b92915050565b600080600080610200858703121561205957612058611c60565b5b600061206787828801611f25565b945050604061207887828801611f47565b93505060c061208987828801611f25565b92505061010061209b87828801611f69565b91505092959194509250565b60006120b282611ed7565b9050919050565b6120c2816120a7565b82525050565b60006020820190506120dd60008301846120b9565b92915050565b6000602082840312156120f9576120f8611c60565b5b600061210784828501611cff565b91505092915050565b600080600080600080600060e0888a03121561212f5761212e611c60565b5b600061213d8a828b01611ca1565b975050602061214e8a828b01611ca1565b965050604061215f8a828b01611ca1565b95505060606121708a828b01611ca1565b94505060806121818a828b01611cff565b93505060a06121928a828b01611ca1565b92505060c06121a38a828b01611ca1565b91505092959891949750929550565b7f4e487b7100000000000000000000000000000000000000000000000000000000600052603260045260246000fd5b600082825260208201905092915050565b7f5574786f20616c72656164792075736564000000000000000000000000000000600082015250565b60006122286011836121e1565b9150612233826121f2565b602082019050919050565b600060208201905081810360008301526122578161221b565b9050919050565b600060089050919050565b600081905092915050565b6000819050919050565b6000602082019050919050565b6122948161225e565b61229e8184612269565b92506122a982612274565b8060005b838110156122da5781516122c18782611bbb565b96506122cc8361227e565b9250506001810190506122ad565b505050505050565b6101a0820160008201516122f96000850182611bac565b50602082015161230c6020850182611bac565b50604082015161231f6040850182611bac565b5060608201516123326060850182611bac565b5060808201516123456080850182611bac565b5060a082015161235860a085018261228b565b50505050565b60006101c0820190506123746000830185611e13565b61238160208301846122e2565b9392505050565b61239181611cd6565b82525050565b60006060820190506123ac6000830186612388565b6123b96020830185612388565b6123c66040830184611e13565b949350505050565b6123d781612008565b81146123e257600080fd5b50565b6000815190506123f4816123ce565b92915050565b6000602082840312156124105761240f611c60565b5b600061241e848285016123e5565b91505092915050565b7f5472616e73666572206661696c65640000000000000000000000000000000000600082015250565b600061245d600f836121e1565b915061246882612427565b602082019050919050565b6000602082019050818103600083015261248c81612450565b9050919050565b7f4e487b7100000000000000000000000000000000000000000000000000000000600052601160045260246000fd5b60006124cd82611ba2565b91506124d883611ba2565b92508282019050808211156124f0576124ef612493565b5b92915050565b600061250182611ba2565b915061250c83611ba2565b925082820261251a81611ba2565b9150828204841483151761253157612530612493565b5b5092915050565b7f4e487b7100000000000000000000000000000000000000000000000000000000600052601260045260246000fd5b600061257282611ba2565b915061257d83611ba2565b92508261258d5761258c612538565b5b828204905092915050565b60006125a382611ba2565b91506125ae83611ba2565b92508282039050818111156125c6576125c5612493565b5b92915050565b60006040820190506125e16000830185612388565b6125ee6020830184611e13565b9392505050565b600060a08201905061260a6000830188611e13565b6126176020830187611e13565b6126246040830186611e13565b6126316060830185611e13565b61263e6080830184611e13565b9695505050505050565b7f546f74616c2062616c616e6365206d757374206265206772656174657220746860008201527f616e207a65726f20746f2070726576656e74206469766973696f6e206279207a60208201527f65726f0000000000000000000000000000000000000000000000000000000000604082015250565b60006126ca6043836121e1565b91506126d582612648565b606082019050919050565b600060208201905081810360008301526126f9816126bd565b9050919050565b7f526573756c74206e6f742079657420617661696c61626c650000000000000000600082015250565b60006127366018836121e1565b915061274182612700565b602082019050919050565b6000602082019050818103600083015261276581612729565b9050919050565b60006020820190506127816000830184612388565b92915050565b60008151905061279681611c8a565b92915050565b6000602082840312156127b2576127b1611c60565b5b60006127c084828501612787565b9150509291505056fea2646970667358221220a8773429d98a32198a8ed51cb86e27aa3cb7a96affd0f98c7fcd5082db03661564736f6c63430008170033",
  "linkReferences": {},
  "deployedLinkReferences": {}
}