{
  "_format": "hh-sol-artifact-1",
  "contractName": "Feedback",
  "sourceName": "contracts/Feedback.sol",
  "abi": [
    {
      "inputs": [
        {
          "internalType": "address",
          "name": "semaphoreAddress",
          "type": "address"
        },
        {
          "internalType": "string",
          "name": "tokenAName",
          "type": "string"
        },
        {
          "internalType": "string",
          "name": "tokenBName",
          "type": "string"
        },
        {
          "internalType": "string",
          "name": "tokenASymbol",
          "type": "string"
        },
        {
          "internalType": "string",
          "name": "tokenBSymbol",
          "type": "string"
        }
      ],
      "stateMutability": "nonpayable",
      "type": "constructor"
    },
    {
      "anonymous": false,
      "inputs": [
        {
          "indexed": false,
          "internalType": "uint256",
          "name": "groupId",
          "type": "uint256"
        },
        {
          "indexed": false,
          "internalType": "uint256",
          "name": "timestamp",
          "type": "uint256"
        },
        {
          "indexed": false,
          "internalType": "uint256",
          "name": "newCoinBalance",
          "type": "uint256"
        },
        {
          "indexed": false,
          "internalType": "uint256",
          "name": "newTokenABalance",
          "type": "uint256"
        },
        {
          "indexed": false,
          "internalType": "uint256",
          "name": "newTokenBBalance",
          "type": "uint256"
        }
      ],
      "name": "UpdatePoolBalances",
      "type": "event"
    },
    {
      "inputs": [
        {
          "internalType": "uint256",
          "name": "groupIdsIdx",
          "type": "uint256"
        },
        {
          "internalType": "uint256[2]",
          "name": "a",
          "type": "uint256[2]"
        },
        {
          "internalType": "uint256[2][2]",
          "name": "b",
          "type": "uint256[2][2]"
        },
        {
          "internalType": "uint256[2]",
          "name": "c",
          "type": "uint256[2]"
        },
        {
          "internalType": "uint256[12]",
          "name": "input",
          "type": "uint256[12]"
        }
      ],
      "name": "_verifyCheck",
      "outputs": [
        {
          "internalType": "bool",
          "name": "",
          "type": "bool"
        }
      ],
      "stateMutability": "view",
      "type": "function"
    },
    {
      "inputs": [
        {
          "internalType": "uint256",
          "name": "groupIdsIdx",
          "type": "uint256"
        }
      ],
      "name": "checkBalances",
      "outputs": [
        {
          "internalType": "uint256",
          "name": "",
          "type": "uint256"
        },
        {
          "internalType": "uint256",
          "name": "",
          "type": "uint256"
        },
        {
          "internalType": "uint256",
          "name": "",
          "type": "uint256"
        },
        {
          "internalType": "uint256",
          "name": "",
          "type": "uint256"
        }
      ],
      "stateMutability": "view",
      "type": "function"
    },
    {
      "inputs": [],
      "name": "checkGroupIds",
      "outputs": [
        {
          "internalType": "uint256[]",
          "name": "",
          "type": "uint256[]"
        }
      ],
      "stateMutability": "view",
      "type": "function"
    },
    {
      "inputs": [
        {
          "internalType": "uint256",
          "name": "",
          "type": "uint256"
        }
      ],
      "name": "coinBalances",
      "outputs": [
        {
          "internalType": "uint256",
          "name": "",
          "type": "uint256"
        }
      ],
      "stateMutability": "view",
      "type": "function"
    },
    {
      "inputs": [],
      "name": "createGroup",
      "outputs": [],
      "stateMutability": "nonpayable",
      "type": "function"
    },
    {
      "inputs": [
        {
          "internalType": "uint256",
          "name": "",
          "type": "uint256"
        }
      ],
      "name": "groupIds",
      "outputs": [
        {
          "internalType": "uint256",
          "name": "",
          "type": "uint256"
        }
      ],
      "stateMutability": "view",
      "type": "function"
    },
    {
      "inputs": [
        {
          "internalType": "uint256",
          "name": "identityCommitment",
          "type": "uint256"
        },
        {
          "internalType": "uint256",
          "name": "groupIdsIdx",
          "type": "uint256"
        }
      ],
      "name": "joinGroup",
      "outputs": [],
      "stateMutability": "nonpayable",
      "type": "function"
    },
    {
      "inputs": [],
      "name": "mockCoin",
      "outputs": [
        {
          "internalType": "contract MockCoin",
          "name": "",
          "type": "address"
        }
      ],
      "stateMutability": "view",
      "type": "function"
    },
    {
      "inputs": [
        {
          "internalType": "uint256",
          "name": "",
          "type": "uint256"
        }
      ],
      "name": "results",
      "outputs": [
        {
          "internalType": "uint256",
          "name": "",
          "type": "uint256"
        }
      ],
      "stateMutability": "view",
      "type": "function"
    },
    {
      "inputs": [],
      "name": "semaphore",
      "outputs": [
        {
          "internalType": "contract ISemaphore",
          "name": "",
          "type": "address"
        }
      ],
      "stateMutability": "view",
      "type": "function"
    },
    {
      "inputs": [
        {
          "components": [
            {
              "internalType": "uint256",
              "name": "merkleTreeDepth",
              "type": "uint256"
            },
            {
              "internalType": "uint256",
              "name": "merkleTreeRoot",
              "type": "uint256"
            },
            {
              "internalType": "uint256",
              "name": "nullifier",
              "type": "uint256"
            },
            {
              "internalType": "uint256",
              "name": "feedback",
              "type": "uint256"
            },
            {
              "internalType": "uint256",
              "name": "scope",
              "type": "uint256"
            },
            {
              "internalType": "uint256[8]",
              "name": "points",
              "type": "uint256[8]"
            },
            {
              "internalType": "uint256[2]",
              "name": "a",
              "type": "uint256[2]"
            },
            {
              "internalType": "uint256[2][2]",
              "name": "b",
              "type": "uint256[2][2]"
            },
            {
              "internalType": "uint256[2]",
              "name": "c",
              "type": "uint256[2]"
            },
            {
              "internalType": "uint256[12]",
              "name": "input",
              "type": "uint256[12]"
            }
          ],
          "internalType": "struct Feedback.FeedbackInput",
          "name": "feedbackInput",
          "type": "tuple"
        },
        {
          "internalType": "uint256",
          "name": "groupIdsIdx",
          "type": "uint256"
        },
        {
          "internalType": "address",
          "name": "ethAddress",
          "type": "address"
        },
        {
          "internalType": "uint256[4]",
          "name": "diffAmounts",
          "type": "uint256[4]"
        }
      ],
      "name": "sendFeedback",
      "outputs": [],
      "stateMutability": "nonpayable",
      "type": "function"
    },
    {
      "inputs": [
        {
          "internalType": "uint256",
          "name": "_groupIdsIdx",
          "type": "uint256"
        },
        {
          "internalType": "uint256",
          "name": "_coinBalance",
          "type": "uint256"
        },
        {
          "internalType": "uint256",
          "name": "_tokenABalance",
          "type": "uint256"
        },
        {
          "internalType": "uint256",
          "name": "_tokenBBalance",
          "type": "uint256"
        },
        {
          "internalType": "address",
          "name": "_ethAddress",
          "type": "address"
        },
        {
          "internalType": "uint256",
          "name": "_poolAdd",
          "type": "uint256"
        },
        {
          "internalType": "uint256",
          "name": "_poolSub",
          "type": "uint256"
        }
      ],
      "name": "setBalances",
      "outputs": [],
      "stateMutability": "nonpayable",
      "type": "function"
    },
    {
      "inputs": [
        {
          "internalType": "address",
          "name": "mockCoinAddress",
          "type": "address"
        }
      ],
      "name": "setMockCoin",
      "outputs": [],
      "stateMutability": "nonpayable",
      "type": "function"
    },
    {
      "inputs": [
        {
          "internalType": "uint256",
          "name": "_groupIdsIdx",
          "type": "uint256"
        },
        {
          "internalType": "uint256",
          "name": "_result",
          "type": "uint256"
        }
      ],
      "name": "setResult",
      "outputs": [],
      "stateMutability": "nonpayable",
      "type": "function"
    },
    {
      "inputs": [
        {
          "internalType": "uint256",
          "name": "",
          "type": "uint256"
        }
      ],
      "name": "tokenABalances",
      "outputs": [
        {
          "internalType": "uint256",
          "name": "",
          "type": "uint256"
        }
      ],
      "stateMutability": "view",
      "type": "function"
    },
    {
      "inputs": [
        {
          "internalType": "uint256",
          "name": "",
          "type": "uint256"
        }
      ],
      "name": "tokenBBalances",
      "outputs": [
        {
          "internalType": "uint256",
          "name": "",
          "type": "uint256"
        }
      ],
      "stateMutability": "view",
      "type": "function"
    },
    {
      "inputs": [
        {
          "internalType": "uint256",
          "name": "",
          "type": "uint256"
        }
      ],
      "name": "utxoHashStatus",
      "outputs": [
        {
          "internalType": "bool",
          "name": "",
          "type": "bool"
        }
      ],
      "stateMutability": "view",
      "type": "function"
    },
    {
      "inputs": [
        {
          "internalType": "uint256[2]",
          "name": "a",
          "type": "uint256[2]"
        },
        {
          "internalType": "uint256[2][2]",
          "name": "b",
          "type": "uint256[2][2]"
        },
        {
          "internalType": "uint256[2]",
          "name": "c",
          "type": "uint256[2]"
        },
        {
          "internalType": "uint256[12]",
          "name": "input",
          "type": "uint256[12]"
        }
      ],
      "name": "verify",
      "outputs": [
        {
          "internalType": "bool",
          "name": "",
          "type": "bool"
        }
      ],
      "stateMutability": "view",
      "type": "function"
    },
    {
      "inputs": [
        {
          "internalType": "uint256[2]",
          "name": "_pA",
          "type": "uint256[2]"
        },
        {
          "internalType": "uint256[2][2]",
          "name": "_pB",
          "type": "uint256[2][2]"
        },
        {
          "internalType": "uint256[2]",
          "name": "_pC",
          "type": "uint256[2]"
        },
        {
          "internalType": "uint256[12]",
          "name": "_pubSignals",
          "type": "uint256[12]"
        }
      ],
      "name": "verifyProof",
      "outputs": [
        {
          "internalType": "bool",
          "name": "isValid",
          "type": "bool"
        }
      ],
      "stateMutability": "view",
      "type": "function"
    }
  ],
  "bytecode": "0x60806040523480156200001157600080fd5b5060405162002d3238038062002d328339818101604052810190620000379190620005ba565b846000806101000a81548173ffffffffffffffffffffffffffffffffffffffff021916908373ffffffffffffffffffffffffffffffffffffffff16021790555060008060009054906101000a900473ffffffffffffffffffffffffffffffffffffffff1673ffffffffffffffffffffffffffffffffffffffff16635c3f3b60306040518263ffffffff1660e01b8152600401620000d59190620006cf565b6020604051808303816000875af1158015620000f5573d6000803e3d6000fd5b505050506040513d601f19601f820116820180604052508101906200011b919062000727565b9050600181908060018154018082558091505060019003906000526020600020016000909190919091505560008060009054906101000a900473ffffffffffffffffffffffffffffffffffffffff1673ffffffffffffffffffffffffffffffffffffffff16635c3f3b60306040518263ffffffff1660e01b8152600401620001a49190620006cf565b6020604051808303816000875af1158015620001c4573d6000803e3d6000fd5b505050506040513d601f19601f82011682018060405250810190620001ea919062000727565b9050600181908060018154018082558091505060019003906000526020600020016000909190919091505560008060009054906101000a900473ffffffffffffffffffffffffffffffffffffffff1673ffffffffffffffffffffffffffffffffffffffff16635c3f3b60306040518263ffffffff1660e01b8152600401620002739190620006cf565b6020604051808303816000875af115801562000293573d6000803e3d6000fd5b505050506040513d601f19601f82011682018060405250810190620002b9919062000727565b9050600181908060018154018082558091505060019003906000526020600020016000909190919091505560008060009054906101000a900473ffffffffffffffffffffffffffffffffffffffff1673ffffffffffffffffffffffffffffffffffffffff16635c3f3b60306040518263ffffffff1660e01b8152600401620003429190620006cf565b6020604051808303816000875af115801562000362573d6000803e3d6000fd5b505050506040513d601f19601f8201168201806040525081019062000388919062000727565b9050600181908060018154018082558091505060019003906000526020600020016000909190919091505550505050505050505062000759565b6000604051905090565b600080fd5b600080fd5b600073ffffffffffffffffffffffffffffffffffffffff82169050919050565b60006200040382620003d6565b9050919050565b6200041581620003f6565b81146200042157600080fd5b50565b60008151905062000435816200040a565b92915050565b600080fd5b600080fd5b6000601f19601f8301169050919050565b7f4e487b7100000000000000000000000000000000000000000000000000000000600052604160045260246000fd5b620004908262000445565b810181811067ffffffffffffffff82111715620004b257620004b162000456565b5b80604052505050565b6000620004c7620003c2565b9050620004d5828262000485565b919050565b600067ffffffffffffffff821115620004f857620004f762000456565b5b620005038262000445565b9050602081019050919050565b60005b838110156200053057808201518184015260208101905062000513565b60008484015250505050565b6000620005536200054d84620004da565b620004bb565b90508281526020810184848401111562000572576200057162000440565b5b6200057f84828562000510565b509392505050565b600082601f8301126200059f576200059e6200043b565b5b8151620005b18482602086016200053c565b91505092915050565b600080600080600060a08688031215620005d957620005d8620003cc565b5b6000620005e98882890162000424565b955050602086015167ffffffffffffffff8111156200060d576200060c620003d1565b5b6200061b8882890162000587565b945050604086015167ffffffffffffffff8111156200063f576200063e620003d1565b5b6200064d8882890162000587565b935050606086015167ffffffffffffffff811115620006715762000670620003d1565b5b6200067f8882890162000587565b925050608086015167ffffffffffffffff811115620006a357620006a2620003d1565b5b620006b18882890162000587565b9150509295509295909350565b620006c981620003f6565b82525050565b6000602082019050620006e66000830184620006be565b92915050565b6000819050919050565b6200070181620006ec565b81146200070d57600080fd5b50565b6000815190506200072181620006f6565b92915050565b60006020828403121562000740576200073f620003cc565b5b6000620007508482850162000710565b91505092915050565b6125c980620007696000396000f3fe608060405234801561001057600080fd5b50600436106101215760003560e01c80634fdda1f5116100ad578063cc0a40dc11610071578063cc0a40dc14610357578063d2c5713214610387578063d4be2573146103a5578063e4927805146103c1578063f6ce24ff146103dd57610121565b80634fdda1f51461029c578063575185ed146102cf5780637b5d2534146102d95780638cbac0fa146102f7578063b7ea1d271461032757610121565b8063310efb48116100f4578063310efb48146101c05780633266f9ca146101dc5780633516eb691461020c57806340876fe91461023c5780634093d7a11461026c57610121565b806302b3e3b41461012657806304c68fa9146101565780631a0c750c146101745780631b0c27da14610190575b600080fd5b610140600480360381019061013b9190611ad4565b6103f9565b60405161014d9190611b58565b60405180910390f35b61015e610416565b60405161016b9190611c3b565b60405180910390f35b61018e60048036038101906101899190611c89565b61046e565b005b6101aa60048036038101906101a59190611cc9565b61051d565b6040516101b79190611d05565b60405180910390f35b6101da60048036038101906101d59190611c89565b610535565b005b6101f660048036038101906101f19190611cc9565b610551565b6040516102039190611d05565b60405180910390f35b61022660048036038101906102219190611d20565b610569565b6040516102339190611b58565b60405180910390f35b61025660048036038101906102519190611cc9565b610587565b6040516102639190611d05565b60405180910390f35b61028660048036038101906102819190611cc9565b61059f565b6040516102939190611d05565b60405180910390f35b6102b660048036038101906102b19190611cc9565b6105c3565b6040516102c69493929190611d9d565b60405180910390f35b6102d76106b0565b005b6102e161077d565b6040516102ee9190611e61565b60405180910390f35b610311600480360381019061030c9190611ad4565b6107a1565b60405161031e9190611b58565b60405180910390f35b610341600480360381019061033c9190611cc9565b611012565b60405161034e9190611d05565b60405180910390f35b610371600480360381019061036c9190611cc9565b61102a565b60405161037e9190611b58565b60405180910390f35b61038f61104a565b60405161039c9190611e9d565b60405180910390f35b6103bf60048036038101906103ba9190611ef6565b611070565b005b6103db60048036038101906103d69190611f23565b6110b4565b005b6103f760048036038101906103f2919061200c565b611249565b005b600080610408868686866107a1565b905080915050949350505050565b6060600180548060200260200160405190810160405280929190818152602001828054801561046457602002820191906000526020600020905b815481526020019060010190808311610450575b5050505050905090565b60008054906101000a900473ffffffffffffffffffffffffffffffffffffffff1673ffffffffffffffffffffffffffffffffffffffff16631783efc3600183815481106104be576104bd612077565b5b9060005260206000200154846040518363ffffffff1660e01b81526004016104e79291906120a6565b600060405180830381600087803b15801561050157600080fd5b505af1158015610515573d6000803e3d6000fd5b505050505050565b60066020528060005260406000206000915090505481565b8060066000848152602001908152602001600020819055505050565b60036020528060005260406000206000915090505481565b600080610578868686866107a1565b90508091505095945050505050565b60046020528060005260406000206000915090505481565b600181815481106105af57600080fd5b906000526020600020016000915090505481565b600080600080600360008681526020019081526020016000205460046000878152602001908152602001600020546005600088815260200190815260200160002054600260009054906101000a900473ffffffffffffffffffffffffffffffffffffffff1673ffffffffffffffffffffffffffffffffffffffff166370a08231306040518263ffffffff1660e01b815260040161066091906120de565b602060405180830381865afa15801561067d573d6000803e3d6000fd5b505050506040513d601f19601f820116820180604052508101906106a1919061210e565b93509350935093509193509193565b60008060009054906101000a900473ffffffffffffffffffffffffffffffffffffffff1673ffffffffffffffffffffffffffffffffffffffff16635c3f3b60306040518263ffffffff1660e01b815260040161070c91906120de565b6020604051808303816000875af115801561072b573d6000803e3d6000fd5b505050506040513d601f19601f8201168201806040525081019061074f919061210e565b9050600181908060018154018082558091505060019003906000526020600020016000909190919091505550565b60008054906101000a900473ffffffffffffffffffffffffffffffffffffffff1681565b6000610f41565b7f30644e72e131a029b85045b68181585d97816a916871ca8d3c208c16d87cfd4781106107d9576000805260206000f35b50565b600060405183815284602082015285604082015260408160608360076107d05a03fa91508161080f576000805260206000f35b825160408201526020830151606082015260408360808360066107d05a03fa91508161083f576000805260206000f35b505050505050565b600060808601600087017f07081aa3f80c7bc2a3127e77605d685b82f4de12658dffd62e764f5965cb0cff81527f20aa517929057cc3466008f253de90132ebf2213c0aaa7a3d935308ec5b7ce9660208201526108ea60008801357f0bcf48ca5f2c0f19e22d4264b16ac6ff0775616ef4990b6b9977bef3211ef73d7f27b0a3cb3ea9dec037fab4df3f313aff21972805e6ce873dbbc05ec281191f33846107dc565b61093a60208801357f22fd3ca0867e192b7efea809409f2a4e2972bcf0846ef186b28088c1d1f741297f2b4fc80c5e100ccd6ae3238ed0b187aec7f33a2f203d044030b2f3dcee5cfb9f846107dc565b61098a60408801357f104d7379c32cd44d33ea6a8ef0c6779d73f7d963cceb97dae2b80cecfe74b5317f1dc972366ddc00e64e9e0cc946bebf5638aeeeb5f500c605821df74a1f58d845846107dc565b6109da60608801357f151b9b16593cf12cfc83bab33a1663b6a8397c2343b23fd5ed27ff440e714bd37f2f99eef587a8b406aeafd164f1d62a55e7f918f36d08249d88b7852a043b2518846107dc565b610a2a60808801357f2c3bb099016fbb4d6c402eb012080daf76ff9b5b04f1ff7949fef1c832533d5a7f16f25eb2e4f0b2081f0ca89d0f724e043f66fc5c10ebe57853b3cf0afea824f4846107dc565b610a7960a08801357e6a5bb91a1baf26ef30d1f23ecc4c3bcf5d96d0a535bbe8bb6cca53967973737f15117ee0d3d4378548895d2d573e0718aea96cc4473b75a917bde29eec9d5f2e846107dc565b610ac960c08801357f2a0939e88d47d170dcd764165996763e99d406899e974cbfac79c2085e550fad7f17f21c852d268987ede177ebcdcb6c1db8a7dc592baf180d2e905b4fd4d9f1a5846107dc565b610b1960e08801357f18ef950f9c595fd17b6293301a818200ef6d762584409d68c077be0685d93c087f164b03a6c60f4c262949141b40f394d12ef4bdedf09101a0972ea82b005c4218846107dc565b610b6a6101008801357f198da9afa1f34a3e510427dda3a622ce5e9bc2f659b598e53788018b9df84c2a7f271294c476ae7bda4d9534fb55c02da81e2bf576814251e6e0f5ae170e8ac3e4846107dc565b610bbb6101208801357f1c08c89d1c97163ad3ec4078a4f85563d9655ab40bb0e3e28a82883fd4c7094f7f2061dd346e6edd869b6fb2e5f3ac74134d7e9fd2b645d4109e50fa8b40df97c5846107dc565b610c0c6101408801357f176f5a4e5d77241015a6dd4067ec14f50f6975ca9b9f06eaf57b5454c6f0d0d47f0a89b0c0a21cc4da06b0d15cbcfb85f560fb194f378dbdf9da4f5e6a445573a8846107dc565b610c5d6101608801357f22946da1bb6f6e800813117fe90f13d6d1e8a3363f09857812440a21d4f14e0c7f2385ae23ec0d2aa7421e422cb4ac2de7c92d18e16bbd437c0c1f9ea1b38b9019846107dc565b833582527f30644e72e131a029b85045b68181585d97816a916871ca8d3c208c16d87cfd4760208501357f30644e72e131a029b85045b68181585d97816a916871ca8d3c208c16d87cfd4703066020830152843560408301526020850135606083015260408501356080830152606085013560a08301527f2d4d9aa7e302d9df41749d5507949d05dbea33fbb16c643b22f599a2be6df2e260c08301527f14bedd503c37ceb061d8ec60209fe345ce89830a19230301f076caff004d192660e08301527f0967032fcbf776d1afc985f88877f182d38480a653f2decaa9794cbc3bf3060c6101008301527f0e187847ad4c798374d0d6732bf501847dd68bc0e071241e0213bc7fc13db7ab6101208301527f304cfbd1e08a704a99f5e847d93f8c3caafddec46b7a0d379da69a4d112346a76101408301527f1739c1b1a457a8c7313123d24d2f9192f896b7c63eea05a9d57f06547ad0cec8610160830152600088015161018083015260206000018801516101a08301527f198e9393920d483a7260bfb731fb5d25f1aa493335a9e71297e485b7aef312c26101c08301527f1800deef121f1e76426a00665e5c4479674322d4f75edadd46debd5cd992f6ed6101e08301527f090689d0585ff075ec9e99ad690c3395bc4b313370b38ef355acdadcd122975b6102008301527f12c85ea5db8c6deb4aab71808dcb408fe3d1e7690c43d37b4ce6cc0166fa7daa610220830152853561024083015260208601356102608301527f0a1ffcefe8548f3ce112ae3e558dd6aefae3cbf37c78a9c25a1561c197c638166102808301527f1c87bf7a567e3353fbc0abad4dfd0ffb7647320fae3784d21db865c70980d8ef6102a08301527f2aac77dd1397d37cc513bbc038edde4240d4d1afbcb1910afe8e1d3aacd7efab6102c08301527f0fc40aecb58222dd3bcb043152a4ef9e2a733683dc39a36fa2c761db6cc7bc9f6102e08301526020826103008460086107d05a03fa82518116935050505095945050505050565b6040516103808101604052610f5960008401356107a8565b610f6660208401356107a8565b610f7360408401356107a8565b610f8060608401356107a8565b610f8d60808401356107a8565b610f9a60a08401356107a8565b610fa760c08401356107a8565b610fb460e08401356107a8565b610fc26101008401356107a8565b610fd06101208401356107a8565b610fde6101408401356107a8565b610fec6101608401356107a8565b610ffa6101808401356107a8565b611007818486888a610847565b915050949350505050565b60056020528060005260406000206000915090505481565b60076020528060005260406000206000915054906101000a900460ff1681565b600260009054906101000a900473ffffffffffffffffffffffffffffffffffffffff1681565b80600260006101000a81548173ffffffffffffffffffffffffffffffffffffffff021916908373ffffffffffffffffffffffffffffffffffffffff16021790555050565b856003600089815260200190815260200160002081905550846004600089815260200190815260200160002081905550836005600089815260200190815260200160002081905550600260009054906101000a900473ffffffffffffffffffffffffffffffffffffffff1673ffffffffffffffffffffffffffffffffffffffff166323b872dd8430856040518463ffffffff1660e01b815260040161115b9392919061213b565b6020604051808303816000875af115801561117a573d6000803e3d6000fd5b505050506040513d601f19601f8201168201806040525081019061119e919061219e565b50600260009054906101000a900473ffffffffffffffffffffffffffffffffffffffff1673ffffffffffffffffffffffffffffffffffffffff1663a9059cbb84836040518363ffffffff1660e01b81526004016111fc9291906121cb565b6020604051808303816000875af115801561121b573d6000803e3d6000fd5b505050506040513d601f19601f8201168201806040525081019061123f919061219e565b5050505050505050565b61126683856101a001866101e0018761026001886102a001610569565b506000846102a0016003600c811061128157611280612077565b5b602002013514611357576001151560076000866102a0016003600c81106112ab576112aa612077565b5b6020020135815260200190815260200160002060009054906101000a900460ff1615151461130e576040517f08c379a000000000000000000000000000000000000000000000000000000000815260040161130590612251565b60405180910390fd5b600060076000866102a0016003600c811061132c5761132b612077565b5b6020020135815260200190815260200160002060006101000a81548160ff0219169083151502179055505b600160076000866102a0016004600c811061137557611374612077565b5b6020020135815260200190815260200160002060006101000a81548160ff02191690831515021790555060006040518060c0016040528086600001358152602001866020013581526020018660400135815260200186606001358152602001866080013581526020018660a0016008806020026040519081016040528092919082600860200280828437600081840152601f19601f820116905080830192505050505050815250905060008054906101000a900473ffffffffffffffffffffffffffffffffffffffff1673ffffffffffffffffffffffffffffffffffffffff1663d0d898dd6001868154811061146e5761146d612077565b5b9060005260206000200154836040518363ffffffff1660e01b8152600401611497929190612371565b600060405180830381600087803b1580156114b157600080fd5b505af11580156114c5573d6000803e3d6000fd5b5050505060006040518060e00160405280876102a0016005600c81106114ee576114ed612077565b5b60200201358152602001876102a0016006600c81106115105761150f612077565b5b60200201358152602001876102a0016007600c811061153257611531612077565b5b602002013581526020016003600088815260200190815260200160002054815260200160046000888152602001908152602001600020548152602001600560008881526020019081526020016000205481526020016006600088815260200190815260200160002054815250905060008160c001510361179c576000836003600481106115c2576115c1612077565b5b6020020135146116d0576000600260009054906101000a900473ffffffffffffffffffffffffffffffffffffffff1673ffffffffffffffffffffffffffffffffffffffff166323b872dd86308760036004811061162257611621612077565b5b60200201356040518463ffffffff1660e01b81526004016116459392919061213b565b6020604051808303816000875af1158015611664573d6000803e3d6000fd5b505050506040513d601f19601f82011682018060405250810190611688919061219e565b9050806116ca576040517f08c379a00000000000000000000000000000000000000000000000000000000081526004016116c1906123e7565b60405180910390fd5b50611797565b826000600481106116e4576116e3612077565b5b602002013560036000878152602001908152602001600020600082825461170b9190612436565b925050819055508260016004811061172657611725612077565b5b602002013560046000878152602001908152602001600020600082825461174d9190612436565b925050819055508260026004811061176857611767612077565b5b602002013560056000878152602001908152602001600020600082825461178f9190612436565b925050819055505b611a11565b60018160c001511480156117c857506000836002600481106117c1576117c0612077565b5b6020020135145b15611a06576000836000600481106117e3576117e2612077565b5b60200201351415801561180f575060008360016004811061180757611806612077565b5b602002013514155b8015611833575060008360036004811061182c5761182b612077565b5b6020020135145b156118e257600081608001518460016004811061185357611852612077565b5b60200201358360600151611867919061246a565b61187191906124db565b905080600360008881526020019081526020016000206000828254611896919061250c565b92505081905550836001600481106118b1576118b0612077565b5b602002013582608001516118c5919061250c565b600460008881526020019081526020016000208190555050611a01565b6000836003600481106118f8576118f7612077565b5b602002013514611a00576000600260009054906101000a900473ffffffffffffffffffffffffffffffffffffffff1673ffffffffffffffffffffffffffffffffffffffff1663a9059cbb868660036004811061195757611956612077565b5b60200201356040518363ffffffff1660e01b81526004016119799291906121cb565b6020604051808303816000875af1158015611998573d6000803e3d6000fd5b505050506040513d601f19601f820116820180604052508101906119bc919061219e565b9050806119fe576040517f08c379a00000000000000000000000000000000000000000000000000000000081526004016119f5906123e7565b60405180910390fd5b505b5b611a10565b60028160c0015150505b5b7f66d5bbe67f59694833fb31dee9460ea88b4e3614d741ddba079f5ca31901fb268542836000015184602001518560400151604051611a54959493929190612540565b60405180910390a1505050505050565b600080fd5b600080fd5b600081905082602060020282011115611a8a57611a89611a69565b5b92915050565b600081905082604060020282011115611aac57611aab611a69565b5b92915050565b6000819050826020600c0282011115611ace57611acd611a69565b5b92915050565b6000806000806102808587031215611aef57611aee611a64565b5b6000611afd87828801611a6e565b9450506040611b0e87828801611a90565b93505060c0611b1f87828801611a6e565b925050610100611b3187828801611ab2565b91505092959194509250565b60008115159050919050565b611b5281611b3d565b82525050565b6000602082019050611b6d6000830184611b49565b92915050565b600081519050919050565b600082825260208201905092915050565b6000819050602082019050919050565b6000819050919050565b611bb281611b9f565b82525050565b6000611bc48383611ba9565b60208301905092915050565b6000602082019050919050565b6000611be882611b73565b611bf28185611b7e565b9350611bfd83611b8f565b8060005b83811015611c2e578151611c158882611bb8565b9750611c2083611bd0565b925050600181019050611c01565b5085935050505092915050565b60006020820190508181036000830152611c558184611bdd565b905092915050565b611c6681611b9f565b8114611c7157600080fd5b50565b600081359050611c8381611c5d565b92915050565b60008060408385031215611ca057611c9f611a64565b5b6000611cae85828601611c74565b9250506020611cbf85828601611c74565b9150509250929050565b600060208284031215611cdf57611cde611a64565b5b6000611ced84828501611c74565b91505092915050565b611cff81611b9f565b82525050565b6000602082019050611d1a6000830184611cf6565b92915050565b60008060008060006102a08688031215611d3d57611d3c611a64565b5b6000611d4b88828901611c74565b9550506020611d5c88828901611a6e565b9450506060611d6d88828901611a90565b93505060e0611d7e88828901611a6e565b925050610120611d9088828901611ab2565b9150509295509295909350565b6000608082019050611db26000830187611cf6565b611dbf6020830186611cf6565b611dcc6040830185611cf6565b611dd96060830184611cf6565b95945050505050565b600073ffffffffffffffffffffffffffffffffffffffff82169050919050565b6000819050919050565b6000611e27611e22611e1d84611de2565b611e02565b611de2565b9050919050565b6000611e3982611e0c565b9050919050565b6000611e4b82611e2e565b9050919050565b611e5b81611e40565b82525050565b6000602082019050611e766000830184611e52565b92915050565b6000611e8782611e2e565b9050919050565b611e9781611e7c565b82525050565b6000602082019050611eb26000830184611e8e565b92915050565b6000611ec382611de2565b9050919050565b611ed381611eb8565b8114611ede57600080fd5b50565b600081359050611ef081611eca565b92915050565b600060208284031215611f0c57611f0b611a64565b5b6000611f1a84828501611ee1565b91505092915050565b600080600080600080600060e0888a031215611f4257611f41611a64565b5b6000611f508a828b01611c74565b9750506020611f618a828b01611c74565b9650506040611f728a828b01611c74565b9550506060611f838a828b01611c74565b9450506080611f948a828b01611ee1565b93505060a0611fa58a828b01611c74565b92505060c0611fb68a828b01611c74565b91505092959891949750929550565b600080fd5b60006104208284031215611fe157611fe0611fc5565b5b81905092915050565b60008190508260206004028201111561200657612005611a69565b5b92915050565b6000806000806104e0858703121561202757612026611a64565b5b600061203587828801611fca565b94505061042061204787828801611c74565b93505061044061205987828801611ee1565b92505061046061206b87828801611fea565b91505092959194509250565b7f4e487b7100000000000000000000000000000000000000000000000000000000600052603260045260246000fd5b60006040820190506120bb6000830185611cf6565b6120c86020830184611cf6565b9392505050565b6120d881611eb8565b82525050565b60006020820190506120f360008301846120cf565b92915050565b60008151905061210881611c5d565b92915050565b60006020828403121561212457612123611a64565b5b6000612132848285016120f9565b91505092915050565b600060608201905061215060008301866120cf565b61215d60208301856120cf565b61216a6040830184611cf6565b949350505050565b61217b81611b3d565b811461218657600080fd5b50565b60008151905061219881612172565b92915050565b6000602082840312156121b4576121b3611a64565b5b60006121c284828501612189565b91505092915050565b60006040820190506121e060008301856120cf565b6121ed6020830184611cf6565b9392505050565b600082825260208201905092915050565b7f7574786f4861736820616c726561647920757365640000000000000000000000600082015250565b600061223b6015836121f4565b915061224682612205565b602082019050919050565b6000602082019050818103600083015261226a8161222e565b9050919050565b600060089050919050565b600081905092915050565b6000819050919050565b6000602082019050919050565b6122a781612271565b6122b1818461227c565b92506122bc82612287565b8060005b838110156122ed5781516122d48782611bb8565b96506122df83612291565b9250506001810190506122c0565b505050505050565b6101a08201600082015161230c6000850182611ba9565b50602082015161231f6020850182611ba9565b5060408201516123326040850182611ba9565b5060608201516123456060850182611ba9565b5060808201516123586080850182611ba9565b5060a082015161236b60a085018261229e565b50505050565b60006101c0820190506123876000830185611cf6565b61239460208301846122f5565b9392505050565b7f5472616e73666572206661696c65640000000000000000000000000000000000600082015250565b60006123d1600f836121f4565b91506123dc8261239b565b602082019050919050565b60006020820190508181036000830152612400816123c4565b9050919050565b7f4e487b7100000000000000000000000000000000000000000000000000000000600052601160045260246000fd5b600061244182611b9f565b915061244c83611b9f565b925082820190508082111561246457612463612407565b5b92915050565b600061247582611b9f565b915061248083611b9f565b925082820261248e81611b9f565b915082820484148315176124a5576124a4612407565b5b5092915050565b7f4e487b7100000000000000000000000000000000000000000000000000000000600052601260045260246000fd5b60006124e682611b9f565b91506124f183611b9f565b925082612501576125006124ac565b5b828204905092915050565b600061251782611b9f565b915061252283611b9f565b925082820390508181111561253a57612539612407565b5b92915050565b600060a0820190506125556000830188611cf6565b6125626020830187611cf6565b61256f6040830186611cf6565b61257c6060830185611cf6565b6125896080830184611cf6565b969550505050505056fea2646970667358221220e4aee8b18569b7adca736660e3c08951b145ca614b8d9068e6b18c32c55bbed164736f6c63430008170033",
  "linkReferences": {},
  "deployedLinkReferences": {}
}