{
  "_format": "hh-sol-artifact-1",
  "contractName": "Feedback",
  "sourceName": "contracts/Feedback.sol",
  "abi": [
    {
      "inputs": [
        {
          "internalType": "address",
          "name": "semaphoreAddress",
          "type": "address"
        },
        {
          "internalType": "string",
          "name": "tokenAName",
          "type": "string"
        },
        {
          "internalType": "string",
          "name": "tokenBName",
          "type": "string"
        },
        {
          "internalType": "string",
          "name": "tokenASymbol",
          "type": "string"
        },
        {
          "internalType": "string",
          "name": "tokenBSymbol",
          "type": "string"
        }
      ],
      "stateMutability": "nonpayable",
      "type": "constructor"
    },
    {
      "anonymous": false,
      "inputs": [
        {
          "indexed": false,
          "internalType": "uint256",
          "name": "groupId",
          "type": "uint256"
        },
        {
          "indexed": false,
          "internalType": "uint256",
          "name": "timestamp",
          "type": "uint256"
        },
        {
          "indexed": false,
          "internalType": "uint256",
          "name": "newCoinBalance",
          "type": "uint256"
        },
        {
          "indexed": false,
          "internalType": "uint256",
          "name": "newTokenABalance",
          "type": "uint256"
        },
        {
          "indexed": false,
          "internalType": "uint256",
          "name": "newTokenBBalance",
          "type": "uint256"
        }
      ],
      "name": "UpdatePoolBalances",
      "type": "event"
    },
    {
      "inputs": [
        {
          "internalType": "uint256",
          "name": "groupIdsIdx",
          "type": "uint256"
        },
        {
          "internalType": "uint256[2]",
          "name": "a",
          "type": "uint256[2]"
        },
        {
          "internalType": "uint256[2][2]",
          "name": "b",
          "type": "uint256[2][2]"
        },
        {
          "internalType": "uint256[2]",
          "name": "c",
          "type": "uint256[2]"
        },
        {
          "internalType": "uint256[8]",
          "name": "input",
          "type": "uint256[8]"
        }
      ],
      "name": "_verifyCheck",
      "outputs": [
        {
          "internalType": "bool",
          "name": "",
          "type": "bool"
        }
      ],
      "stateMutability": "view",
      "type": "function"
    },
    {
      "inputs": [
        {
          "internalType": "uint256",
          "name": "groupIdsIdx",
          "type": "uint256"
        }
      ],
      "name": "checkBalances",
      "outputs": [
        {
          "internalType": "uint256",
          "name": "",
          "type": "uint256"
        },
        {
          "internalType": "uint256",
          "name": "",
          "type": "uint256"
        },
        {
          "internalType": "uint256",
          "name": "",
          "type": "uint256"
        },
        {
          "internalType": "uint256",
          "name": "",
          "type": "uint256"
        }
      ],
      "stateMutability": "view",
      "type": "function"
    },
    {
      "inputs": [],
      "name": "checkGroupIds",
      "outputs": [
        {
          "internalType": "uint256[]",
          "name": "",
          "type": "uint256[]"
        }
      ],
      "stateMutability": "view",
      "type": "function"
    },
    {
      "inputs": [
        {
          "internalType": "uint256",
          "name": "groupIdsIdx",
          "type": "uint256"
        }
      ],
      "name": "checkPrice",
      "outputs": [
        {
          "internalType": "uint256",
          "name": "",
          "type": "uint256"
        },
        {
          "internalType": "uint256",
          "name": "",
          "type": "uint256"
        }
      ],
      "stateMutability": "view",
      "type": "function"
    },
    {
      "inputs": [
        {
          "internalType": "uint256",
          "name": "_groupIdsIdx",
          "type": "uint256"
        }
      ],
      "name": "claim",
      "outputs": [],
      "stateMutability": "nonpayable",
      "type": "function"
    },
    {
      "inputs": [
        {
          "internalType": "uint256",
          "name": "",
          "type": "uint256"
        }
      ],
      "name": "coinBalances",
      "outputs": [
        {
          "internalType": "uint256",
          "name": "",
          "type": "uint256"
        }
      ],
      "stateMutability": "view",
      "type": "function"
    },
    {
      "inputs": [],
      "name": "createGroup",
      "outputs": [],
      "stateMutability": "nonpayable",
      "type": "function"
    },
    {
      "inputs": [
        {
          "internalType": "uint256",
          "name": "groupIdsIdx",
          "type": "uint256"
        },
        {
          "internalType": "uint256",
          "name": "amount",
          "type": "uint256"
        }
      ],
      "name": "deposit",
      "outputs": [],
      "stateMutability": "nonpayable",
      "type": "function"
    },
    {
      "inputs": [
        {
          "internalType": "uint256",
          "name": "",
          "type": "uint256"
        }
      ],
      "name": "groupIds",
      "outputs": [
        {
          "internalType": "uint256",
          "name": "",
          "type": "uint256"
        }
      ],
      "stateMutability": "view",
      "type": "function"
    },
    {
      "inputs": [
        {
          "internalType": "uint256",
          "name": "identityCommitment",
          "type": "uint256"
        },
        {
          "internalType": "uint256",
          "name": "groupIdsIdx",
          "type": "uint256"
        }
      ],
      "name": "joinGroup",
      "outputs": [],
      "stateMutability": "nonpayable",
      "type": "function"
    },
    {
      "inputs": [],
      "name": "mockCoin",
      "outputs": [
        {
          "internalType": "contract MockCoin",
          "name": "",
          "type": "address"
        }
      ],
      "stateMutability": "view",
      "type": "function"
    },
    {
      "inputs": [
        {
          "internalType": "uint256",
          "name": "",
          "type": "uint256"
        }
      ],
      "name": "results",
      "outputs": [
        {
          "internalType": "uint256",
          "name": "",
          "type": "uint256"
        }
      ],
      "stateMutability": "view",
      "type": "function"
    },
    {
      "inputs": [],
      "name": "semaphore",
      "outputs": [
        {
          "internalType": "contract ISemaphore",
          "name": "",
          "type": "address"
        }
      ],
      "stateMutability": "view",
      "type": "function"
    },
    {
      "inputs": [
        {
          "components": [
            {
              "internalType": "uint256",
              "name": "merkleTreeDepth",
              "type": "uint256"
            },
            {
              "internalType": "uint256",
              "name": "merkleTreeRoot",
              "type": "uint256"
            },
            {
              "internalType": "uint256",
              "name": "nullifier",
              "type": "uint256"
            },
            {
              "internalType": "uint256",
              "name": "feedback",
              "type": "uint256"
            },
            {
              "internalType": "uint256",
              "name": "scope",
              "type": "uint256"
            },
            {
              "internalType": "uint256[8]",
              "name": "points",
              "type": "uint256[8]"
            },
            {
              "internalType": "uint256[2]",
              "name": "a",
              "type": "uint256[2]"
            },
            {
              "internalType": "uint256[2][2]",
              "name": "b",
              "type": "uint256[2][2]"
            },
            {
              "internalType": "uint256[2]",
              "name": "c",
              "type": "uint256[2]"
            },
            {
              "internalType": "uint256[8]",
              "name": "input",
              "type": "uint256[8]"
            }
          ],
          "internalType": "struct Feedback.FeedbackInput",
          "name": "feedbackInput",
          "type": "tuple"
        },
        {
          "internalType": "uint256",
          "name": "groupIdsIdx",
          "type": "uint256"
        },
        {
          "internalType": "address",
          "name": "ethAddress",
          "type": "address"
        },
        {
          "internalType": "uint256[4]",
          "name": "diffAmounts",
          "type": "uint256[4]"
        }
      ],
      "name": "sendFeedback",
      "outputs": [],
      "stateMutability": "nonpayable",
      "type": "function"
    },
    {
      "inputs": [
        {
          "internalType": "uint256",
          "name": "_groupIdsIdx",
          "type": "uint256"
        },
        {
          "internalType": "uint256",
          "name": "_coinBalance",
          "type": "uint256"
        },
        {
          "internalType": "uint256",
          "name": "_tokenABalance",
          "type": "uint256"
        },
        {
          "internalType": "uint256",
          "name": "_tokenBBalance",
          "type": "uint256"
        },
        {
          "internalType": "address",
          "name": "_ethAddress",
          "type": "address"
        },
        {
          "internalType": "uint256",
          "name": "_poolAdd",
          "type": "uint256"
        },
        {
          "internalType": "uint256",
          "name": "_poolSub",
          "type": "uint256"
        }
      ],
      "name": "setBalances",
      "outputs": [],
      "stateMutability": "nonpayable",
      "type": "function"
    },
    {
      "inputs": [
        {
          "internalType": "address",
          "name": "mockCoinAddress",
          "type": "address"
        }
      ],
      "name": "setMockCoin",
      "outputs": [],
      "stateMutability": "nonpayable",
      "type": "function"
    },
    {
      "inputs": [
        {
          "internalType": "uint256",
          "name": "_groupIdsIdx",
          "type": "uint256"
        },
        {
          "internalType": "uint256",
          "name": "_result",
          "type": "uint256"
        }
      ],
      "name": "setResult",
      "outputs": [],
      "stateMutability": "nonpayable",
      "type": "function"
    },
    {
      "inputs": [
        {
          "internalType": "uint256",
          "name": "",
          "type": "uint256"
        }
      ],
      "name": "tokenABalances",
      "outputs": [
        {
          "internalType": "uint256",
          "name": "",
          "type": "uint256"
        }
      ],
      "stateMutability": "view",
      "type": "function"
    },
    {
      "inputs": [
        {
          "internalType": "uint256",
          "name": "",
          "type": "uint256"
        }
      ],
      "name": "tokenBBalances",
      "outputs": [
        {
          "internalType": "uint256",
          "name": "",
          "type": "uint256"
        }
      ],
      "stateMutability": "view",
      "type": "function"
    },
    {
      "inputs": [
        {
          "internalType": "uint256[2]",
          "name": "a",
          "type": "uint256[2]"
        },
        {
          "internalType": "uint256[2][2]",
          "name": "b",
          "type": "uint256[2][2]"
        },
        {
          "internalType": "uint256[2]",
          "name": "c",
          "type": "uint256[2]"
        },
        {
          "internalType": "uint256[8]",
          "name": "input",
          "type": "uint256[8]"
        }
      ],
      "name": "verify",
      "outputs": [
        {
          "internalType": "bool",
          "name": "",
          "type": "bool"
        }
      ],
      "stateMutability": "view",
      "type": "function"
    },
    {
      "inputs": [
        {
          "internalType": "uint256[2]",
          "name": "_pA",
          "type": "uint256[2]"
        },
        {
          "internalType": "uint256[2][2]",
          "name": "_pB",
          "type": "uint256[2][2]"
        },
        {
          "internalType": "uint256[2]",
          "name": "_pC",
          "type": "uint256[2]"
        },
        {
          "internalType": "uint256[8]",
          "name": "_pubSignals",
          "type": "uint256[8]"
        }
      ],
      "name": "verifyProof",
      "outputs": [
        {
          "internalType": "bool",
          "name": "isValid",
          "type": "bool"
        }
      ],
      "stateMutability": "view",
      "type": "function"
    }
  ],
  "bytecode": "0x60806040523480156200001157600080fd5b5060405162002c3b38038062002c3b8339818101604052810190620000379190620005ba565b846000806101000a81548173ffffffffffffffffffffffffffffffffffffffff021916908373ffffffffffffffffffffffffffffffffffffffff16021790555060008060009054906101000a900473ffffffffffffffffffffffffffffffffffffffff1673ffffffffffffffffffffffffffffffffffffffff16635c3f3b60306040518263ffffffff1660e01b8152600401620000d59190620006cf565b6020604051808303816000875af1158015620000f5573d6000803e3d6000fd5b505050506040513d601f19601f820116820180604052508101906200011b919062000727565b9050600181908060018154018082558091505060019003906000526020600020016000909190919091505560008060009054906101000a900473ffffffffffffffffffffffffffffffffffffffff1673ffffffffffffffffffffffffffffffffffffffff16635c3f3b60306040518263ffffffff1660e01b8152600401620001a49190620006cf565b6020604051808303816000875af1158015620001c4573d6000803e3d6000fd5b505050506040513d601f19601f82011682018060405250810190620001ea919062000727565b9050600181908060018154018082558091505060019003906000526020600020016000909190919091505560008060009054906101000a900473ffffffffffffffffffffffffffffffffffffffff1673ffffffffffffffffffffffffffffffffffffffff16635c3f3b60306040518263ffffffff1660e01b8152600401620002739190620006cf565b6020604051808303816000875af115801562000293573d6000803e3d6000fd5b505050506040513d601f19601f82011682018060405250810190620002b9919062000727565b9050600181908060018154018082558091505060019003906000526020600020016000909190919091505560008060009054906101000a900473ffffffffffffffffffffffffffffffffffffffff1673ffffffffffffffffffffffffffffffffffffffff16635c3f3b60306040518263ffffffff1660e01b8152600401620003429190620006cf565b6020604051808303816000875af115801562000362573d6000803e3d6000fd5b505050506040513d601f19601f8201168201806040525081019062000388919062000727565b9050600181908060018154018082558091505060019003906000526020600020016000909190919091505550505050505050505062000759565b6000604051905090565b600080fd5b600080fd5b600073ffffffffffffffffffffffffffffffffffffffff82169050919050565b60006200040382620003d6565b9050919050565b6200041581620003f6565b81146200042157600080fd5b50565b60008151905062000435816200040a565b92915050565b600080fd5b600080fd5b6000601f19601f8301169050919050565b7f4e487b7100000000000000000000000000000000000000000000000000000000600052604160045260246000fd5b620004908262000445565b810181811067ffffffffffffffff82111715620004b257620004b162000456565b5b80604052505050565b6000620004c7620003c2565b9050620004d5828262000485565b919050565b600067ffffffffffffffff821115620004f857620004f762000456565b5b620005038262000445565b9050602081019050919050565b60005b838110156200053057808201518184015260208101905062000513565b60008484015250505050565b6000620005536200054d84620004da565b620004bb565b90508281526020810184848401111562000572576200057162000440565b5b6200057f84828562000510565b509392505050565b600082601f8301126200059f576200059e6200043b565b5b8151620005b18482602086016200053c565b91505092915050565b600080600080600060a08688031215620005d957620005d8620003cc565b5b6000620005e98882890162000424565b955050602086015167ffffffffffffffff8111156200060d576200060c620003d1565b5b6200061b8882890162000587565b945050604086015167ffffffffffffffff8111156200063f576200063e620003d1565b5b6200064d8882890162000587565b935050606086015167ffffffffffffffff811115620006715762000670620003d1565b5b6200067f8882890162000587565b925050608086015167ffffffffffffffff811115620006a357620006a2620003d1565b5b620006b18882890162000587565b9150509295509295909350565b620006c981620003f6565b82525050565b6000602082019050620006e66000830184620006be565b92915050565b6000819050919050565b6200070181620006ec565b81146200070d57600080fd5b50565b6000815190506200072181620006f6565b92915050565b60006020828403121562000740576200073f620003cc565b5b6000620007508482850162000710565b91505092915050565b6124d280620007696000396000f3fe608060405234801561001057600080fd5b50600436106101375760003560e01c80634fdda1f5116100b8578063c9219a7a1161007c578063c9219a7a14610376578063d2c57132146103a6578063d4be2573146103c4578063e2bbb158146103e0578063e4927805146103fc578063eb610a851461041857610137565b80634fdda1f5146102bb578063575185ed146102ee5780637b5d2534146102f8578063817edf9414610316578063b7ea1d271461034657610137565b8063310efb48116100ff578063310efb48146101f35780633266f9ca1461020f578063379607f51461023f57806340876fe91461025b5780634093d7a11461028b57610137565b806304c68fa91461013c5780630aa87dbe1461015a5780631a0c750c146101765780631b0c27da146101925780631de7463a146101c2575b600080fd5b610144610448565b6040516101519190611aa7565b60405180910390f35b610174600480360381019061016f9190611ba4565b6104a0565b005b610190600480360381019061018b9190611c0f565b610b1d565b005b6101ac60048036038101906101a79190611c4f565b610bcc565b6040516101b99190611c8b565b60405180910390f35b6101dc60048036038101906101d79190611c4f565b610be4565b6040516101ea929190611ca6565b60405180910390f35b61020d60048036038101906102089190611c0f565b610cb4565b005b61022960048036038101906102249190611c4f565b610cd0565b6040516102369190611c8b565b60405180910390f35b61025960048036038101906102549190611c4f565b610ce8565b005b61027560048036038101906102709190611c4f565b610d41565b6040516102829190611c8b565b60405180910390f35b6102a560048036038101906102a09190611c4f565b610d59565b6040516102b29190611c8b565b60405180910390f35b6102d560048036038101906102d09190611c4f565b610d7d565b6040516102e59493929190611ccf565b60405180910390f35b6102f6610e6a565b005b610300610f37565b60405161030d9190611d73565b60405180910390f35b610330600480360381019061032b9190611df4565b610f5b565b60405161033d9190611e8c565b60405180910390f35b610360600480360381019061035b9190611c4f565b610f79565b60405161036d9190611c8b565b60405180910390f35b610390600480360381019061038b9190611ea7565b610f91565b60405161039d9190611e8c565b60405180910390f35b6103ae611686565b6040516103bb9190611f31565b60405180910390f35b6103de60048036038101906103d99190611f4c565b6116ac565b005b6103fa60048036038101906103f59190611c0f565b6116f0565b005b61041660048036038101906104119190611f79565b61182d565b005b610432600480360381019061042d9190611ea7565b6119c2565b60405161043f9190611e8c565b60405180910390f35b6060600180548060200260200160405190810160405280929190818152602001828054801561049657602002820191906000526020600020905b815481526020019060010190808311610482575b5050505050905090565b6104bd83856101a001866101e0018761026001886102a001610f5b565b50600160076000866102a0016004600881106104dc576104db61201b565b5b6020020135815260200190815260200160002060006101000a81548160ff02191690831515021790555060006040518060c0016040528086600001358152602001866020013581526020018660400135815260200186606001358152602001866080013581526020018660a0016008806020026040519081016040528092919082600860200280828437600081840152601f19601f820116905080830192505050505050815250905060006040518060e00160405280876102a0016005600881106105aa576105a961201b565b5b60200201358152602001876102a0016006600881106105cc576105cb61201b565b5b60200201358152602001876102a0016007600881106105ee576105ed61201b565b5b602002013581526020016003600088815260200190815260200160002054815260200160046000888152602001908152602001600020548152602001600560008881526020019081526020016000205481526020016006600088815260200190815260200160002054815250905060008160c00151036108585760008360036004811061067e5761067d61201b565b5b60200201351461078c576000600260009054906101000a900473ffffffffffffffffffffffffffffffffffffffff1673ffffffffffffffffffffffffffffffffffffffff166323b872dd8630876003600481106106de576106dd61201b565b5b60200201356040518463ffffffff1660e01b815260040161070193929190612059565b6020604051808303816000875af1158015610720573d6000803e3d6000fd5b505050506040513d601f19601f8201168201806040525081019061074491906120bc565b905080610786576040517f08c379a000000000000000000000000000000000000000000000000000000000815260040161077d90612146565b60405180910390fd5b50610853565b826000600481106107a05761079f61201b565b5b60200201356003600087815260200190815260200160002060008282546107c79190612195565b92505081905550826001600481106107e2576107e161201b565b5b60200201356004600087815260200190815260200160002060008282546108099190612195565b92505081905550826002600481106108245761082361201b565b5b602002013560056000878152602001908152602001600020600082825461084b9190612195565b925050819055505b610aca565b60018160c00151148015610884575060008360026004811061087d5761087c61201b565b5b6020020135145b15610abf5760008360006004811061089f5761089e61201b565b5b6020020135141580156108cb57506000836001600481106108c3576108c261201b565b5b602002013514155b80156108ef57506000836003600481106108e8576108e761201b565b5b6020020135145b1561099b5760008360016004811061090a5761090961201b565b5b60200201358260800151836060015161092391906121c9565b61092d919061223a565b905080826060015161093f919061226b565b60036000888152602001908152602001600020819055508360016004811061096a5761096961201b565b5b6020020135826080015161097e919061226b565b600460008881526020019081526020016000208190555050610aba565b6000836003600481106109b1576109b061201b565b5b602002013514610ab9576000600260009054906101000a900473ffffffffffffffffffffffffffffffffffffffff1673ffffffffffffffffffffffffffffffffffffffff1663a9059cbb8686600360048110610a1057610a0f61201b565b5b60200201356040518363ffffffff1660e01b8152600401610a3292919061229f565b6020604051808303816000875af1158015610a51573d6000803e3d6000fd5b505050506040513d601f19601f82011682018060405250810190610a7591906120bc565b905080610ab7576040517f08c379a0000000000000000000000000000000000000000000000000000000008152600401610aae90612146565b60405180910390fd5b505b5b610ac9565b60028160c0015150505b5b7f66d5bbe67f59694833fb31dee9460ea88b4e3614d741ddba079f5ca31901fb268542836000015184602001518560400151604051610b0d9594939291906122c8565b60405180910390a1505050505050565b60008054906101000a900473ffffffffffffffffffffffffffffffffffffffff1673ffffffffffffffffffffffffffffffffffffffff16631783efc360018381548110610b6d57610b6c61201b565b5b9060005260206000200154846040518363ffffffff1660e01b8152600401610b96929190611ca6565b600060405180830381600087803b158015610bb057600080fd5b505af1158015610bc4573d6000803e3d6000fd5b505050505050565b60066020528060005260406000206000915090505481565b600080600060056000858152602001908152602001600020546004600086815260200190815260200160002054610c1b9190612195565b905060008111610c60576040517f08c379a0000000000000000000000000000000000000000000000000000000008152600401610c57906123b3565b60405180910390fd5b6000816004600087815260200190815260200160002054610c81919061223a565b90506000826005600088815260200190815260200160002054610ca4919061223a565b9050818194509450505050915091565b8060066000848152602001908152602001600020819055505050565b60036020528060005260406000206000915090505481565b6000600660008381526020019081526020016000205403610d3e576040517f08c379a0000000000000000000000000000000000000000000000000000000008152600401610d359061241f565b60405180910390fd5b50565b60046020528060005260406000206000915090505481565b60018181548110610d6957600080fd5b906000526020600020016000915090505481565b600080600080600360008681526020019081526020016000205460046000878152602001908152602001600020546005600088815260200190815260200160002054600260009054906101000a900473ffffffffffffffffffffffffffffffffffffffff1673ffffffffffffffffffffffffffffffffffffffff166370a08231306040518263ffffffff1660e01b8152600401610e1a919061243f565b602060405180830381865afa158015610e37573d6000803e3d6000fd5b505050506040513d601f19601f82011682018060405250810190610e5b919061246f565b93509350935093509193509193565b60008060009054906101000a900473ffffffffffffffffffffffffffffffffffffffff1673ffffffffffffffffffffffffffffffffffffffff16635c3f3b60306040518263ffffffff1660e01b8152600401610ec6919061243f565b6020604051808303816000875af1158015610ee5573d6000803e3d6000fd5b505050506040513d601f19601f82011682018060405250810190610f09919061246f565b9050600181908060018154018082558091505060019003906000526020600020016000909190919091505550565b60008054906101000a900473ffffffffffffffffffffffffffffffffffffffff1681565b600080610f6a86868686610f91565b90508091505095945050505050565b60056020528060005260406000206000915090505481565b60006115ed565b7f30644e72e131a029b85045b68181585d97816a916871ca8d3c208c16d87cfd478110610fc9576000805260206000f35b50565b600060405183815284602082015285604082015260408160608360076107d05a03fa915081610fff576000805260206000f35b825160408201526020830151606082015260408360808360066107d05a03fa91508161102f576000805260206000f35b505050505050565b600060808601600087017f07680b0e87510917debac113c08121cc767cb9143dd7316a1d10b2602b1c469b81527f11020d15b91e4c7f262ada447cf40da74eeec4cf8cffd3980b4b78b6d655e96260208201526110da60008801357f198da9afa1f34a3e510427dda3a622ce5e9bc2f659b598e53788018b9df84c2a7f271294c476ae7bda4d9534fb55c02da81e2bf576814251e6e0f5ae170e8ac3e484610fcc565b61112a60208801357f1c08c89d1c97163ad3ec4078a4f85563d9655ab40bb0e3e28a82883fd4c7094f7f2061dd346e6edd869b6fb2e5f3ac74134d7e9fd2b645d4109e50fa8b40df97c584610fcc565b61117a60408801357f176f5a4e5d77241015a6dd4067ec14f50f6975ca9b9f06eaf57b5454c6f0d0d47f0a89b0c0a21cc4da06b0d15cbcfb85f560fb194f378dbdf9da4f5e6a445573a884610fcc565b6111ca60608801357f268f6edb3ab5a2dd24c04ba3c5b9de98dbe3c0dd08ca75c4bbc4553d3d9e96b37f0aebdde9d084f96310cca8b01b340eeca25371eba3486a8724f2911d645db32384610fcc565b61121a60808801357f10347a0330c7b5c6d45a814cc82008d1b77fa334ad4acf57f00a059faeba6d7f7f1799fafebdd53ba3494883bd50064618a818beb7c5f7f061c5cb8ee7ac248f2984610fcc565b61126a60a08801357f20a9f83a80bf1cb399620155d0976ee3cf056fe7b810a25a5605a985944ae5c37f0deb79f71a5bce5fcf62dec4e1e2040dc75eecb4f7986d4cc5785ee2d0e4f41684610fcc565b6112ba60c08801357f0ce942786ff47ebff7ed141f7a0b41555e4162db811be207e437d3e96a9e7e0e7f0f6b735aeddac41aa105d3ad6427626b0b037303304434759b73971a4c73aa9184610fcc565b61130960e08801357e351654f5db2b1ab1a7a418b9dbed4dcebd810e5a6839eb973ab2b1a5df52be7f0585e30c0285e391a3c75029a77798f9268885f76c29a2d0d4b79cba0073bff584610fcc565b833582527f30644e72e131a029b85045b68181585d97816a916871ca8d3c208c16d87cfd4760208501357f30644e72e131a029b85045b68181585d97816a916871ca8d3c208c16d87cfd4703066020830152843560408301526020850135606083015260408501356080830152606085013560a08301527f2d4d9aa7e302d9df41749d5507949d05dbea33fbb16c643b22f599a2be6df2e260c08301527f14bedd503c37ceb061d8ec60209fe345ce89830a19230301f076caff004d192660e08301527f0967032fcbf776d1afc985f88877f182d38480a653f2decaa9794cbc3bf3060c6101008301527f0e187847ad4c798374d0d6732bf501847dd68bc0e071241e0213bc7fc13db7ab6101208301527f304cfbd1e08a704a99f5e847d93f8c3caafddec46b7a0d379da69a4d112346a76101408301527f1739c1b1a457a8c7313123d24d2f9192f896b7c63eea05a9d57f06547ad0cec8610160830152600088015161018083015260206000018801516101a08301527f198e9393920d483a7260bfb731fb5d25f1aa493335a9e71297e485b7aef312c26101c08301527f1800deef121f1e76426a00665e5c4479674322d4f75edadd46debd5cd992f6ed6101e08301527f090689d0585ff075ec9e99ad690c3395bc4b313370b38ef355acdadcd122975b6102008301527f12c85ea5db8c6deb4aab71808dcb408fe3d1e7690c43d37b4ce6cc0166fa7daa610220830152853561024083015260208601356102608301527f1ab03618ac85e2c195730eebfefc62875e02975704c45821433ed377062bc79c6102808301527f0b5a3644e26318de97f40bd4648fa7f94bb593e85e51e8ade0163f3b507915e56102a08301527f29bcada1ea1f8b4bde4e31434501e59710f44e562717ece2578f7aa5dcc65a166102c08301527f17d36c2a6c79bb496b2697493851731f3a9f71e9bef8a79ca1492d80ff74b8976102e08301526020826103008460086107d05a03fa82518116935050505095945050505050565b60405161038081016040526116056000840135610f98565b6116126020840135610f98565b61161f6040840135610f98565b61162c6060840135610f98565b6116396080840135610f98565b61164660a0840135610f98565b61165360c0840135610f98565b61166060e0840135610f98565b61166e610100840135610f98565b61167b818486888a611037565b915050949350505050565b600260009054906101000a900473ffffffffffffffffffffffffffffffffffffffff1681565b80600260006101000a81548173ffffffffffffffffffffffffffffffffffffffff021916908373ffffffffffffffffffffffffffffffffffffffff16021790555050565b600260009054906101000a900473ffffffffffffffffffffffffffffffffffffffff1673ffffffffffffffffffffffffffffffffffffffff166323b872dd3330846040518463ffffffff1660e01b815260040161174f93929190612059565b6020604051808303816000875af115801561176e573d6000803e3d6000fd5b505050506040513d601f19601f8201168201806040525081019061179291906120bc565b50806003600084815260200190815260200160002060008282546117b69190612195565b92505081905550600a816117ca91906121c9565b6004600084815260200190815260200160002060008282546117ec9190612195565b92505081905550600a8161180091906121c9565b6005600084815260200190815260200160002060008282546118229190612195565b925050819055505050565b856003600089815260200190815260200160002081905550846004600089815260200190815260200160002081905550836005600089815260200190815260200160002081905550600260009054906101000a900473ffffffffffffffffffffffffffffffffffffffff1673ffffffffffffffffffffffffffffffffffffffff166323b872dd8430856040518463ffffffff1660e01b81526004016118d493929190612059565b6020604051808303816000875af11580156118f3573d6000803e3d6000fd5b505050506040513d601f19601f8201168201806040525081019061191791906120bc565b50600260009054906101000a900473ffffffffffffffffffffffffffffffffffffffff1673ffffffffffffffffffffffffffffffffffffffff1663a9059cbb84836040518363ffffffff1660e01b815260040161197592919061229f565b6020604051808303816000875af1158015611994573d6000803e3d6000fd5b505050506040513d601f19601f820116820180604052508101906119b891906120bc565b5050505050505050565b6000806119d186868686610f91565b905080915050949350505050565b600081519050919050565b600082825260208201905092915050565b6000819050602082019050919050565b6000819050919050565b611a1e81611a0b565b82525050565b6000611a308383611a15565b60208301905092915050565b6000602082019050919050565b6000611a54826119df565b611a5e81856119ea565b9350611a69836119fb565b8060005b83811015611a9a578151611a818882611a24565b9750611a8c83611a3c565b925050600181019050611a6d565b5085935050505092915050565b60006020820190508181036000830152611ac18184611a49565b905092915050565b600080fd5b600080fd5b60006103a08284031215611aea57611ae9611ace565b5b81905092915050565b611afc81611a0b565b8114611b0757600080fd5b50565b600081359050611b1981611af3565b92915050565b600073ffffffffffffffffffffffffffffffffffffffff82169050919050565b6000611b4a82611b1f565b9050919050565b611b5a81611b3f565b8114611b6557600080fd5b50565b600081359050611b7781611b51565b92915050565b600080fd5b600081905082602060040282011115611b9e57611b9d611b7d565b5b92915050565b6000806000806104608587031215611bbf57611bbe611ac9565b5b6000611bcd87828801611ad3565b9450506103a0611bdf87828801611b0a565b9350506103c0611bf187828801611b68565b9250506103e0611c0387828801611b82565b91505092959194509250565b60008060408385031215611c2657611c25611ac9565b5b6000611c3485828601611b0a565b9250506020611c4585828601611b0a565b9150509250929050565b600060208284031215611c6557611c64611ac9565b5b6000611c7384828501611b0a565b91505092915050565b611c8581611a0b565b82525050565b6000602082019050611ca06000830184611c7c565b92915050565b6000604082019050611cbb6000830185611c7c565b611cc86020830184611c7c565b9392505050565b6000608082019050611ce46000830187611c7c565b611cf16020830186611c7c565b611cfe6040830185611c7c565b611d0b6060830184611c7c565b95945050505050565b6000819050919050565b6000611d39611d34611d2f84611b1f565b611d14565b611b1f565b9050919050565b6000611d4b82611d1e565b9050919050565b6000611d5d82611d40565b9050919050565b611d6d81611d52565b82525050565b6000602082019050611d886000830184611d64565b92915050565b600081905082602060020282011115611daa57611da9611b7d565b5b92915050565b600081905082604060020282011115611dcc57611dcb611b7d565b5b92915050565b600081905082602060080282011115611dee57611ded611b7d565b5b92915050565b60008060008060006102208688031215611e1157611e10611ac9565b5b6000611e1f88828901611b0a565b9550506020611e3088828901611d8e565b9450506060611e4188828901611db0565b93505060e0611e5288828901611d8e565b925050610120611e6488828901611dd2565b9150509295509295909350565b60008115159050919050565b611e8681611e71565b82525050565b6000602082019050611ea16000830184611e7d565b92915050565b6000806000806102008587031215611ec257611ec1611ac9565b5b6000611ed087828801611d8e565b9450506040611ee187828801611db0565b93505060c0611ef287828801611d8e565b925050610100611f0487828801611dd2565b91505092959194509250565b6000611f1b82611d40565b9050919050565b611f2b81611f10565b82525050565b6000602082019050611f466000830184611f22565b92915050565b600060208284031215611f6257611f61611ac9565b5b6000611f7084828501611b68565b91505092915050565b600080600080600080600060e0888a031215611f9857611f97611ac9565b5b6000611fa68a828b01611b0a565b9750506020611fb78a828b01611b0a565b9650506040611fc88a828b01611b0a565b9550506060611fd98a828b01611b0a565b9450506080611fea8a828b01611b68565b93505060a0611ffb8a828b01611b0a565b92505060c061200c8a828b01611b0a565b91505092959891949750929550565b7f4e487b7100000000000000000000000000000000000000000000000000000000600052603260045260246000fd5b61205381611b3f565b82525050565b600060608201905061206e600083018661204a565b61207b602083018561204a565b6120886040830184611c7c565b949350505050565b61209981611e71565b81146120a457600080fd5b50565b6000815190506120b681612090565b92915050565b6000602082840312156120d2576120d1611ac9565b5b60006120e0848285016120a7565b91505092915050565b600082825260208201905092915050565b7f5472616e73666572206661696c65640000000000000000000000000000000000600082015250565b6000612130600f836120e9565b915061213b826120fa565b602082019050919050565b6000602082019050818103600083015261215f81612123565b9050919050565b7f4e487b7100000000000000000000000000000000000000000000000000000000600052601160045260246000fd5b60006121a082611a0b565b91506121ab83611a0b565b92508282019050808211156121c3576121c2612166565b5b92915050565b60006121d482611a0b565b91506121df83611a0b565b92508282026121ed81611a0b565b9150828204841483151761220457612203612166565b5b5092915050565b7f4e487b7100000000000000000000000000000000000000000000000000000000600052601260045260246000fd5b600061224582611a0b565b915061225083611a0b565b9250826122605761225f61220b565b5b828204905092915050565b600061227682611a0b565b915061228183611a0b565b925082820390508181111561229957612298612166565b5b92915050565b60006040820190506122b4600083018561204a565b6122c16020830184611c7c565b9392505050565b600060a0820190506122dd6000830188611c7c565b6122ea6020830187611c7c565b6122f76040830186611c7c565b6123046060830185611c7c565b6123116080830184611c7c565b9695505050505050565b7f546f74616c2062616c616e6365206d757374206265206772656174657220746860008201527f616e207a65726f20746f2070726576656e74206469766973696f6e206279207a60208201527f65726f0000000000000000000000000000000000000000000000000000000000604082015250565b600061239d6043836120e9565b91506123a88261231b565b606082019050919050565b600060208201905081810360008301526123cc81612390565b9050919050565b7f526573756c74206e6f742079657420617661696c61626c650000000000000000600082015250565b60006124096018836120e9565b9150612414826123d3565b602082019050919050565b60006020820190508181036000830152612438816123fc565b9050919050565b6000602082019050612454600083018461204a565b92915050565b60008151905061246981611af3565b92915050565b60006020828403121561248557612484611ac9565b5b60006124938482850161245a565b9150509291505056fea2646970667358221220b754404432092a850f0f920dec43295540617d786cee894be4800a2a98569ccc64736f6c63430008170033",
  "linkReferences": {},
  "deployedLinkReferences": {}
}