{
  "_format": "hh-sol-artifact-1",
  "contractName": "Feedback",
  "sourceName": "contracts/Feedback.sol",
  "abi": [
    {
      "inputs": [
        {
          "internalType": "address",
          "name": "semaphoreAddress",
          "type": "address"
        },
        {
          "internalType": "string",
          "name": "tokenAName",
          "type": "string"
        },
        {
          "internalType": "string",
          "name": "tokenBName",
          "type": "string"
        },
        {
          "internalType": "string",
          "name": "tokenASymbol",
          "type": "string"
        },
        {
          "internalType": "string",
          "name": "tokenBSymbol",
          "type": "string"
        }
      ],
      "stateMutability": "nonpayable",
      "type": "constructor"
    },
    {
      "anonymous": false,
      "inputs": [
        {
          "indexed": false,
          "internalType": "uint256",
          "name": "groupId",
          "type": "uint256"
        },
        {
          "indexed": false,
          "internalType": "uint256",
          "name": "timestamp",
          "type": "uint256"
        },
        {
          "indexed": false,
          "internalType": "uint256",
          "name": "newCoinBalance",
          "type": "uint256"
        },
        {
          "indexed": false,
          "internalType": "uint256",
          "name": "newTokenABalance",
          "type": "uint256"
        },
        {
          "indexed": false,
          "internalType": "uint256",
          "name": "newTokenBBalance",
          "type": "uint256"
        }
      ],
      "name": "UpdatePoolBalances",
      "type": "event"
    },
    {
      "inputs": [
        {
          "internalType": "uint256",
          "name": "groupIdsIdx",
          "type": "uint256"
        },
        {
          "internalType": "uint256[2]",
          "name": "a",
          "type": "uint256[2]"
        },
        {
          "internalType": "uint256[2][2]",
          "name": "b",
          "type": "uint256[2][2]"
        },
        {
          "internalType": "uint256[2]",
          "name": "c",
          "type": "uint256[2]"
        },
        {
          "internalType": "uint256[8]",
          "name": "input",
          "type": "uint256[8]"
        }
      ],
      "name": "_verifyCheck",
      "outputs": [
        {
          "internalType": "bool",
          "name": "",
          "type": "bool"
        }
      ],
      "stateMutability": "view",
      "type": "function"
    },
    {
      "inputs": [
        {
          "internalType": "uint256",
          "name": "groupIdsIdx",
          "type": "uint256"
        }
      ],
      "name": "checkBalances",
      "outputs": [
        {
          "internalType": "uint256",
          "name": "",
          "type": "uint256"
        },
        {
          "internalType": "uint256",
          "name": "",
          "type": "uint256"
        },
        {
          "internalType": "uint256",
          "name": "",
          "type": "uint256"
        }
      ],
      "stateMutability": "view",
      "type": "function"
    },
    {
      "inputs": [],
      "name": "checkGroupIds",
      "outputs": [
        {
          "internalType": "uint256[]",
          "name": "",
          "type": "uint256[]"
        }
      ],
      "stateMutability": "view",
      "type": "function"
    },
    {
      "inputs": [
        {
          "internalType": "uint256",
          "name": "groupIdsIdx",
          "type": "uint256"
        }
      ],
      "name": "checkPrice",
      "outputs": [
        {
          "internalType": "uint256",
          "name": "",
          "type": "uint256"
        },
        {
          "internalType": "uint256",
          "name": "",
          "type": "uint256"
        }
      ],
      "stateMutability": "view",
      "type": "function"
    },
    {
      "inputs": [
        {
          "internalType": "uint256",
          "name": "_groupIdsIdx",
          "type": "uint256"
        }
      ],
      "name": "claim",
      "outputs": [],
      "stateMutability": "nonpayable",
      "type": "function"
    },
    {
      "inputs": [
        {
          "internalType": "uint256",
          "name": "",
          "type": "uint256"
        }
      ],
      "name": "coinBalances",
      "outputs": [
        {
          "internalType": "uint256",
          "name": "",
          "type": "uint256"
        }
      ],
      "stateMutability": "view",
      "type": "function"
    },
    {
      "inputs": [],
      "name": "createGroup",
      "outputs": [],
      "stateMutability": "nonpayable",
      "type": "function"
    },
    {
      "inputs": [
        {
          "internalType": "uint256",
          "name": "groupIdsIdx",
          "type": "uint256"
        },
        {
          "internalType": "uint256",
          "name": "amount",
          "type": "uint256"
        }
      ],
      "name": "deposit",
      "outputs": [],
      "stateMutability": "nonpayable",
      "type": "function"
    },
    {
      "inputs": [
        {
          "internalType": "uint256",
          "name": "",
          "type": "uint256"
        }
      ],
      "name": "groupIds",
      "outputs": [
        {
          "internalType": "uint256",
          "name": "",
          "type": "uint256"
        }
      ],
      "stateMutability": "view",
      "type": "function"
    },
    {
      "inputs": [
        {
          "internalType": "uint256",
          "name": "identityCommitment",
          "type": "uint256"
        },
        {
          "internalType": "uint256",
          "name": "groupIdsIdx",
          "type": "uint256"
        }
      ],
      "name": "joinGroup",
      "outputs": [],
      "stateMutability": "nonpayable",
      "type": "function"
    },
    {
      "inputs": [],
      "name": "mockCoin",
      "outputs": [
        {
          "internalType": "contract MockCoin",
          "name": "",
          "type": "address"
        }
      ],
      "stateMutability": "view",
      "type": "function"
    },
    {
      "inputs": [
        {
          "internalType": "uint256",
          "name": "",
          "type": "uint256"
        }
      ],
      "name": "results",
      "outputs": [
        {
          "internalType": "uint256",
          "name": "",
          "type": "uint256"
        }
      ],
      "stateMutability": "view",
      "type": "function"
    },
    {
      "inputs": [],
      "name": "semaphore",
      "outputs": [
        {
          "internalType": "contract ISemaphore",
          "name": "",
          "type": "address"
        }
      ],
      "stateMutability": "view",
      "type": "function"
    },
    {
      "inputs": [
        {
          "components": [
            {
              "internalType": "uint256",
              "name": "merkleTreeDepth",
              "type": "uint256"
            },
            {
              "internalType": "uint256",
              "name": "merkleTreeRoot",
              "type": "uint256"
            },
            {
              "internalType": "uint256",
              "name": "nullifier",
              "type": "uint256"
            },
            {
              "internalType": "uint256",
              "name": "feedback",
              "type": "uint256"
            },
            {
              "internalType": "uint256",
              "name": "scope",
              "type": "uint256"
            },
            {
              "internalType": "uint256[8]",
              "name": "points",
              "type": "uint256[8]"
            },
            {
              "internalType": "uint256[2]",
              "name": "a",
              "type": "uint256[2]"
            },
            {
              "internalType": "uint256[2][2]",
              "name": "b",
              "type": "uint256[2][2]"
            },
            {
              "internalType": "uint256[2]",
              "name": "c",
              "type": "uint256[2]"
            },
            {
              "internalType": "uint256[8]",
              "name": "input",
              "type": "uint256[8]"
            }
          ],
          "internalType": "struct Feedback.FeedbackInput",
          "name": "feedbackInput",
          "type": "tuple"
        },
        {
          "internalType": "uint256",
          "name": "groupIdsIdx",
          "type": "uint256"
        },
        {
          "internalType": "address",
          "name": "ethAddress",
          "type": "address"
        },
        {
          "internalType": "uint256[3]",
          "name": "diffAmounts",
          "type": "uint256[3]"
        }
      ],
      "name": "sendFeedback",
      "outputs": [],
      "stateMutability": "nonpayable",
      "type": "function"
    },
    {
      "inputs": [
        {
          "internalType": "address",
          "name": "mockCoinAddress",
          "type": "address"
        }
      ],
      "name": "setMockCoin",
      "outputs": [],
      "stateMutability": "nonpayable",
      "type": "function"
    },
    {
      "inputs": [
        {
          "internalType": "uint256",
          "name": "_groupIdsIdx",
          "type": "uint256"
        },
        {
          "internalType": "uint256",
          "name": "_result",
          "type": "uint256"
        }
      ],
      "name": "setResult",
      "outputs": [],
      "stateMutability": "nonpayable",
      "type": "function"
    },
    {
      "inputs": [
        {
          "internalType": "uint256",
          "name": "",
          "type": "uint256"
        }
      ],
      "name": "tokenABalances",
      "outputs": [
        {
          "internalType": "uint256",
          "name": "",
          "type": "uint256"
        }
      ],
      "stateMutability": "view",
      "type": "function"
    },
    {
      "inputs": [
        {
          "internalType": "uint256",
          "name": "",
          "type": "uint256"
        }
      ],
      "name": "tokenBBalances",
      "outputs": [
        {
          "internalType": "uint256",
          "name": "",
          "type": "uint256"
        }
      ],
      "stateMutability": "view",
      "type": "function"
    },
    {
      "inputs": [
        {
          "internalType": "uint256[2]",
          "name": "a",
          "type": "uint256[2]"
        },
        {
          "internalType": "uint256[2][2]",
          "name": "b",
          "type": "uint256[2][2]"
        },
        {
          "internalType": "uint256[2]",
          "name": "c",
          "type": "uint256[2]"
        },
        {
          "internalType": "uint256[8]",
          "name": "input",
          "type": "uint256[8]"
        }
      ],
      "name": "verify",
      "outputs": [
        {
          "internalType": "bool",
          "name": "",
          "type": "bool"
        }
      ],
      "stateMutability": "view",
      "type": "function"
    },
    {
      "inputs": [
        {
          "internalType": "uint256[2]",
          "name": "_pA",
          "type": "uint256[2]"
        },
        {
          "internalType": "uint256[2][2]",
          "name": "_pB",
          "type": "uint256[2][2]"
        },
        {
          "internalType": "uint256[2]",
          "name": "_pC",
          "type": "uint256[2]"
        },
        {
          "internalType": "uint256[8]",
          "name": "_pubSignals",
          "type": "uint256[8]"
        }
      ],
      "name": "verifyProof",
      "outputs": [
        {
          "internalType": "bool",
          "name": "isValid",
          "type": "bool"
        }
      ],
      "stateMutability": "view",
      "type": "function"
    }
  ],
  "bytecode": "0x60806040523480156200001157600080fd5b5060405162002b6d38038062002b6d8339818101604052810190620000379190620005ba565b846000806101000a81548173ffffffffffffffffffffffffffffffffffffffff021916908373ffffffffffffffffffffffffffffffffffffffff16021790555060008060009054906101000a900473ffffffffffffffffffffffffffffffffffffffff1673ffffffffffffffffffffffffffffffffffffffff16635c3f3b60306040518263ffffffff1660e01b8152600401620000d59190620006cf565b6020604051808303816000875af1158015620000f5573d6000803e3d6000fd5b505050506040513d601f19601f820116820180604052508101906200011b919062000727565b9050600181908060018154018082558091505060019003906000526020600020016000909190919091505560008060009054906101000a900473ffffffffffffffffffffffffffffffffffffffff1673ffffffffffffffffffffffffffffffffffffffff16635c3f3b60306040518263ffffffff1660e01b8152600401620001a49190620006cf565b6020604051808303816000875af1158015620001c4573d6000803e3d6000fd5b505050506040513d601f19601f82011682018060405250810190620001ea919062000727565b9050600181908060018154018082558091505060019003906000526020600020016000909190919091505560008060009054906101000a900473ffffffffffffffffffffffffffffffffffffffff1673ffffffffffffffffffffffffffffffffffffffff16635c3f3b60306040518263ffffffff1660e01b8152600401620002739190620006cf565b6020604051808303816000875af115801562000293573d6000803e3d6000fd5b505050506040513d601f19601f82011682018060405250810190620002b9919062000727565b9050600181908060018154018082558091505060019003906000526020600020016000909190919091505560008060009054906101000a900473ffffffffffffffffffffffffffffffffffffffff1673ffffffffffffffffffffffffffffffffffffffff16635c3f3b60306040518263ffffffff1660e01b8152600401620003429190620006cf565b6020604051808303816000875af115801562000362573d6000803e3d6000fd5b505050506040513d601f19601f8201168201806040525081019062000388919062000727565b9050600181908060018154018082558091505060019003906000526020600020016000909190919091505550505050505050505062000759565b6000604051905090565b600080fd5b600080fd5b600073ffffffffffffffffffffffffffffffffffffffff82169050919050565b60006200040382620003d6565b9050919050565b6200041581620003f6565b81146200042157600080fd5b50565b60008151905062000435816200040a565b92915050565b600080fd5b600080fd5b6000601f19601f8301169050919050565b7f4e487b7100000000000000000000000000000000000000000000000000000000600052604160045260246000fd5b620004908262000445565b810181811067ffffffffffffffff82111715620004b257620004b162000456565b5b80604052505050565b6000620004c7620003c2565b9050620004d5828262000485565b919050565b600067ffffffffffffffff821115620004f857620004f762000456565b5b620005038262000445565b9050602081019050919050565b60005b838110156200053057808201518184015260208101905062000513565b60008484015250505050565b6000620005536200054d84620004da565b620004bb565b90508281526020810184848401111562000572576200057162000440565b5b6200057f84828562000510565b509392505050565b600082601f8301126200059f576200059e6200043b565b5b8151620005b18482602086016200053c565b91505092915050565b600080600080600060a08688031215620005d957620005d8620003cc565b5b6000620005e98882890162000424565b955050602086015167ffffffffffffffff8111156200060d576200060c620003d1565b5b6200061b8882890162000587565b945050604086015167ffffffffffffffff8111156200063f576200063e620003d1565b5b6200064d8882890162000587565b935050606086015167ffffffffffffffff811115620006715762000670620003d1565b5b6200067f8882890162000587565b925050608086015167ffffffffffffffff811115620006a357620006a2620003d1565b5b620006b18882890162000587565b9150509295509295909350565b620006c981620003f6565b82525050565b6000602082019050620006e66000830184620006be565b92915050565b6000819050919050565b6200070181620006ec565b81146200070d57600080fd5b50565b6000815190506200072181620006f6565b92915050565b60006020828403121562000740576200073f620003cc565b5b6000620007508482850162000710565b91505092915050565b61240480620007696000396000f3fe608060405234801561001057600080fd5b506004361061012c5760003560e01c8063575185ed116100ad578063d2c5713211610071578063d2c571321461037e578063d4be25731461039c578063e2bbb158146103b8578063eb610a85146103d4578063f6cf3518146104045761012c565b8063575185ed146102c65780637b5d2534146102d0578063817edf94146102ee578063b7ea1d271461031e578063c9219a7a1461034e5761012c565b80633266f9ca116100f45780633266f9ca146101e8578063379607f51461021857806340876fe9146102345780634093d7a1146102645780634fdda1f5146102945761012c565b806304c68fa9146101315780631a0c750c1461014f5780631b0c27da1461016b5780631de7463a1461019b578063310efb48146101cc575b600080fd5b610139610420565b604051610146919061180c565b60405180910390f35b6101696004803603810190610164919061185f565b610478565b005b6101856004803603810190610180919061189f565b610527565b60405161019291906118db565b60405180910390f35b6101b560048036038101906101b0919061189f565b61053f565b6040516101c39291906118f6565b60405180910390f35b6101e660048036038101906101e1919061185f565b61060f565b005b61020260048036038101906101fd919061189f565b61062b565b60405161020f91906118db565b60405180910390f35b610232600480360381019061022d919061189f565b610643565b005b61024e6004803603810190610249919061189f565b61069c565b60405161025b91906118db565b60405180910390f35b61027e6004803603810190610279919061189f565b6106b4565b60405161028b91906118db565b60405180910390f35b6102ae60048036038101906102a9919061189f565b6106d8565b6040516102bd9392919061191f565b60405180910390f35b6102ce610726565b005b6102d86107f3565b6040516102e591906119d5565b60405180910390f35b61030860048036038101906103039190611a5b565b610817565b6040516103159190611af3565b60405180910390f35b6103386004803603810190610333919061189f565b61097d565b60405161034591906118db565b60405180910390f35b61036860048036038101906103639190611b0e565b610995565b6040516103759190611af3565b60405180910390f35b61038661108a565b6040516103939190611b98565b60405180910390f35b6103b660048036038101906103b19190611bf1565b6110b0565b005b6103d260048036038101906103cd919061185f565b6110f4565b005b6103ee60048036038101906103e99190611b0e565b611231565b6040516103fb9190611af3565b60405180910390f35b61041e60048036038101906104199190611c65565b61124e565b005b6060600180548060200260200160405190810160405280929190818152602001828054801561046e57602002820191906000526020600020905b81548152602001906001019080831161045a575b5050505050905090565b60008054906101000a900473ffffffffffffffffffffffffffffffffffffffff1673ffffffffffffffffffffffffffffffffffffffff16631783efc3600183815481106104c8576104c7611cd0565b5b9060005260206000200154846040518363ffffffff1660e01b81526004016104f19291906118f6565b600060405180830381600087803b15801561050b57600080fd5b505af115801561051f573d6000803e3d6000fd5b505050505050565b60066020528060005260406000206000915090505481565b6000806000600560008581526020019081526020016000205460046000868152602001908152602001600020546105769190611d2e565b9050600081116105bb576040517f08c379a00000000000000000000000000000000000000000000000000000000081526004016105b290611e0b565b60405180910390fd5b60008160046000878152602001908152602001600020546105dc9190611e5a565b905060008260056000888152602001908152602001600020546105ff9190611e5a565b9050818194509450505050915091565b8060066000848152602001908152602001600020819055505050565b60036020528060005260406000206000915090505481565b6000600660008381526020019081526020016000205403610699576040517f08c379a000000000000000000000000000000000000000000000000000000000815260040161069090611ed7565b60405180910390fd5b50565b60046020528060005260406000206000915090505481565b600181815481106106c457600080fd5b906000526020600020016000915090505481565b60008060006003600085815260200190815260200160002054600460008681526020019081526020016000205460056000878152602001908152602001600020549250925092509193909250565b60008060009054906101000a900473ffffffffffffffffffffffffffffffffffffffff1673ffffffffffffffffffffffffffffffffffffffff16635c3f3b60306040518263ffffffff1660e01b81526004016107829190611f06565b6020604051808303816000875af11580156107a1573d6000803e3d6000fd5b505050506040513d601f19601f820116820180604052508101906107c59190611f36565b9050600181908060018154018082558091505060019003906000526020600020016000909190919091505550565b60008054906101000a900473ffffffffffffffffffffffffffffffffffffffff1681565b600060036000878152602001908152602001600020548260006008811061084157610840611cd0565b5b602002013514610886576040517f08c379a000000000000000000000000000000000000000000000000000000000815260040161087d90611faf565b60405180910390fd5b6004600087815260200190815260200160002054826001600881106108ae576108ad611cd0565b5b6020020135146108f3576040517f08c379a00000000000000000000000000000000000000000000000000000000081526004016108ea9061201b565b60405180910390fd5b60056000878152602001908152602001600020548260026008811061091b5761091a611cd0565b5b602002013514610960576040517f08c379a000000000000000000000000000000000000000000000000000000000815260040161095790612087565b60405180910390fd5b600061096e86868686610995565b90508091505095945050505050565b60056020528060005260406000206000915090505481565b6000610ff1565b7f30644e72e131a029b85045b68181585d97816a916871ca8d3c208c16d87cfd4781106109cd576000805260206000f35b50565b600060405183815284602082015285604082015260408160608360076107d05a03fa915081610a03576000805260206000f35b825160408201526020830151606082015260408360808360066107d05a03fa915081610a33576000805260206000f35b505050505050565b600060808601600087017f07680b0e87510917debac113c08121cc767cb9143dd7316a1d10b2602b1c469b81527f11020d15b91e4c7f262ada447cf40da74eeec4cf8cffd3980b4b78b6d655e9626020820152610ade60008801357f198da9afa1f34a3e510427dda3a622ce5e9bc2f659b598e53788018b9df84c2a7f271294c476ae7bda4d9534fb55c02da81e2bf576814251e6e0f5ae170e8ac3e4846109d0565b610b2e60208801357f1c08c89d1c97163ad3ec4078a4f85563d9655ab40bb0e3e28a82883fd4c7094f7f2061dd346e6edd869b6fb2e5f3ac74134d7e9fd2b645d4109e50fa8b40df97c5846109d0565b610b7e60408801357f176f5a4e5d77241015a6dd4067ec14f50f6975ca9b9f06eaf57b5454c6f0d0d47f0a89b0c0a21cc4da06b0d15cbcfb85f560fb194f378dbdf9da4f5e6a445573a8846109d0565b610bce60608801357f268f6edb3ab5a2dd24c04ba3c5b9de98dbe3c0dd08ca75c4bbc4553d3d9e96b37f0aebdde9d084f96310cca8b01b340eeca25371eba3486a8724f2911d645db323846109d0565b610c1e60808801357f10347a0330c7b5c6d45a814cc82008d1b77fa334ad4acf57f00a059faeba6d7f7f1799fafebdd53ba3494883bd50064618a818beb7c5f7f061c5cb8ee7ac248f29846109d0565b610c6e60a08801357f20a9f83a80bf1cb399620155d0976ee3cf056fe7b810a25a5605a985944ae5c37f0deb79f71a5bce5fcf62dec4e1e2040dc75eecb4f7986d4cc5785ee2d0e4f416846109d0565b610cbe60c08801357f0ce942786ff47ebff7ed141f7a0b41555e4162db811be207e437d3e96a9e7e0e7f0f6b735aeddac41aa105d3ad6427626b0b037303304434759b73971a4c73aa91846109d0565b610d0d60e08801357e351654f5db2b1ab1a7a418b9dbed4dcebd810e5a6839eb973ab2b1a5df52be7f0585e30c0285e391a3c75029a77798f9268885f76c29a2d0d4b79cba0073bff5846109d0565b833582527f30644e72e131a029b85045b68181585d97816a916871ca8d3c208c16d87cfd4760208501357f30644e72e131a029b85045b68181585d97816a916871ca8d3c208c16d87cfd4703066020830152843560408301526020850135606083015260408501356080830152606085013560a08301527f2d4d9aa7e302d9df41749d5507949d05dbea33fbb16c643b22f599a2be6df2e260c08301527f14bedd503c37ceb061d8ec60209fe345ce89830a19230301f076caff004d192660e08301527f0967032fcbf776d1afc985f88877f182d38480a653f2decaa9794cbc3bf3060c6101008301527f0e187847ad4c798374d0d6732bf501847dd68bc0e071241e0213bc7fc13db7ab6101208301527f304cfbd1e08a704a99f5e847d93f8c3caafddec46b7a0d379da69a4d112346a76101408301527f1739c1b1a457a8c7313123d24d2f9192f896b7c63eea05a9d57f06547ad0cec8610160830152600088015161018083015260206000018801516101a08301527f198e9393920d483a7260bfb731fb5d25f1aa493335a9e71297e485b7aef312c26101c08301527f1800deef121f1e76426a00665e5c4479674322d4f75edadd46debd5cd992f6ed6101e08301527f090689d0585ff075ec9e99ad690c3395bc4b313370b38ef355acdadcd122975b6102008301527f12c85ea5db8c6deb4aab71808dcb408fe3d1e7690c43d37b4ce6cc0166fa7daa610220830152853561024083015260208601356102608301527f29838323d3e23736b88106889fe7da3f626bf703d3d4520a00b434793429da1f6102808301527f24540cd79d0f15f7a07d69996f89db728f1b88933987cfd994b9a2dec4dd43716102a08301527f1b81d22db8e91226bbfec9839857f66165dbcc73c7d7a78de4894998551432b76102c08301527f193e6eba51646167c260c7dc6235c4099c9b8d097327c9a5fff42b5ab300a8c36102e08301526020826103008460086107d05a03fa82518116935050505095945050505050565b6040516103808101604052611009600084013561099c565b611016602084013561099c565b611023604084013561099c565b611030606084013561099c565b61103d608084013561099c565b61104a60a084013561099c565b61105760c084013561099c565b61106460e084013561099c565b61107261010084013561099c565b61107f818486888a610a3b565b915050949350505050565b600260009054906101000a900473ffffffffffffffffffffffffffffffffffffffff1681565b80600260006101000a81548173ffffffffffffffffffffffffffffffffffffffff021916908373ffffffffffffffffffffffffffffffffffffffff16021790555050565b600260009054906101000a900473ffffffffffffffffffffffffffffffffffffffff1673ffffffffffffffffffffffffffffffffffffffff166323b872dd3330846040518463ffffffff1660e01b8152600401611153939291906120a7565b6020604051808303816000875af1158015611172573d6000803e3d6000fd5b505050506040513d601f19601f82011682018060405250810190611196919061210a565b50806003600084815260200190815260200160002060008282546111ba9190611d2e565b92505081905550600a816111ce9190612137565b6004600084815260200190815260200160002060008282546111f09190611d2e565b92505081905550600a816112049190612137565b6005600084815260200190815260200160002060008282546112269190611d2e565b925050819055505050565b60008061124086868686610995565b905080915050949350505050565b61126b83856101a001866101e0018761026001886102a001610817565b506000846102a00160036008811061128657611285611cd0565b5b6020020135146113555760076000856102a0016003600881106112ac576112ab611cd0565b5b6020020135815260200190815260200160002060009054906101000a900460ff1661130c576040517f08c379a0000000000000000000000000000000000000000000000000000000008152600401611303906121c5565b60405180910390fd5b600060076000866102a00160036008811061132a57611329611cd0565b5b6020020135815260200190815260200160002060006101000a81548160ff0219169083151502179055505b600160076000866102a00160046008811061137357611372611cd0565b5b6020020135815260200190815260200160002060006101000a81548160ff02191690831515021790555060006040518060c0016040528086600001358152602001866020013581526020018660400135815260200186606001358152602001866080013581526020018660a0016008806020026040519081016040528092919082600860200280828437600081840152601f19601f820116905080830192505050505050815250905060008054906101000a900473ffffffffffffffffffffffffffffffffffffffff1673ffffffffffffffffffffffffffffffffffffffff1663d0d898dd6001868154811061146c5761146b611cd0565b5b9060005260206000200154836040518363ffffffff1660e01b81526004016114959291906122e5565b600060405180830381600087803b1580156114af57600080fd5b505af11580156114c3573d6000803e3d6000fd5b5050505060006040518060e00160405280876102a0016005600881106114ec576114eb611cd0565b5b60200201358152602001876102a00160066008811061150e5761150d611cd0565b5b60200201358152602001876102a0016007600881106115305761152f611cd0565b5b60200201358152602001600360008881526020019081526020016000205481526020016004600088815260200190815260200160002054815260200160056000888152602001908152602001600020548152602001600660008881526020019081526020016000205481525090506000600260009054906101000a900473ffffffffffffffffffffffffffffffffffffffff1673ffffffffffffffffffffffffffffffffffffffff166323b872dd8630876000600381106115f4576115f3611cd0565b5b60200201356040518463ffffffff1660e01b8152600401611617939291906120a7565b6020604051808303816000875af1158015611636573d6000803e3d6000fd5b505050506040513d601f19601f8201168201806040525081019061165a919061210a565b90508061169c576040517f08c379a00000000000000000000000000000000000000000000000000000000081526004016116939061235b565b60405180910390fd5b8160000151600360008881526020019081526020016000208190555081602001516004600088815260200190815260200160002081905550816040015160056000888152602001908152602001600020819055507f66d5bbe67f59694833fb31dee9460ea88b4e3614d741ddba079f5ca31901fb26864284600001518560200151866040015160405161173395949392919061237b565b60405180910390a150505050505050565b600081519050919050565b600082825260208201905092915050565b6000819050602082019050919050565b6000819050919050565b61178381611770565b82525050565b6000611795838361177a565b60208301905092915050565b6000602082019050919050565b60006117b982611744565b6117c3818561174f565b93506117ce83611760565b8060005b838110156117ff5781516117e68882611789565b97506117f1836117a1565b9250506001810190506117d2565b5085935050505092915050565b6000602082019050818103600083015261182681846117ae565b905092915050565b600080fd5b61183c81611770565b811461184757600080fd5b50565b60008135905061185981611833565b92915050565b600080604083850312156118765761187561182e565b5b60006118848582860161184a565b92505060206118958582860161184a565b9150509250929050565b6000602082840312156118b5576118b461182e565b5b60006118c38482850161184a565b91505092915050565b6118d581611770565b82525050565b60006020820190506118f060008301846118cc565b92915050565b600060408201905061190b60008301856118cc565b61191860208301846118cc565b9392505050565b600060608201905061193460008301866118cc565b61194160208301856118cc565b61194e60408301846118cc565b949350505050565b600073ffffffffffffffffffffffffffffffffffffffff82169050919050565b6000819050919050565b600061199b61199661199184611956565b611976565b611956565b9050919050565b60006119ad82611980565b9050919050565b60006119bf826119a2565b9050919050565b6119cf816119b4565b82525050565b60006020820190506119ea60008301846119c6565b92915050565b600080fd5b600081905082602060020282011115611a1157611a106119f0565b5b92915050565b600081905082604060020282011115611a3357611a326119f0565b5b92915050565b600081905082602060080282011115611a5557611a546119f0565b5b92915050565b60008060008060006102208688031215611a7857611a7761182e565b5b6000611a868882890161184a565b9550506020611a97888289016119f5565b9450506060611aa888828901611a17565b93505060e0611ab9888289016119f5565b925050610120611acb88828901611a39565b9150509295509295909350565b60008115159050919050565b611aed81611ad8565b82525050565b6000602082019050611b086000830184611ae4565b92915050565b6000806000806102008587031215611b2957611b2861182e565b5b6000611b37878288016119f5565b9450506040611b4887828801611a17565b93505060c0611b59878288016119f5565b925050610100611b6b87828801611a39565b91505092959194509250565b6000611b82826119a2565b9050919050565b611b9281611b77565b82525050565b6000602082019050611bad6000830184611b89565b92915050565b6000611bbe82611956565b9050919050565b611bce81611bb3565b8114611bd957600080fd5b50565b600081359050611beb81611bc5565b92915050565b600060208284031215611c0757611c0661182e565b5b6000611c1584828501611bdc565b91505092915050565b600080fd5b60006103a08284031215611c3a57611c39611c1e565b5b81905092915050565b600081905082602060030282011115611c5f57611c5e6119f0565b5b92915050565b6000806000806104408587031215611c8057611c7f61182e565b5b6000611c8e87828801611c23565b9450506103a0611ca08782880161184a565b9350506103c0611cb287828801611bdc565b9250506103e0611cc487828801611c43565b91505092959194509250565b7f4e487b7100000000000000000000000000000000000000000000000000000000600052603260045260246000fd5b7f4e487b7100000000000000000000000000000000000000000000000000000000600052601160045260246000fd5b6000611d3982611770565b9150611d4483611770565b9250828201905080821115611d5c57611d5b611cff565b5b92915050565b600082825260208201905092915050565b7f546f74616c2062616c616e6365206d757374206265206772656174657220746860008201527f616e207a65726f20746f2070726576656e74206469766973696f6e206279207a60208201527f65726f0000000000000000000000000000000000000000000000000000000000604082015250565b6000611df5604383611d62565b9150611e0082611d73565b606082019050919050565b60006020820190508181036000830152611e2481611de8565b9050919050565b7f4e487b7100000000000000000000000000000000000000000000000000000000600052601260045260246000fd5b6000611e6582611770565b9150611e7083611770565b925082611e8057611e7f611e2b565b5b828204905092915050565b7f526573756c74206e6f742079657420617661696c61626c650000000000000000600082015250565b6000611ec1601883611d62565b9150611ecc82611e8b565b602082019050919050565b60006020820190508181036000830152611ef081611eb4565b9050919050565b611f0081611bb3565b82525050565b6000602082019050611f1b6000830184611ef7565b92915050565b600081519050611f3081611833565b92915050565b600060208284031215611f4c57611f4b61182e565b5b6000611f5a84828501611f21565b91505092915050565b7f496e76616c6964206d6f636b436f696e2062616c616e63650000000000000000600082015250565b6000611f99601883611d62565b9150611fa482611f63565b602082019050919050565b60006020820190508181036000830152611fc881611f8c565b9050919050565b7f496e76616c696420746f6b656e412062616c616e636500000000000000000000600082015250565b6000612005601683611d62565b915061201082611fcf565b602082019050919050565b6000602082019050818103600083015261203481611ff8565b9050919050565b7f496e76616c696420746f6b656e422062616c616e636500000000000000000000600082015250565b6000612071601683611d62565b915061207c8261203b565b602082019050919050565b600060208201905081810360008301526120a081612064565b9050919050565b60006060820190506120bc6000830186611ef7565b6120c96020830185611ef7565b6120d660408301846118cc565b949350505050565b6120e781611ad8565b81146120f257600080fd5b50565b600081519050612104816120de565b92915050565b6000602082840312156121205761211f61182e565b5b600061212e848285016120f5565b91505092915050565b600061214282611770565b915061214d83611770565b925082820261215b81611770565b9150828204841483151761217257612171611cff565b5b5092915050565b7f5574786f20616c72656164792075736564000000000000000000000000000000600082015250565b60006121af601183611d62565b91506121ba82612179565b602082019050919050565b600060208201905081810360008301526121de816121a2565b9050919050565b600060089050919050565b600081905092915050565b6000819050919050565b6000602082019050919050565b61221b816121e5565b61222581846121f0565b9250612230826121fb565b8060005b838110156122615781516122488782611789565b965061225383612205565b925050600181019050612234565b505050505050565b6101a082016000820151612280600085018261177a565b506020820151612293602085018261177a565b5060408201516122a6604085018261177a565b5060608201516122b9606085018261177a565b5060808201516122cc608085018261177a565b5060a08201516122df60a0850182612212565b50505050565b60006101c0820190506122fb60008301856118cc565b6123086020830184612269565b9392505050565b7f5472616e73666572206661696c65640000000000000000000000000000000000600082015250565b6000612345600f83611d62565b91506123508261230f565b602082019050919050565b6000602082019050818103600083015261237481612338565b9050919050565b600060a08201905061239060008301886118cc565b61239d60208301876118cc565b6123aa60408301866118cc565b6123b760608301856118cc565b6123c460808301846118cc565b969550505050505056fea26469706673582212204ec66500ef2451eece0ad6a7cb2d7eb8734acf99ee7458538ff42d214636428564736f6c63430008170033",
  "linkReferences": {},
  "deployedLinkReferences": {}
}