{
  "_format": "hh-sol-artifact-1",
  "contractName": "Feedback",
  "sourceName": "contracts/Feedback.sol",
  "abi": [
    {
      "inputs": [
        {
          "internalType": "address",
          "name": "semaphoreAddress",
          "type": "address"
        },
        {
          "internalType": "string",
          "name": "tokenAName",
          "type": "string"
        },
        {
          "internalType": "string",
          "name": "tokenBName",
          "type": "string"
        },
        {
          "internalType": "string",
          "name": "tokenASymbol",
          "type": "string"
        },
        {
          "internalType": "string",
          "name": "tokenBSymbol",
          "type": "string"
        }
      ],
      "stateMutability": "nonpayable",
      "type": "constructor"
    },
    {
      "anonymous": false,
      "inputs": [
        {
          "indexed": false,
          "internalType": "uint256",
          "name": "groupId",
          "type": "uint256"
        },
        {
          "indexed": false,
          "internalType": "uint256",
          "name": "timestamp",
          "type": "uint256"
        },
        {
          "indexed": false,
          "internalType": "uint256",
          "name": "newCoinBalance",
          "type": "uint256"
        },
        {
          "indexed": false,
          "internalType": "uint256",
          "name": "newTokenABalance",
          "type": "uint256"
        },
        {
          "indexed": false,
          "internalType": "uint256",
          "name": "newTokenBBalance",
          "type": "uint256"
        }
      ],
      "name": "UpdatePoolBalances",
      "type": "event"
    },
    {
      "inputs": [
        {
          "internalType": "uint256",
          "name": "groupIdsIdx",
          "type": "uint256"
        },
        {
          "internalType": "uint256[2]",
          "name": "a",
          "type": "uint256[2]"
        },
        {
          "internalType": "uint256[2][2]",
          "name": "b",
          "type": "uint256[2][2]"
        },
        {
          "internalType": "uint256[2]",
          "name": "c",
          "type": "uint256[2]"
        },
        {
          "internalType": "uint256[8]",
          "name": "input",
          "type": "uint256[8]"
        }
      ],
      "name": "_verifyCheck",
      "outputs": [
        {
          "internalType": "bool",
          "name": "",
          "type": "bool"
        }
      ],
      "stateMutability": "view",
      "type": "function"
    },
    {
      "inputs": [
        {
          "internalType": "uint256",
          "name": "groupIdsIdx",
          "type": "uint256"
        }
      ],
      "name": "checkBalances",
      "outputs": [
        {
          "internalType": "uint256",
          "name": "",
          "type": "uint256"
        },
        {
          "internalType": "uint256",
          "name": "",
          "type": "uint256"
        },
        {
          "internalType": "uint256",
          "name": "",
          "type": "uint256"
        }
      ],
      "stateMutability": "view",
      "type": "function"
    },
    {
      "inputs": [],
      "name": "checkGroupIds",
      "outputs": [
        {
          "internalType": "uint256[]",
          "name": "",
          "type": "uint256[]"
        }
      ],
      "stateMutability": "view",
      "type": "function"
    },
    {
      "inputs": [
        {
          "internalType": "uint256",
          "name": "groupIdsIdx",
          "type": "uint256"
        }
      ],
      "name": "checkPrice",
      "outputs": [
        {
          "internalType": "uint256",
          "name": "",
          "type": "uint256"
        },
        {
          "internalType": "uint256",
          "name": "",
          "type": "uint256"
        }
      ],
      "stateMutability": "view",
      "type": "function"
    },
    {
      "inputs": [
        {
          "internalType": "uint256",
          "name": "_groupIdsIdx",
          "type": "uint256"
        }
      ],
      "name": "claim",
      "outputs": [],
      "stateMutability": "nonpayable",
      "type": "function"
    },
    {
      "inputs": [
        {
          "internalType": "uint256",
          "name": "",
          "type": "uint256"
        }
      ],
      "name": "coinBalances",
      "outputs": [
        {
          "internalType": "uint256",
          "name": "",
          "type": "uint256"
        }
      ],
      "stateMutability": "view",
      "type": "function"
    },
    {
      "inputs": [],
      "name": "createGroup",
      "outputs": [],
      "stateMutability": "nonpayable",
      "type": "function"
    },
    {
      "inputs": [
        {
          "internalType": "uint256",
          "name": "groupIdsIdx",
          "type": "uint256"
        },
        {
          "internalType": "uint256",
          "name": "amount",
          "type": "uint256"
        }
      ],
      "name": "deposit",
      "outputs": [],
      "stateMutability": "nonpayable",
      "type": "function"
    },
    {
      "inputs": [
        {
          "internalType": "uint256",
          "name": "",
          "type": "uint256"
        }
      ],
      "name": "groupIds",
      "outputs": [
        {
          "internalType": "uint256",
          "name": "",
          "type": "uint256"
        }
      ],
      "stateMutability": "view",
      "type": "function"
    },
    {
      "inputs": [
        {
          "internalType": "uint256",
          "name": "identityCommitment",
          "type": "uint256"
        },
        {
          "internalType": "uint256",
          "name": "groupIdsIdx",
          "type": "uint256"
        }
      ],
      "name": "joinGroup",
      "outputs": [],
      "stateMutability": "nonpayable",
      "type": "function"
    },
    {
      "inputs": [],
      "name": "mockCoin",
      "outputs": [
        {
          "internalType": "contract MockCoin",
          "name": "",
          "type": "address"
        }
      ],
      "stateMutability": "view",
      "type": "function"
    },
    {
      "inputs": [
        {
          "internalType": "uint256",
          "name": "",
          "type": "uint256"
        }
      ],
      "name": "results",
      "outputs": [
        {
          "internalType": "uint256",
          "name": "",
          "type": "uint256"
        }
      ],
      "stateMutability": "view",
      "type": "function"
    },
    {
      "inputs": [],
      "name": "semaphore",
      "outputs": [
        {
          "internalType": "contract ISemaphore",
          "name": "",
          "type": "address"
        }
      ],
      "stateMutability": "view",
      "type": "function"
    },
    {
      "inputs": [
        {
          "components": [
            {
              "internalType": "uint256",
              "name": "merkleTreeDepth",
              "type": "uint256"
            },
            {
              "internalType": "uint256",
              "name": "merkleTreeRoot",
              "type": "uint256"
            },
            {
              "internalType": "uint256",
              "name": "nullifier",
              "type": "uint256"
            },
            {
              "internalType": "uint256",
              "name": "feedback",
              "type": "uint256"
            },
            {
              "internalType": "uint256",
              "name": "scope",
              "type": "uint256"
            },
            {
              "internalType": "uint256[8]",
              "name": "points",
              "type": "uint256[8]"
            },
            {
              "internalType": "uint256[2]",
              "name": "a",
              "type": "uint256[2]"
            },
            {
              "internalType": "uint256[2][2]",
              "name": "b",
              "type": "uint256[2][2]"
            },
            {
              "internalType": "uint256[2]",
              "name": "c",
              "type": "uint256[2]"
            },
            {
              "internalType": "uint256[8]",
              "name": "input",
              "type": "uint256[8]"
            }
          ],
          "internalType": "struct Feedback.FeedbackInput",
          "name": "feedbackInput",
          "type": "tuple"
        },
        {
          "internalType": "uint256",
          "name": "groupIdsIdx",
          "type": "uint256"
        },
        {
          "internalType": "address",
          "name": "ethAddress",
          "type": "address"
        },
        {
          "internalType": "uint256[3]",
          "name": "diffAmounts",
          "type": "uint256[3]"
        }
      ],
      "name": "sendFeedback",
      "outputs": [],
      "stateMutability": "nonpayable",
      "type": "function"
    },
    {
      "inputs": [
        {
          "internalType": "address",
          "name": "mockCoinAddress",
          "type": "address"
        }
      ],
      "name": "setMockCoin",
      "outputs": [],
      "stateMutability": "nonpayable",
      "type": "function"
    },
    {
      "inputs": [
        {
          "internalType": "uint256",
          "name": "_groupIdsIdx",
          "type": "uint256"
        },
        {
          "internalType": "uint256",
          "name": "_result",
          "type": "uint256"
        }
      ],
      "name": "setResult",
      "outputs": [],
      "stateMutability": "nonpayable",
      "type": "function"
    },
    {
      "inputs": [
        {
          "internalType": "uint256",
          "name": "",
          "type": "uint256"
        }
      ],
      "name": "tokenABalances",
      "outputs": [
        {
          "internalType": "uint256",
          "name": "",
          "type": "uint256"
        }
      ],
      "stateMutability": "view",
      "type": "function"
    },
    {
      "inputs": [
        {
          "internalType": "uint256",
          "name": "",
          "type": "uint256"
        }
      ],
      "name": "tokenBBalances",
      "outputs": [
        {
          "internalType": "uint256",
          "name": "",
          "type": "uint256"
        }
      ],
      "stateMutability": "view",
      "type": "function"
    },
    {
      "inputs": [
        {
          "internalType": "uint256[2]",
          "name": "a",
          "type": "uint256[2]"
        },
        {
          "internalType": "uint256[2][2]",
          "name": "b",
          "type": "uint256[2][2]"
        },
        {
          "internalType": "uint256[2]",
          "name": "c",
          "type": "uint256[2]"
        },
        {
          "internalType": "uint256[8]",
          "name": "input",
          "type": "uint256[8]"
        }
      ],
      "name": "verify",
      "outputs": [
        {
          "internalType": "bool",
          "name": "",
          "type": "bool"
        }
      ],
      "stateMutability": "view",
      "type": "function"
    },
    {
      "inputs": [
        {
          "internalType": "uint256[2]",
          "name": "_pA",
          "type": "uint256[2]"
        },
        {
          "internalType": "uint256[2][2]",
          "name": "_pB",
          "type": "uint256[2][2]"
        },
        {
          "internalType": "uint256[2]",
          "name": "_pC",
          "type": "uint256[2]"
        },
        {
          "internalType": "uint256[8]",
          "name": "_pubSignals",
          "type": "uint256[8]"
        }
      ],
      "name": "verifyProof",
      "outputs": [
        {
          "internalType": "bool",
          "name": "",
          "type": "bool"
        }
      ],
      "stateMutability": "view",
      "type": "function"
    }
  ],
  "bytecode": "0x60806040523480156200001157600080fd5b50604051620031ee380380620031ee8339818101604052810190620000379190620005ba565b846000806101000a81548173ffffffffffffffffffffffffffffffffffffffff021916908373ffffffffffffffffffffffffffffffffffffffff16021790555060008060009054906101000a900473ffffffffffffffffffffffffffffffffffffffff1673ffffffffffffffffffffffffffffffffffffffff16635c3f3b60306040518263ffffffff1660e01b8152600401620000d59190620006cf565b6020604051808303816000875af1158015620000f5573d6000803e3d6000fd5b505050506040513d601f19601f820116820180604052508101906200011b919062000727565b9050600181908060018154018082558091505060019003906000526020600020016000909190919091505560008060009054906101000a900473ffffffffffffffffffffffffffffffffffffffff1673ffffffffffffffffffffffffffffffffffffffff16635c3f3b60306040518263ffffffff1660e01b8152600401620001a49190620006cf565b6020604051808303816000875af1158015620001c4573d6000803e3d6000fd5b505050506040513d601f19601f82011682018060405250810190620001ea919062000727565b9050600181908060018154018082558091505060019003906000526020600020016000909190919091505560008060009054906101000a900473ffffffffffffffffffffffffffffffffffffffff1673ffffffffffffffffffffffffffffffffffffffff16635c3f3b60306040518263ffffffff1660e01b8152600401620002739190620006cf565b6020604051808303816000875af115801562000293573d6000803e3d6000fd5b505050506040513d601f19601f82011682018060405250810190620002b9919062000727565b9050600181908060018154018082558091505060019003906000526020600020016000909190919091505560008060009054906101000a900473ffffffffffffffffffffffffffffffffffffffff1673ffffffffffffffffffffffffffffffffffffffff16635c3f3b60306040518263ffffffff1660e01b8152600401620003429190620006cf565b6020604051808303816000875af115801562000362573d6000803e3d6000fd5b505050506040513d601f19601f8201168201806040525081019062000388919062000727565b9050600181908060018154018082558091505060019003906000526020600020016000909190919091505550505050505050505062000759565b6000604051905090565b600080fd5b600080fd5b600073ffffffffffffffffffffffffffffffffffffffff82169050919050565b60006200040382620003d6565b9050919050565b6200041581620003f6565b81146200042157600080fd5b50565b60008151905062000435816200040a565b92915050565b600080fd5b600080fd5b6000601f19601f8301169050919050565b7f4e487b7100000000000000000000000000000000000000000000000000000000600052604160045260246000fd5b620004908262000445565b810181811067ffffffffffffffff82111715620004b257620004b162000456565b5b80604052505050565b6000620004c7620003c2565b9050620004d5828262000485565b919050565b600067ffffffffffffffff821115620004f857620004f762000456565b5b620005038262000445565b9050602081019050919050565b60005b838110156200053057808201518184015260208101905062000513565b60008484015250505050565b6000620005536200054d84620004da565b620004bb565b90508281526020810184848401111562000572576200057162000440565b5b6200057f84828562000510565b509392505050565b600082601f8301126200059f576200059e6200043b565b5b8151620005b18482602086016200053c565b91505092915050565b600080600080600060a08688031215620005d957620005d8620003cc565b5b6000620005e98882890162000424565b955050602086015167ffffffffffffffff8111156200060d576200060c620003d1565b5b6200061b8882890162000587565b945050604086015167ffffffffffffffff8111156200063f576200063e620003d1565b5b6200064d8882890162000587565b935050606086015167ffffffffffffffff811115620006715762000670620003d1565b5b6200067f8882890162000587565b925050608086015167ffffffffffffffff811115620006a357620006a2620003d1565b5b620006b18882890162000587565b9150509295509295909350565b620006c981620003f6565b82525050565b6000602082019050620006e66000830184620006be565b92915050565b6000819050919050565b6200070181620006ec565b81146200070d57600080fd5b50565b6000815190506200072181620006f6565b92915050565b60006020828403121562000740576200073f620003cc565b5b6000620007508482850162000710565b91505092915050565b612a8580620007696000396000f3fe608060405234801561001057600080fd5b506004361061012c5760003560e01c8063575185ed116100ad578063d2c5713211610071578063d2c571321461037e578063d4be25731461039c578063e2bbb158146103b8578063eb610a85146103d4578063f6cf3518146104045761012c565b8063575185ed146102c65780637b5d2534146102d0578063817edf94146102ee578063b7ea1d271461031e578063c9219a7a1461034e5761012c565b80633266f9ca116100f45780633266f9ca146101e8578063379607f51461021857806340876fe9146102345780634093d7a1146102645780634fdda1f5146102945761012c565b806304c68fa9146101315780631a0c750c1461014f5780631b0c27da1461016b5780631de7463a1461019b578063310efb48146101cc575b600080fd5b610139610420565b6040516101469190611a95565b60405180910390f35b61016960048036038101906101649190611ae8565b610478565b005b61018560048036038101906101809190611b28565b610527565b6040516101929190611b64565b60405180910390f35b6101b560048036038101906101b09190611b28565b61053f565b6040516101c3929190611b7f565b60405180910390f35b6101e660048036038101906101e19190611ae8565b61060f565b005b61020260048036038101906101fd9190611b28565b61062b565b60405161020f9190611b64565b60405180910390f35b610232600480360381019061022d9190611b28565b610643565b005b61024e60048036038101906102499190611b28565b61069c565b60405161025b9190611b64565b60405180910390f35b61027e60048036038101906102799190611b28565b6106b4565b60405161028b9190611b64565b60405180910390f35b6102ae60048036038101906102a99190611b28565b6106d8565b6040516102bd93929190611ba8565b60405180910390f35b6102ce610726565b005b6102d86107f3565b6040516102e59190611c5e565b60405180910390f35b61030860048036038101906103039190611ce4565b610817565b6040516103159190611d7c565b60405180910390f35b61033860048036038101906103339190611b28565b61097d565b6040516103459190611b64565b60405180910390f35b61036860048036038101906103639190611d97565b610995565b6040516103759190611d7c565b60405180910390f35b610386611089565b6040516103939190611e21565b60405180910390f35b6103b660048036038101906103b19190611e7a565b6110af565b005b6103d260048036038101906103cd9190611ae8565b6110f3565b005b6103ee60048036038101906103e99190611d97565b611230565b6040516103fb9190611d7c565b60405180910390f35b61041e60048036038101906104199190611eee565b61124d565b005b6060600180548060200260200160405190810160405280929190818152602001828054801561046e57602002820191906000526020600020905b81548152602001906001019080831161045a575b5050505050905090565b60008054906101000a900473ffffffffffffffffffffffffffffffffffffffff1673ffffffffffffffffffffffffffffffffffffffff16631783efc3600183815481106104c8576104c7611f59565b5b9060005260206000200154846040518363ffffffff1660e01b81526004016104f1929190611b7f565b600060405180830381600087803b15801561050b57600080fd5b505af115801561051f573d6000803e3d6000fd5b505050505050565b60066020528060005260406000206000915090505481565b6000806000600560008581526020019081526020016000205460046000868152602001908152602001600020546105769190611fb7565b9050600081116105bb576040517f08c379a00000000000000000000000000000000000000000000000000000000081526004016105b290612094565b60405180910390fd5b60008160046000878152602001908152602001600020546105dc91906120e3565b905060008260056000888152602001908152602001600020546105ff91906120e3565b9050818194509450505050915091565b8060066000848152602001908152602001600020819055505050565b60036020528060005260406000206000915090505481565b6000600660008381526020019081526020016000205403610699576040517f08c379a000000000000000000000000000000000000000000000000000000000815260040161069090612160565b60405180910390fd5b50565b60046020528060005260406000206000915090505481565b600181815481106106c457600080fd5b906000526020600020016000915090505481565b60008060006003600085815260200190815260200160002054600460008681526020019081526020016000205460056000878152602001908152602001600020549250925092509193909250565b60008060009054906101000a900473ffffffffffffffffffffffffffffffffffffffff1673ffffffffffffffffffffffffffffffffffffffff16635c3f3b60306040518263ffffffff1660e01b8152600401610782919061218f565b6020604051808303816000875af11580156107a1573d6000803e3d6000fd5b505050506040513d601f19601f820116820180604052508101906107c591906121bf565b9050600181908060018154018082558091505060019003906000526020600020016000909190919091505550565b60008054906101000a900473ffffffffffffffffffffffffffffffffffffffff1681565b600060036000878152602001908152602001600020548260006008811061084157610840611f59565b5b602002013514610886576040517f08c379a000000000000000000000000000000000000000000000000000000000815260040161087d90612238565b60405180910390fd5b6004600087815260200190815260200160002054826001600881106108ae576108ad611f59565b5b6020020135146108f3576040517f08c379a00000000000000000000000000000000000000000000000000000000081526004016108ea906122a4565b60405180910390fd5b60056000878152602001908152602001600020548260026008811061091b5761091a611f59565b5b602002013514610960576040517f08c379a000000000000000000000000000000000000000000000000000000000815260040161095790612310565b60405180910390fd5b600061096e86868686610995565b90508091505095945050505050565b60056020528060005260406000206000915090505481565b6000610ff1565b7f30644e72e131a029b85045b68181585d97816a916871ca8d3c208c16d87cfd4781106109cd576000805260206000f35b50565b600060405183815284602082015285604082015260408160608360076107d05a03fa915081610a03576000805260206000f35b825160408201526020830151606082015260408360808360066107d05a03fa915081610a33576000805260206000f35b505050505050565b600060808601600087017f07680b0e87510917debac113c08121cc767cb9143dd7316a1d10b2602b1c469b81527f11020d15b91e4c7f262ada447cf40da74eeec4cf8cffd3980b4b78b6d655e9626020820152610ade60008801357f198da9afa1f34a3e510427dda3a622ce5e9bc2f659b598e53788018b9df84c2a7f271294c476ae7bda4d9534fb55c02da81e2bf576814251e6e0f5ae170e8ac3e4846109d0565b610b2e60208801357f1c08c89d1c97163ad3ec4078a4f85563d9655ab40bb0e3e28a82883fd4c7094f7f2061dd346e6edd869b6fb2e5f3ac74134d7e9fd2b645d4109e50fa8b40df97c5846109d0565b610b7e60408801357f176f5a4e5d77241015a6dd4067ec14f50f6975ca9b9f06eaf57b5454c6f0d0d47f0a89b0c0a21cc4da06b0d15cbcfb85f560fb194f378dbdf9da4f5e6a445573a8846109d0565b610bce60608801357f268f6edb3ab5a2dd24c04ba3c5b9de98dbe3c0dd08ca75c4bbc4553d3d9e96b37f0aebdde9d084f96310cca8b01b340eeca25371eba3486a8724f2911d645db323846109d0565b610c1e60808801357f10347a0330c7b5c6d45a814cc82008d1b77fa334ad4acf57f00a059faeba6d7f7f1799fafebdd53ba3494883bd50064618a818beb7c5f7f061c5cb8ee7ac248f29846109d0565b610c6e60a08801357f20a9f83a80bf1cb399620155d0976ee3cf056fe7b810a25a5605a985944ae5c37f0deb79f71a5bce5fcf62dec4e1e2040dc75eecb4f7986d4cc5785ee2d0e4f416846109d0565b610cbe60c08801357f0ce942786ff47ebff7ed141f7a0b41555e4162db811be207e437d3e96a9e7e0e7f0f6b735aeddac41aa105d3ad6427626b0b037303304434759b73971a4c73aa91846109d0565b610d0d60e08801357e351654f5db2b1ab1a7a418b9dbed4dcebd810e5a6839eb973ab2b1a5df52be7f0585e30c0285e391a3c75029a77798f9268885f76c29a2d0d4b79cba0073bff5846109d0565b833582527f30644e72e131a029b85045b68181585d97816a916871ca8d3c208c16d87cfd4760208501357f30644e72e131a029b85045b68181585d97816a916871ca8d3c208c16d87cfd4703066020830152843560408301526020850135606083015260408501356080830152606085013560a08301527f2d4d9aa7e302d9df41749d5507949d05dbea33fbb16c643b22f599a2be6df2e260c08301527f14bedd503c37ceb061d8ec60209fe345ce89830a19230301f076caff004d192660e08301527f0967032fcbf776d1afc985f88877f182d38480a653f2decaa9794cbc3bf3060c6101008301527f0e187847ad4c798374d0d6732bf501847dd68bc0e071241e0213bc7fc13db7ab6101208301527f304cfbd1e08a704a99f5e847d93f8c3caafddec46b7a0d379da69a4d112346a76101408301527f1739c1b1a457a8c7313123d24d2f9192f896b7c63eea05a9d57f06547ad0cec8610160830152600088015161018083015260206000018801516101a08301527f198e9393920d483a7260bfb731fb5d25f1aa493335a9e71297e485b7aef312c26101c08301527f1800deef121f1e76426a00665e5c4479674322d4f75edadd46debd5cd992f6ed6101e08301527f090689d0585ff075ec9e99ad690c3395bc4b313370b38ef355acdadcd122975b6102008301527f12c85ea5db8c6deb4aab71808dcb408fe3d1e7690c43d37b4ce6cc0166fa7daa610220830152853561024083015260208601356102608301527f21abc250c04478d286fbd0f411a26db2878c31f9dda7c2e520e7dae4ca10e6256102808301527f2cdad6ab820fdd7567fc9b977a0b69530f3259ca31ed41ccf37d460e0600f8b56102a08301527f0712dceba50872ee6359873babeb51f84054ad30f0e3665a5d55a6ae72ec0f0f6102c08301527f2b061109a7d5d3f95fdf8cb0e8598f883db94ca1feaadc0b341ca0ed76f6f75b6102e08301526020826103008460086107d05a03fa82518116935050505095945050505050565b6040516103808101604052611009600084013561099c565b611016602084013561099c565b611023604084013561099c565b611030606084013561099c565b61103d608084013561099c565b61104a60a084013561099c565b61105760c084013561099c565b61106460e084013561099c565b61107261010084013561099c565b61107f818486888a610a3b565b8060005260206000f35b600260009054906101000a900473ffffffffffffffffffffffffffffffffffffffff1681565b80600260006101000a81548173ffffffffffffffffffffffffffffffffffffffff021916908373ffffffffffffffffffffffffffffffffffffffff16021790555050565b600260009054906101000a900473ffffffffffffffffffffffffffffffffffffffff1673ffffffffffffffffffffffffffffffffffffffff166323b872dd3330846040518463ffffffff1660e01b815260040161115293929190612330565b6020604051808303816000875af1158015611171573d6000803e3d6000fd5b505050506040513d601f19601f820116820180604052508101906111959190612393565b50806003600084815260200190815260200160002060008282546111b99190611fb7565b92505081905550600a816111cd91906123c0565b6004600084815260200190815260200160002060008282546111ef9190611fb7565b92505081905550600a8161120391906123c0565b6005600084815260200190815260200160002060008282546112259190611fb7565b925050819055505050565b60008061123f86868686610995565b905080915050949350505050565b61126a83856101a001866101e0018761026001886102a001610817565b506000846102a00160036008811061128557611284611f59565b5b6020020135146113545760076000856102a0016003600881106112ab576112aa611f59565b5b6020020135815260200190815260200160002060009054906101000a900460ff1661130b576040517f08c379a00000000000000000000000000000000000000000000000000000000081526004016113029061244e565b60405180910390fd5b600060076000866102a00160036008811061132957611328611f59565b5b6020020135815260200190815260200160002060006101000a81548160ff0219169083151502179055505b600160076000866102a00160046008811061137257611371611f59565b5b6020020135815260200190815260200160002060006101000a81548160ff02191690831515021790555060006040518060c0016040528086600001358152602001866020013581526020018660400135815260200186606001358152602001866080013581526020018660a0016008806020026040519081016040528092919082600860200280828437600081840152601f19601f820116905080830192505050505050815250905060008054906101000a900473ffffffffffffffffffffffffffffffffffffffff1673ffffffffffffffffffffffffffffffffffffffff1663d0d898dd6001868154811061146b5761146a611f59565b5b9060005260206000200154836040518363ffffffff1660e01b815260040161149492919061256e565b600060405180830381600087803b1580156114ae57600080fd5b505af11580156114c2573d6000803e3d6000fd5b5050505060006040518060e00160405280876102a0016005600881106114eb576114ea611f59565b5b60200201358152602001876102a00160066008811061150d5761150c611f59565b5b60200201358152602001876102a00160076008811061152f5761152e611f59565b5b602002013581526020016003600088815260200190815260200160002054815260200160046000888152602001908152602001600020548152602001600560008881526020019081526020016000205481526020016006600088815260200190815260200160002054815250905060008160c001511461179e578060600151816000015110156115f4576040517f08c379a00000000000000000000000000000000000000000000000000000000081526004016115eb906125e4565b60405180910390fd5b80608001518160200151101561163f576040517f08c379a000000000000000000000000000000000000000000000000000000000815260040161163690612676565b60405180910390fd5b8060a001518160400151101561168a576040517f08c379a000000000000000000000000000000000000000000000000000000000815260040161168190612708565b60405180910390fd5b8060600151816000015110611799576000600260009054906101000a900473ffffffffffffffffffffffffffffffffffffffff1673ffffffffffffffffffffffffffffffffffffffff166323b872dd8630876000600381106116ef576116ee611f59565b5b60200201356040518463ffffffff1660e01b815260040161171293929190612330565b6020604051808303816000875af1158015611731573d6000803e3d6000fd5b505050506040513d601f19601f820116820180604052508101906117559190612393565b905080611797576040517f08c379a000000000000000000000000000000000000000000000000000000000815260040161178e90612774565b60405180910390fd5b505b611926565b8060600151816000015111156117e9576040517f08c379a00000000000000000000000000000000000000000000000000000000081526004016117e0906127e0565b60405180910390fd5b60018160c001510361188f57806080015181602001511115611840576040517f08c379a000000000000000000000000000000000000000000000000000000000815260040161183790612872565b60405180910390fd5b8060a0015181604001511461188a576040517f08c379a0000000000000000000000000000000000000000000000000000000008152600401611881906128de565b60405180910390fd5b611925565b80608001518160200151146118d9576040517f08c379a00000000000000000000000000000000000000000000000000000000081526004016118d09061294a565b60405180910390fd5b8060a0015181604001511115611924576040517f08c379a000000000000000000000000000000000000000000000000000000000815260040161191b906129dc565b60405180910390fd5b5b5b8060000151600360008781526020019081526020016000208190555080602001516004600087815260200190815260200160002081905550806040015160056000878152602001908152602001600020819055507f66d5bbe67f59694833fb31dee9460ea88b4e3614d741ddba079f5ca31901fb2685428360000151846020015185604001516040516119bd9594939291906129fc565b60405180910390a1505050505050565b600081519050919050565b600082825260208201905092915050565b6000819050602082019050919050565b6000819050919050565b611a0c816119f9565b82525050565b6000611a1e8383611a03565b60208301905092915050565b6000602082019050919050565b6000611a42826119cd565b611a4c81856119d8565b9350611a57836119e9565b8060005b83811015611a88578151611a6f8882611a12565b9750611a7a83611a2a565b925050600181019050611a5b565b5085935050505092915050565b60006020820190508181036000830152611aaf8184611a37565b905092915050565b600080fd5b611ac5816119f9565b8114611ad057600080fd5b50565b600081359050611ae281611abc565b92915050565b60008060408385031215611aff57611afe611ab7565b5b6000611b0d85828601611ad3565b9250506020611b1e85828601611ad3565b9150509250929050565b600060208284031215611b3e57611b3d611ab7565b5b6000611b4c84828501611ad3565b91505092915050565b611b5e816119f9565b82525050565b6000602082019050611b796000830184611b55565b92915050565b6000604082019050611b946000830185611b55565b611ba16020830184611b55565b9392505050565b6000606082019050611bbd6000830186611b55565b611bca6020830185611b55565b611bd76040830184611b55565b949350505050565b600073ffffffffffffffffffffffffffffffffffffffff82169050919050565b6000819050919050565b6000611c24611c1f611c1a84611bdf565b611bff565b611bdf565b9050919050565b6000611c3682611c09565b9050919050565b6000611c4882611c2b565b9050919050565b611c5881611c3d565b82525050565b6000602082019050611c736000830184611c4f565b92915050565b600080fd5b600081905082602060020282011115611c9a57611c99611c79565b5b92915050565b600081905082604060020282011115611cbc57611cbb611c79565b5b92915050565b600081905082602060080282011115611cde57611cdd611c79565b5b92915050565b60008060008060006102208688031215611d0157611d00611ab7565b5b6000611d0f88828901611ad3565b9550506020611d2088828901611c7e565b9450506060611d3188828901611ca0565b93505060e0611d4288828901611c7e565b925050610120611d5488828901611cc2565b9150509295509295909350565b60008115159050919050565b611d7681611d61565b82525050565b6000602082019050611d916000830184611d6d565b92915050565b6000806000806102008587031215611db257611db1611ab7565b5b6000611dc087828801611c7e565b9450506040611dd187828801611ca0565b93505060c0611de287828801611c7e565b925050610100611df487828801611cc2565b91505092959194509250565b6000611e0b82611c2b565b9050919050565b611e1b81611e00565b82525050565b6000602082019050611e366000830184611e12565b92915050565b6000611e4782611bdf565b9050919050565b611e5781611e3c565b8114611e6257600080fd5b50565b600081359050611e7481611e4e565b92915050565b600060208284031215611e9057611e8f611ab7565b5b6000611e9e84828501611e65565b91505092915050565b600080fd5b60006103a08284031215611ec357611ec2611ea7565b5b81905092915050565b600081905082602060030282011115611ee857611ee7611c79565b5b92915050565b6000806000806104408587031215611f0957611f08611ab7565b5b6000611f1787828801611eac565b9450506103a0611f2987828801611ad3565b9350506103c0611f3b87828801611e65565b9250506103e0611f4d87828801611ecc565b91505092959194509250565b7f4e487b7100000000000000000000000000000000000000000000000000000000600052603260045260246000fd5b7f4e487b7100000000000000000000000000000000000000000000000000000000600052601160045260246000fd5b6000611fc2826119f9565b9150611fcd836119f9565b9250828201905080821115611fe557611fe4611f88565b5b92915050565b600082825260208201905092915050565b7f546f74616c2062616c616e6365206d757374206265206772656174657220746860008201527f616e207a65726f20746f2070726576656e74206469766973696f6e206279207a60208201527f65726f0000000000000000000000000000000000000000000000000000000000604082015250565b600061207e604383611feb565b915061208982611ffc565b606082019050919050565b600060208201905081810360008301526120ad81612071565b9050919050565b7f4e487b7100000000000000000000000000000000000000000000000000000000600052601260045260246000fd5b60006120ee826119f9565b91506120f9836119f9565b925082612109576121086120b4565b5b828204905092915050565b7f526573756c74206e6f742079657420617661696c61626c650000000000000000600082015250565b600061214a601883611feb565b915061215582612114565b602082019050919050565b600060208201905081810360008301526121798161213d565b9050919050565b61218981611e3c565b82525050565b60006020820190506121a46000830184612180565b92915050565b6000815190506121b981611abc565b92915050565b6000602082840312156121d5576121d4611ab7565b5b60006121e3848285016121aa565b91505092915050565b7f496e76616c6964206d6f636b436f696e2062616c616e63650000000000000000600082015250565b6000612222601883611feb565b915061222d826121ec565b602082019050919050565b6000602082019050818103600083015261225181612215565b9050919050565b7f496e76616c696420746f6b656e412062616c616e636500000000000000000000600082015250565b600061228e601683611feb565b915061229982612258565b602082019050919050565b600060208201905081810360008301526122bd81612281565b9050919050565b7f496e76616c696420746f6b656e422062616c616e636500000000000000000000600082015250565b60006122fa601683611feb565b9150612305826122c4565b602082019050919050565b60006020820190508181036000830152612329816122ed565b9050919050565b60006060820190506123456000830186612180565b6123526020830185612180565b61235f6040830184611b55565b949350505050565b61237081611d61565b811461237b57600080fd5b50565b60008151905061238d81612367565b92915050565b6000602082840312156123a9576123a8611ab7565b5b60006123b78482850161237e565b91505092915050565b60006123cb826119f9565b91506123d6836119f9565b92508282026123e4816119f9565b915082820484148315176123fb576123fa611f88565b5b5092915050565b7f5574786f20616c72656164792075736564000000000000000000000000000000600082015250565b6000612438601183611feb565b915061244382612402565b602082019050919050565b600060208201905081810360008301526124678161242b565b9050919050565b600060089050919050565b600081905092915050565b6000819050919050565b6000602082019050919050565b6124a48161246e565b6124ae8184612479565b92506124b982612484565b8060005b838110156124ea5781516124d18782611a12565b96506124dc8361248e565b9250506001810190506124bd565b505050505050565b6101a0820160008201516125096000850182611a03565b50602082015161251c6020850182611a03565b50604082015161252f6040850182611a03565b5060608201516125426060850182611a03565b5060808201516125556080850182611a03565b5060a082015161256860a085018261249b565b50505050565b60006101c0820190506125846000830185611b55565b61259160208301846124f2565b9392505050565b7f6e657720636f696e2062616c616e6365206d757374206265206c617267657200600082015250565b60006125ce601f83611feb565b91506125d982612598565b602082019050919050565b600060208201905081810360008301526125fd816125c1565b9050919050565b7f6e657720546f6b656e412062616c616e6365206d757374206265206c6172676560008201527f7200000000000000000000000000000000000000000000000000000000000000602082015250565b6000612660602183611feb565b915061266b82612604565b604082019050919050565b6000602082019050818103600083015261268f81612653565b9050919050565b7f6e657720546f6b656e422062616c616e6365206d757374206265206c6172676560008201527f7200000000000000000000000000000000000000000000000000000000000000602082015250565b60006126f2602183611feb565b91506126fd82612696565b604082019050919050565b60006020820190508181036000830152612721816126e5565b9050919050565b7f5472616e73666572206661696c65640000000000000000000000000000000000600082015250565b600061275e600f83611feb565b915061276982612728565b602082019050919050565b6000602082019050818103600083015261278d81612751565b9050919050565b7f6e657720636f696e2062616c616e6365206d75737420626520736d616c6c6572600082015250565b60006127ca602083611feb565b91506127d582612794565b602082019050919050565b600060208201905081810360008301526127f9816127bd565b9050919050565b7f6e657720546f6b656e412062616c616e6365206d75737420626520736d616c6c60008201527f6572000000000000000000000000000000000000000000000000000000000000602082015250565b600061285c602283611feb565b915061286782612800565b604082019050919050565b6000602082019050818103600083015261288b8161284f565b9050919050565b7f6e657720546f6b656e422062616c616e63652063616e2774206368616e676500600082015250565b60006128c8601f83611feb565b91506128d382612892565b602082019050919050565b600060208201905081810360008301526128f7816128bb565b9050919050565b7f6e657720546f6b656e412062616c616e63652063616e2774206368616e676500600082015250565b6000612934601f83611feb565b915061293f826128fe565b602082019050919050565b6000602082019050818103600083015261296381612927565b9050919050565b7f6e657720546f6b656e422062616c616e6365206d75737420626520736d616c6c60008201527f6572000000000000000000000000000000000000000000000000000000000000602082015250565b60006129c6602283611feb565b91506129d18261296a565b604082019050919050565b600060208201905081810360008301526129f5816129b9565b9050919050565b600060a082019050612a116000830188611b55565b612a1e6020830187611b55565b612a2b6040830186611b55565b612a386060830185611b55565b612a456080830184611b55565b969550505050505056fea264697066735822122021ac24400edd1ad9410ef532529f871ee6825f7b288fa0931330f3e91327030964736f6c63430008170033",
  "linkReferences": {},
  "deployedLinkReferences": {}
}