{
  "_format": "hh-sol-artifact-1",
  "contractName": "Feedback",
  "sourceName": "contracts/Feedback.sol",
  "abi": [
    {
      "inputs": [
        {
          "internalType": "address",
          "name": "semaphoreAddress",
          "type": "address"
        },
        {
          "internalType": "string",
          "name": "tokenAName",
          "type": "string"
        },
        {
          "internalType": "string",
          "name": "tokenBName",
          "type": "string"
        },
        {
          "internalType": "string",
          "name": "tokenASymbol",
          "type": "string"
        },
        {
          "internalType": "string",
          "name": "tokenBSymbol",
          "type": "string"
        }
      ],
      "stateMutability": "nonpayable",
      "type": "constructor"
    },
    {
      "anonymous": false,
      "inputs": [
        {
          "indexed": false,
          "internalType": "uint256",
          "name": "groupId",
          "type": "uint256"
        },
        {
          "indexed": false,
          "internalType": "uint256",
          "name": "timestamp",
          "type": "uint256"
        },
        {
          "indexed": false,
          "internalType": "uint256",
          "name": "newCoinBalance",
          "type": "uint256"
        },
        {
          "indexed": false,
          "internalType": "uint256",
          "name": "newTokenABalance",
          "type": "uint256"
        },
        {
          "indexed": false,
          "internalType": "uint256",
          "name": "newTokenBBalance",
          "type": "uint256"
        }
      ],
      "name": "UpdatePoolBalances",
      "type": "event"
    },
    {
      "inputs": [
        {
          "internalType": "uint256",
          "name": "groupIdsIdx",
          "type": "uint256"
        },
        {
          "internalType": "uint256[2]",
          "name": "a",
          "type": "uint256[2]"
        },
        {
          "internalType": "uint256[2][2]",
          "name": "b",
          "type": "uint256[2][2]"
        },
        {
          "internalType": "uint256[2]",
          "name": "c",
          "type": "uint256[2]"
        },
        {
          "internalType": "uint256[12]",
          "name": "input",
          "type": "uint256[12]"
        }
      ],
      "name": "_verifyCheck",
      "outputs": [
        {
          "internalType": "bool",
          "name": "",
          "type": "bool"
        }
      ],
      "stateMutability": "view",
      "type": "function"
    },
    {
      "inputs": [
        {
          "internalType": "uint256",
          "name": "groupIdsIdx",
          "type": "uint256"
        }
      ],
      "name": "checkBalances",
      "outputs": [
        {
          "internalType": "uint256",
          "name": "",
          "type": "uint256"
        },
        {
          "internalType": "uint256",
          "name": "",
          "type": "uint256"
        },
        {
          "internalType": "uint256",
          "name": "",
          "type": "uint256"
        },
        {
          "internalType": "uint256",
          "name": "",
          "type": "uint256"
        }
      ],
      "stateMutability": "view",
      "type": "function"
    },
    {
      "inputs": [],
      "name": "checkGroupIds",
      "outputs": [
        {
          "internalType": "uint256[]",
          "name": "",
          "type": "uint256[]"
        }
      ],
      "stateMutability": "view",
      "type": "function"
    },
    {
      "inputs": [
        {
          "internalType": "uint256",
          "name": "",
          "type": "uint256"
        }
      ],
      "name": "coinBalances",
      "outputs": [
        {
          "internalType": "uint256",
          "name": "",
          "type": "uint256"
        }
      ],
      "stateMutability": "view",
      "type": "function"
    },
    {
      "inputs": [],
      "name": "createGroup",
      "outputs": [],
      "stateMutability": "nonpayable",
      "type": "function"
    },
    {
      "inputs": [
        {
          "internalType": "uint256",
          "name": "",
          "type": "uint256"
        }
      ],
      "name": "groupIds",
      "outputs": [
        {
          "internalType": "uint256",
          "name": "",
          "type": "uint256"
        }
      ],
      "stateMutability": "view",
      "type": "function"
    },
    {
      "inputs": [
        {
          "internalType": "uint256",
          "name": "identityCommitment",
          "type": "uint256"
        },
        {
          "internalType": "uint256",
          "name": "groupIdsIdx",
          "type": "uint256"
        }
      ],
      "name": "joinGroup",
      "outputs": [],
      "stateMutability": "nonpayable",
      "type": "function"
    },
    {
      "inputs": [],
      "name": "mockCoin",
      "outputs": [
        {
          "internalType": "contract MockCoin",
          "name": "",
          "type": "address"
        }
      ],
      "stateMutability": "view",
      "type": "function"
    },
    {
      "inputs": [
        {
          "internalType": "uint256",
          "name": "",
          "type": "uint256"
        }
      ],
      "name": "results",
      "outputs": [
        {
          "internalType": "uint256",
          "name": "",
          "type": "uint256"
        }
      ],
      "stateMutability": "view",
      "type": "function"
    },
    {
      "inputs": [],
      "name": "semaphore",
      "outputs": [
        {
          "internalType": "contract ISemaphore",
          "name": "",
          "type": "address"
        }
      ],
      "stateMutability": "view",
      "type": "function"
    },
    {
      "inputs": [
        {
          "components": [
            {
              "internalType": "uint256",
              "name": "merkleTreeDepth",
              "type": "uint256"
            },
            {
              "internalType": "uint256",
              "name": "merkleTreeRoot",
              "type": "uint256"
            },
            {
              "internalType": "uint256",
              "name": "nullifier",
              "type": "uint256"
            },
            {
              "internalType": "uint256",
              "name": "feedback",
              "type": "uint256"
            },
            {
              "internalType": "uint256",
              "name": "scope",
              "type": "uint256"
            },
            {
              "internalType": "uint256[8]",
              "name": "points",
              "type": "uint256[8]"
            },
            {
              "internalType": "uint256[2]",
              "name": "a",
              "type": "uint256[2]"
            },
            {
              "internalType": "uint256[2][2]",
              "name": "b",
              "type": "uint256[2][2]"
            },
            {
              "internalType": "uint256[2]",
              "name": "c",
              "type": "uint256[2]"
            },
            {
              "internalType": "uint256[12]",
              "name": "input",
              "type": "uint256[12]"
            }
          ],
          "internalType": "struct Feedback.FeedbackInput",
          "name": "feedbackInput",
          "type": "tuple"
        },
        {
          "internalType": "uint256",
          "name": "groupIdsIdx",
          "type": "uint256"
        },
        {
          "internalType": "address",
          "name": "ethAddress",
          "type": "address"
        }
      ],
      "name": "sendFeedback",
      "outputs": [],
      "stateMutability": "nonpayable",
      "type": "function"
    },
    {
      "inputs": [
        {
          "internalType": "uint256",
          "name": "_groupIdsIdx",
          "type": "uint256"
        },
        {
          "internalType": "uint256",
          "name": "_coinBalance",
          "type": "uint256"
        },
        {
          "internalType": "uint256",
          "name": "_tokenABalance",
          "type": "uint256"
        },
        {
          "internalType": "uint256",
          "name": "_tokenBBalance",
          "type": "uint256"
        },
        {
          "internalType": "address",
          "name": "_ethAddress",
          "type": "address"
        },
        {
          "internalType": "uint256",
          "name": "_poolAdd",
          "type": "uint256"
        },
        {
          "internalType": "uint256",
          "name": "_poolSub",
          "type": "uint256"
        }
      ],
      "name": "setBalances",
      "outputs": [],
      "stateMutability": "nonpayable",
      "type": "function"
    },
    {
      "inputs": [
        {
          "internalType": "address",
          "name": "mockCoinAddress",
          "type": "address"
        }
      ],
      "name": "setMockCoin",
      "outputs": [],
      "stateMutability": "nonpayable",
      "type": "function"
    },
    {
      "inputs": [
        {
          "internalType": "uint256",
          "name": "_groupIdsIdx",
          "type": "uint256"
        },
        {
          "internalType": "uint256",
          "name": "_result",
          "type": "uint256"
        }
      ],
      "name": "setResult",
      "outputs": [],
      "stateMutability": "nonpayable",
      "type": "function"
    },
    {
      "inputs": [
        {
          "internalType": "uint256",
          "name": "",
          "type": "uint256"
        }
      ],
      "name": "tokenABalances",
      "outputs": [
        {
          "internalType": "uint256",
          "name": "",
          "type": "uint256"
        }
      ],
      "stateMutability": "view",
      "type": "function"
    },
    {
      "inputs": [
        {
          "internalType": "uint256",
          "name": "",
          "type": "uint256"
        }
      ],
      "name": "tokenBBalances",
      "outputs": [
        {
          "internalType": "uint256",
          "name": "",
          "type": "uint256"
        }
      ],
      "stateMutability": "view",
      "type": "function"
    },
    {
      "inputs": [
        {
          "internalType": "uint256",
          "name": "",
          "type": "uint256"
        }
      ],
      "name": "utxoHashStatus",
      "outputs": [
        {
          "internalType": "bool",
          "name": "",
          "type": "bool"
        }
      ],
      "stateMutability": "view",
      "type": "function"
    },
    {
      "inputs": [
        {
          "internalType": "uint256[2]",
          "name": "a",
          "type": "uint256[2]"
        },
        {
          "internalType": "uint256[2][2]",
          "name": "b",
          "type": "uint256[2][2]"
        },
        {
          "internalType": "uint256[2]",
          "name": "c",
          "type": "uint256[2]"
        },
        {
          "internalType": "uint256[12]",
          "name": "input",
          "type": "uint256[12]"
        }
      ],
      "name": "verify",
      "outputs": [
        {
          "internalType": "bool",
          "name": "",
          "type": "bool"
        }
      ],
      "stateMutability": "view",
      "type": "function"
    },
    {
      "inputs": [
        {
          "internalType": "uint256[2]",
          "name": "_pA",
          "type": "uint256[2]"
        },
        {
          "internalType": "uint256[2][2]",
          "name": "_pB",
          "type": "uint256[2][2]"
        },
        {
          "internalType": "uint256[2]",
          "name": "_pC",
          "type": "uint256[2]"
        },
        {
          "internalType": "uint256[12]",
          "name": "_pubSignals",
          "type": "uint256[12]"
        }
      ],
      "name": "verifyProof",
      "outputs": [
        {
          "internalType": "bool",
          "name": "isValid",
          "type": "bool"
        }
      ],
      "stateMutability": "view",
      "type": "function"
    }
  ],
  "bytecode": "0x60806040523480156200001157600080fd5b506040516200333c3803806200333c8339818101604052810190620000379190620005ba565b846000806101000a81548173ffffffffffffffffffffffffffffffffffffffff021916908373ffffffffffffffffffffffffffffffffffffffff16021790555060008060009054906101000a900473ffffffffffffffffffffffffffffffffffffffff1673ffffffffffffffffffffffffffffffffffffffff16635c3f3b60306040518263ffffffff1660e01b8152600401620000d59190620006cf565b6020604051808303816000875af1158015620000f5573d6000803e3d6000fd5b505050506040513d601f19601f820116820180604052508101906200011b919062000727565b9050600181908060018154018082558091505060019003906000526020600020016000909190919091505560008060009054906101000a900473ffffffffffffffffffffffffffffffffffffffff1673ffffffffffffffffffffffffffffffffffffffff16635c3f3b60306040518263ffffffff1660e01b8152600401620001a49190620006cf565b6020604051808303816000875af1158015620001c4573d6000803e3d6000fd5b505050506040513d601f19601f82011682018060405250810190620001ea919062000727565b9050600181908060018154018082558091505060019003906000526020600020016000909190919091505560008060009054906101000a900473ffffffffffffffffffffffffffffffffffffffff1673ffffffffffffffffffffffffffffffffffffffff16635c3f3b60306040518263ffffffff1660e01b8152600401620002739190620006cf565b6020604051808303816000875af115801562000293573d6000803e3d6000fd5b505050506040513d601f19601f82011682018060405250810190620002b9919062000727565b9050600181908060018154018082558091505060019003906000526020600020016000909190919091505560008060009054906101000a900473ffffffffffffffffffffffffffffffffffffffff1673ffffffffffffffffffffffffffffffffffffffff16635c3f3b60306040518263ffffffff1660e01b8152600401620003429190620006cf565b6020604051808303816000875af115801562000362573d6000803e3d6000fd5b505050506040513d601f19601f8201168201806040525081019062000388919062000727565b9050600181908060018154018082558091505060019003906000526020600020016000909190919091505550505050505050505062000759565b6000604051905090565b600080fd5b600080fd5b600073ffffffffffffffffffffffffffffffffffffffff82169050919050565b60006200040382620003d6565b9050919050565b6200041581620003f6565b81146200042157600080fd5b50565b60008151905062000435816200040a565b92915050565b600080fd5b600080fd5b6000601f19601f8301169050919050565b7f4e487b7100000000000000000000000000000000000000000000000000000000600052604160045260246000fd5b620004908262000445565b810181811067ffffffffffffffff82111715620004b257620004b162000456565b5b80604052505050565b6000620004c7620003c2565b9050620004d5828262000485565b919050565b600067ffffffffffffffff821115620004f857620004f762000456565b5b620005038262000445565b9050602081019050919050565b60005b838110156200053057808201518184015260208101905062000513565b60008484015250505050565b6000620005536200054d84620004da565b620004bb565b90508281526020810184848401111562000572576200057162000440565b5b6200057f84828562000510565b509392505050565b600082601f8301126200059f576200059e6200043b565b5b8151620005b18482602086016200053c565b91505092915050565b600080600080600060a08688031215620005d957620005d8620003cc565b5b6000620005e98882890162000424565b955050602086015167ffffffffffffffff8111156200060d576200060c620003d1565b5b6200061b8882890162000587565b945050604086015167ffffffffffffffff8111156200063f576200063e620003d1565b5b6200064d8882890162000587565b935050606086015167ffffffffffffffff811115620006715762000670620003d1565b5b6200067f8882890162000587565b925050608086015167ffffffffffffffff811115620006a357620006a2620003d1565b5b620006b18882890162000587565b9150509295509295909350565b620006c981620003f6565b82525050565b6000602082019050620006e66000830184620006be565b92915050565b6000819050919050565b6200070181620006ec565b81146200070d57600080fd5b50565b6000815190506200072181620006f6565b92915050565b60006020828403121562000740576200073f620003cc565b5b6000620007508482850162000710565b91505092915050565b612bd380620007696000396000f3fe608060405234801561001057600080fd5b50600436106101215760003560e01c80634fdda1f5116100ad578063b7ea1d2711610071578063b7ea1d2714610343578063cc0a40dc14610373578063d2c57132146103a3578063d4be2573146103c1578063e4927805146103dd57610121565b80634fdda1f51461029c578063557296f9146102cf578063575185ed146102eb5780637b5d2534146102f55780638cbac0fa1461031357610121565b8063310efb48116100f4578063310efb48146101c05780633266f9ca146101dc5780633516eb691461020c57806340876fe91461023c5780634093d7a11461026c57610121565b806302b3e3b41461012657806304c68fa9146101565780631a0c750c146101745780631b0c27da14610190575b600080fd5b610140600480360381019061013b9190612037565b6103f9565b60405161014d91906120bb565b60405180910390f35b61015e610416565b60405161016b919061219e565b60405180910390f35b61018e600480360381019061018991906121ec565b61046e565b005b6101aa60048036038101906101a5919061222c565b61051d565b6040516101b79190612268565b60405180910390f35b6101da60048036038101906101d591906121ec565b610535565b005b6101f660048036038101906101f1919061222c565b610551565b6040516102039190612268565b60405180910390f35b61022660048036038101906102219190612283565b610569565b60405161023391906120bb565b60405180910390f35b6102566004803603810190610251919061222c565b610587565b6040516102639190612268565b60405180910390f35b6102866004803603810190610281919061222c565b61059f565b6040516102939190612268565b60405180910390f35b6102b660048036038101906102b1919061222c565b6105c3565b6040516102c69493929190612300565b60405180910390f35b6102e960048036038101906102e491906123c8565b6106b0565b005b6102f3611342565b005b6102fd61140f565b60405161030a919061247d565b60405180910390f35b61032d60048036038101906103289190612037565b611433565b60405161033a91906120bb565b60405180910390f35b61035d6004803603810190610358919061222c565b611ca4565b60405161036a9190612268565b60405180910390f35b61038d6004803603810190610388919061222c565b611cbc565b60405161039a91906120bb565b60405180910390f35b6103ab611cdc565b6040516103b891906124b9565b60405180910390f35b6103db60048036038101906103d691906124d4565b611d02565b005b6103f760048036038101906103f29190612501565b611d46565b005b60008061040886868686611433565b905080915050949350505050565b6060600180548060200260200160405190810160405280929190818152602001828054801561046457602002820191906000526020600020905b815481526020019060010190808311610450575b5050505050905090565b60008054906101000a900473ffffffffffffffffffffffffffffffffffffffff1673ffffffffffffffffffffffffffffffffffffffff16631783efc3600183815481106104be576104bd6125a3565b5b9060005260206000200154846040518363ffffffff1660e01b81526004016104e79291906125d2565b600060405180830381600087803b15801561050157600080fd5b505af1158015610515573d6000803e3d6000fd5b505050505050565b60066020528060005260406000206000915090505481565b8060066000848152602001908152602001600020819055505050565b60036020528060005260406000206000915090505481565b60008061057886868686611433565b90508091505095945050505050565b60046020528060005260406000206000915090505481565b600181815481106105af57600080fd5b906000526020600020016000915090505481565b600080600080600360008681526020019081526020016000205460046000878152602001908152602001600020546005600088815260200190815260200160002054600260009054906101000a900473ffffffffffffffffffffffffffffffffffffffff1673ffffffffffffffffffffffffffffffffffffffff166370a08231306040518263ffffffff1660e01b8152600401610660919061260a565b602060405180830381865afa15801561067d573d6000803e3d6000fd5b505050506040513d601f19601f820116820180604052508101906106a1919061263a565b93509350935093509193509193565b61070b6040518060400160405280601681526020017f666565646261636b496e7075742e696e7075745b305d00000000000000000000815250846102a0016000600c8110610701576107006125a3565b5b6020020135611edb565b6107666040518060400160405280601681526020017f666565646261636b496e7075742e696e7075745b315d00000000000000000000815250846102a0016001600c811061075c5761075b6125a3565b5b6020020135611edb565b6107c16040518060400160405280601681526020017f666565646261636b496e7075742e696e7075745b325d00000000000000000000815250846102a0016002600c81106107b7576107b66125a3565b5b6020020135611edb565b61081c6040518060400160405280601681526020017f666565646261636b496e7075742e696e7075745b335d00000000000000000000815250846102a0016003600c8110610812576108116125a3565b5b6020020135611edb565b6108776040518060400160405280601681526020017f666565646261636b496e7075742e696e7075745b345d00000000000000000000815250846102a0016004600c811061086d5761086c6125a3565b5b6020020135611edb565b6108d26040518060400160405280601681526020017f666565646261636b496e7075742e696e7075745b355d00000000000000000000815250846102a0016005600c81106108c8576108c76125a3565b5b6020020135611edb565b61092d6040518060400160405280601681526020017f666565646261636b496e7075742e696e7075745b365d00000000000000000000815250846102a0016006600c8110610923576109226125a3565b5b6020020135611edb565b6109886040518060400160405280601681526020017f666565646261636b496e7075742e696e7075745b375d00000000000000000000815250846102a0016007600c811061097e5761097d6125a3565b5b6020020135611edb565b6109e36040518060400160405280601681526020017f666565646261636b496e7075742e696e7075745b385d00000000000000000000815250846102a0016008600c81106109d9576109d86125a3565b5b6020020135611edb565b610a3e6040518060400160405280601681526020017f666565646261636b496e7075742e696e7075745b395d00000000000000000000815250846102a0016009600c8110610a3457610a336125a3565b5b6020020135611edb565b610a996040518060400160405280601781526020017f666565646261636b496e7075742e696e7075745b31305d000000000000000000815250846102a001600a600c8110610a8f57610a8e6125a3565b5b6020020135611edb565b610af46040518060400160405280601781526020017f666565646261636b496e7075742e696e7075745b31315d000000000000000000815250846102a001600b600c8110610aea57610ae96125a3565b5b6020020135611edb565b610b1182846101a001856101e0018661026001876102a001610569565b506000836102a0016003600c8110610b2c57610b2b6125a3565b5b602002013514610c02576001151560076000856102a0016003600c8110610b5657610b556125a3565b5b6020020135815260200190815260200160002060009054906101000a900460ff16151514610bb9576040517f08c379a0000000000000000000000000000000000000000000000000000000008152600401610bb0906126c4565b60405180910390fd5b600060076000856102a0016003600c8110610bd757610bd66125a3565b5b6020020135815260200190815260200160002060006101000a81548160ff0219169083151502179055505b600160076000856102a0016004600c8110610c2057610c1f6125a3565b5b6020020135815260200190815260200160002060006101000a81548160ff02191690831515021790555060006040518060c0016040528085600001358152602001856020013581526020018560400135815260200185606001358152602001856080013581526020018560a0016008806020026040519081016040528092919082600860200280828437600081840152601f19601f820116905080830192505050505050815250905060008054906101000a900473ffffffffffffffffffffffffffffffffffffffff1673ffffffffffffffffffffffffffffffffffffffff1663d0d898dd60018581548110610d1957610d186125a3565b5b9060005260206000200154836040518363ffffffff1660e01b8152600401610d429291906127e4565b600060405180830381600087803b158015610d5c57600080fd5b505af1158015610d70573d6000803e3d6000fd5b5050505060006040518060e00160405280866102a0016009600c8110610d9957610d986125a3565b5b60200201358152602001866102a001600a600c8110610dbb57610dba6125a3565b5b60200201358152602001866102a001600b600c8110610ddd57610ddc6125a3565b5b602002013581526020016003600087815260200190815260200160002054815260200160046000878152602001908152602001600020548152602001600560008781526020019081526020016000205481526020016006600087815260200190815260200160002054815250905060008160c001510361105b576000856102a0016008600c8110610e7157610e706125a3565b5b602002013514610f83576000600260009054906101000a900473ffffffffffffffffffffffffffffffffffffffff1673ffffffffffffffffffffffffffffffffffffffff166323b872dd8530896102a0016008600c8110610ed557610ed46125a3565b5b60200201356040518463ffffffff1660e01b8152600401610ef89392919061280e565b6020604051808303816000875af1158015610f17573d6000803e3d6000fd5b505050506040513d601f19601f82011682018060405250810190610f3b9190612871565b905080610f7d576040517f08c379a0000000000000000000000000000000000000000000000000000000008152600401610f74906128ea565b60405180910390fd5b50611056565b846102a0016005600c8110610f9b57610f9a6125a3565b5b6020020135600360008681526020019081526020016000206000828254610fc29190612939565b92505081905550846102a0016006600c8110610fe157610fe06125a3565b5b60200201356004600086815260200190815260200160002060008282546110089190612939565b92505081905550846102a0016007600c8110611027576110266125a3565b5b602002013560056000868152602001908152602001600020600082825461104e9190612939565b925050819055505b6112f0565b60018160c0015114801561108b57506000856102a0016007600c8110611084576110836125a3565b5b6020020135145b156112e5576000856102a0016005600c81106110aa576110a96125a3565b5b6020020135141580156110da57506000856102a0016006600c81106110d2576110d16125a3565b5b602002013514155b801561110257506000856102a0016008600c81106110fb576110fa6125a3565b5b6020020135145b156111b95760008160800151866102a0016006600c8110611126576111256125a3565b5b6020020135836060015161113a919061296d565b61114491906129de565b9050806003600087815260200190815260200160002060008282546111699190612a0f565b92505081905550856102a0016006600c8110611188576111876125a3565b5b6020020135826080015161119c9190612a0f565b6004600087815260200190815260200160002081905550506112e0565b6000856102a0016008600c81106111d3576111d26125a3565b5b6020020135146112df576000600260009054906101000a900473ffffffffffffffffffffffffffffffffffffffff1673ffffffffffffffffffffffffffffffffffffffff1663a9059cbb85886102a0016008600c8110611236576112356125a3565b5b60200201356040518363ffffffff1660e01b8152600401611258929190612a43565b6020604051808303816000875af1158015611277573d6000803e3d6000fd5b505050506040513d601f19601f8201168201806040525081019061129b9190612871565b9050806112dd576040517f08c379a00000000000000000000000000000000000000000000000000000000081526004016112d4906128ea565b60405180910390fd5b505b5b6112ef565b60028160c0015150505b5b7f66d5bbe67f59694833fb31dee9460ea88b4e3614d741ddba079f5ca31901fb268442836000015184602001518560400151604051611333959493929190612a6c565b60405180910390a15050505050565b60008060009054906101000a900473ffffffffffffffffffffffffffffffffffffffff1673ffffffffffffffffffffffffffffffffffffffff16635c3f3b60306040518263ffffffff1660e01b815260040161139e919061260a565b6020604051808303816000875af11580156113bd573d6000803e3d6000fd5b505050506040513d601f19601f820116820180604052508101906113e1919061263a565b9050600181908060018154018082558091505060019003906000526020600020016000909190919091505550565b60008054906101000a900473ffffffffffffffffffffffffffffffffffffffff1681565b6000611bd3565b7f30644e72e131a029b85045b68181585d97816a916871ca8d3c208c16d87cfd47811061146b576000805260206000f35b50565b600060405183815284602082015285604082015260408160608360076107d05a03fa9150816114a1576000805260206000f35b825160408201526020830151606082015260408360808360066107d05a03fa9150816114d1576000805260206000f35b505050505050565b600060808601600087017f07081aa3f80c7bc2a3127e77605d685b82f4de12658dffd62e764f5965cb0cff81527f20aa517929057cc3466008f253de90132ebf2213c0aaa7a3d935308ec5b7ce96602082015261157c60008801357f0bcf48ca5f2c0f19e22d4264b16ac6ff0775616ef4990b6b9977bef3211ef73d7f27b0a3cb3ea9dec037fab4df3f313aff21972805e6ce873dbbc05ec281191f338461146e565b6115cc60208801357f22fd3ca0867e192b7efea809409f2a4e2972bcf0846ef186b28088c1d1f741297f2b4fc80c5e100ccd6ae3238ed0b187aec7f33a2f203d044030b2f3dcee5cfb9f8461146e565b61161c60408801357f104d7379c32cd44d33ea6a8ef0c6779d73f7d963cceb97dae2b80cecfe74b5317f1dc972366ddc00e64e9e0cc946bebf5638aeeeb5f500c605821df74a1f58d8458461146e565b61166c60608801357f151b9b16593cf12cfc83bab33a1663b6a8397c2343b23fd5ed27ff440e714bd37f2f99eef587a8b406aeafd164f1d62a55e7f918f36d08249d88b7852a043b25188461146e565b6116bc60808801357f2c3bb099016fbb4d6c402eb012080daf76ff9b5b04f1ff7949fef1c832533d5a7f16f25eb2e4f0b2081f0ca89d0f724e043f66fc5c10ebe57853b3cf0afea824f48461146e565b61170b60a08801357e6a5bb91a1baf26ef30d1f23ecc4c3bcf5d96d0a535bbe8bb6cca53967973737f15117ee0d3d4378548895d2d573e0718aea96cc4473b75a917bde29eec9d5f2e8461146e565b61175b60c08801357f2a0939e88d47d170dcd764165996763e99d406899e974cbfac79c2085e550fad7f17f21c852d268987ede177ebcdcb6c1db8a7dc592baf180d2e905b4fd4d9f1a58461146e565b6117ab60e08801357f18ef950f9c595fd17b6293301a818200ef6d762584409d68c077be0685d93c087f164b03a6c60f4c262949141b40f394d12ef4bdedf09101a0972ea82b005c42188461146e565b6117fc6101008801357f198da9afa1f34a3e510427dda3a622ce5e9bc2f659b598e53788018b9df84c2a7f271294c476ae7bda4d9534fb55c02da81e2bf576814251e6e0f5ae170e8ac3e48461146e565b61184d6101208801357f1c08c89d1c97163ad3ec4078a4f85563d9655ab40bb0e3e28a82883fd4c7094f7f2061dd346e6edd869b6fb2e5f3ac74134d7e9fd2b645d4109e50fa8b40df97c58461146e565b61189e6101408801357f176f5a4e5d77241015a6dd4067ec14f50f6975ca9b9f06eaf57b5454c6f0d0d47f0a89b0c0a21cc4da06b0d15cbcfb85f560fb194f378dbdf9da4f5e6a445573a88461146e565b6118ef6101608801357f22946da1bb6f6e800813117fe90f13d6d1e8a3363f09857812440a21d4f14e0c7f2385ae23ec0d2aa7421e422cb4ac2de7c92d18e16bbd437c0c1f9ea1b38b90198461146e565b833582527f30644e72e131a029b85045b68181585d97816a916871ca8d3c208c16d87cfd4760208501357f30644e72e131a029b85045b68181585d97816a916871ca8d3c208c16d87cfd4703066020830152843560408301526020850135606083015260408501356080830152606085013560a08301527f2d4d9aa7e302d9df41749d5507949d05dbea33fbb16c643b22f599a2be6df2e260c08301527f14bedd503c37ceb061d8ec60209fe345ce89830a19230301f076caff004d192660e08301527f0967032fcbf776d1afc985f88877f182d38480a653f2decaa9794cbc3bf3060c6101008301527f0e187847ad4c798374d0d6732bf501847dd68bc0e071241e0213bc7fc13db7ab6101208301527f304cfbd1e08a704a99f5e847d93f8c3caafddec46b7a0d379da69a4d112346a76101408301527f1739c1b1a457a8c7313123d24d2f9192f896b7c63eea05a9d57f06547ad0cec8610160830152600088015161018083015260206000018801516101a08301527f198e9393920d483a7260bfb731fb5d25f1aa493335a9e71297e485b7aef312c26101c08301527f1800deef121f1e76426a00665e5c4479674322d4f75edadd46debd5cd992f6ed6101e08301527f090689d0585ff075ec9e99ad690c3395bc4b313370b38ef355acdadcd122975b6102008301527f12c85ea5db8c6deb4aab71808dcb408fe3d1e7690c43d37b4ce6cc0166fa7daa610220830152853561024083015260208601356102608301527f0a1ffcefe8548f3ce112ae3e558dd6aefae3cbf37c78a9c25a1561c197c638166102808301527f1c87bf7a567e3353fbc0abad4dfd0ffb7647320fae3784d21db865c70980d8ef6102a08301527f2aac77dd1397d37cc513bbc038edde4240d4d1afbcb1910afe8e1d3aacd7efab6102c08301527f0fc40aecb58222dd3bcb043152a4ef9e2a733683dc39a36fa2c761db6cc7bc9f6102e08301526020826103008460086107d05a03fa82518116935050505095945050505050565b6040516103808101604052611beb600084013561143a565b611bf8602084013561143a565b611c05604084013561143a565b611c12606084013561143a565b611c1f608084013561143a565b611c2c60a084013561143a565b611c3960c084013561143a565b611c4660e084013561143a565b611c5461010084013561143a565b611c6261012084013561143a565b611c7061014084013561143a565b611c7e61016084013561143a565b611c8c61018084013561143a565b611c99818486888a6114d9565b915050949350505050565b60056020528060005260406000206000915090505481565b60076020528060005260406000206000915054906101000a900460ff1681565b600260009054906101000a900473ffffffffffffffffffffffffffffffffffffffff1681565b80600260006101000a81548173ffffffffffffffffffffffffffffffffffffffff021916908373ffffffffffffffffffffffffffffffffffffffff16021790555050565b856003600089815260200190815260200160002081905550846004600089815260200190815260200160002081905550836005600089815260200190815260200160002081905550600260009054906101000a900473ffffffffffffffffffffffffffffffffffffffff1673ffffffffffffffffffffffffffffffffffffffff166323b872dd8430856040518463ffffffff1660e01b8152600401611ded9392919061280e565b6020604051808303816000875af1158015611e0c573d6000803e3d6000fd5b505050506040513d601f19601f82011682018060405250810190611e309190612871565b50600260009054906101000a900473ffffffffffffffffffffffffffffffffffffffff1673ffffffffffffffffffffffffffffffffffffffff1663a9059cbb84836040518363ffffffff1660e01b8152600401611e8e929190612a43565b6020604051808303816000875af1158015611ead573d6000803e3d6000fd5b505050506040513d601f19601f82011682018060405250810190611ed19190612871565b5050505050505050565b611f738282604051602401611ef1929190612b3e565b6040516020818303038152906040527fb60e72cc000000000000000000000000000000000000000000000000000000007bffffffffffffffffffffffffffffffffffffffffffffffffffffffff19166020820180517bffffffffffffffffffffffffffffffffffffffffffffffffffffffff8381831617835250505050611f77565b5050565b611f8e81611f86611f91611fb2565b63ffffffff16565b50565b60006a636f6e736f6c652e6c6f679050600080835160208501845afa505050565b611fbd819050919050565b611fc5612b6e565b565b600080fd5b600080fd5b600081905082602060020282011115611fed57611fec611fcc565b5b92915050565b60008190508260406002028201111561200f5761200e611fcc565b5b92915050565b6000819050826020600c028201111561203157612030611fcc565b5b92915050565b600080600080610280858703121561205257612051611fc7565b5b600061206087828801611fd1565b945050604061207187828801611ff3565b93505060c061208287828801611fd1565b92505061010061209487828801612015565b91505092959194509250565b60008115159050919050565b6120b5816120a0565b82525050565b60006020820190506120d060008301846120ac565b92915050565b600081519050919050565b600082825260208201905092915050565b6000819050602082019050919050565b6000819050919050565b61211581612102565b82525050565b6000612127838361210c565b60208301905092915050565b6000602082019050919050565b600061214b826120d6565b61215581856120e1565b9350612160836120f2565b8060005b83811015612191578151612178888261211b565b975061218383612133565b925050600181019050612164565b5085935050505092915050565b600060208201905081810360008301526121b88184612140565b905092915050565b6121c981612102565b81146121d457600080fd5b50565b6000813590506121e6816121c0565b92915050565b6000806040838503121561220357612202611fc7565b5b6000612211858286016121d7565b9250506020612222858286016121d7565b9150509250929050565b60006020828403121561224257612241611fc7565b5b6000612250848285016121d7565b91505092915050565b61226281612102565b82525050565b600060208201905061227d6000830184612259565b92915050565b60008060008060006102a086880312156122a05761229f611fc7565b5b60006122ae888289016121d7565b95505060206122bf88828901611fd1565b94505060606122d088828901611ff3565b93505060e06122e188828901611fd1565b9250506101206122f388828901612015565b9150509295509295909350565b60006080820190506123156000830187612259565b6123226020830186612259565b61232f6040830185612259565b61233c6060830184612259565b95945050505050565b600080fd5b6000610420828403121561236157612360612345565b5b81905092915050565b600073ffffffffffffffffffffffffffffffffffffffff82169050919050565b60006123958261236a565b9050919050565b6123a58161238a565b81146123b057600080fd5b50565b6000813590506123c28161239c565b92915050565b600080600061046084860312156123e2576123e1611fc7565b5b60006123f08682870161234a565b935050610420612402868287016121d7565b925050610440612414868287016123b3565b9150509250925092565b6000819050919050565b600061244361243e6124398461236a565b61241e565b61236a565b9050919050565b600061245582612428565b9050919050565b60006124678261244a565b9050919050565b6124778161245c565b82525050565b6000602082019050612492600083018461246e565b92915050565b60006124a38261244a565b9050919050565b6124b381612498565b82525050565b60006020820190506124ce60008301846124aa565b92915050565b6000602082840312156124ea576124e9611fc7565b5b60006124f8848285016123b3565b91505092915050565b600080600080600080600060e0888a0312156125205761251f611fc7565b5b600061252e8a828b016121d7565b975050602061253f8a828b016121d7565b96505060406125508a828b016121d7565b95505060606125618a828b016121d7565b94505060806125728a828b016123b3565b93505060a06125838a828b016121d7565b92505060c06125948a828b016121d7565b91505092959891949750929550565b7f4e487b7100000000000000000000000000000000000000000000000000000000600052603260045260246000fd5b60006040820190506125e76000830185612259565b6125f46020830184612259565b9392505050565b6126048161238a565b82525050565b600060208201905061261f60008301846125fb565b92915050565b600081519050612634816121c0565b92915050565b6000602082840312156126505761264f611fc7565b5b600061265e84828501612625565b91505092915050565b600082825260208201905092915050565b7f7574786f4861736820616c726561647920757365640000000000000000000000600082015250565b60006126ae601583612667565b91506126b982612678565b602082019050919050565b600060208201905081810360008301526126dd816126a1565b9050919050565b600060089050919050565b600081905092915050565b6000819050919050565b6000602082019050919050565b61271a816126e4565b61272481846126ef565b925061272f826126fa565b8060005b83811015612760578151612747878261211b565b965061275283612704565b925050600181019050612733565b505050505050565b6101a08201600082015161277f600085018261210c565b506020820151612792602085018261210c565b5060408201516127a5604085018261210c565b5060608201516127b8606085018261210c565b5060808201516127cb608085018261210c565b5060a08201516127de60a0850182612711565b50505050565b60006101c0820190506127fa6000830185612259565b6128076020830184612768565b9392505050565b600060608201905061282360008301866125fb565b61283060208301856125fb565b61283d6040830184612259565b949350505050565b61284e816120a0565b811461285957600080fd5b50565b60008151905061286b81612845565b92915050565b60006020828403121561288757612886611fc7565b5b60006128958482850161285c565b91505092915050565b7f5472616e73666572206661696c65640000000000000000000000000000000000600082015250565b60006128d4600f83612667565b91506128df8261289e565b602082019050919050565b60006020820190508181036000830152612903816128c7565b9050919050565b7f4e487b7100000000000000000000000000000000000000000000000000000000600052601160045260246000fd5b600061294482612102565b915061294f83612102565b92508282019050808211156129675761296661290a565b5b92915050565b600061297882612102565b915061298383612102565b925082820261299181612102565b915082820484148315176129a8576129a761290a565b5b5092915050565b7f4e487b7100000000000000000000000000000000000000000000000000000000600052601260045260246000fd5b60006129e982612102565b91506129f483612102565b925082612a0457612a036129af565b5b828204905092915050565b6000612a1a82612102565b9150612a2583612102565b9250828203905081811115612a3d57612a3c61290a565b5b92915050565b6000604082019050612a5860008301856125fb565b612a656020830184612259565b9392505050565b600060a082019050612a816000830188612259565b612a8e6020830187612259565b612a9b6040830186612259565b612aa86060830185612259565b612ab56080830184612259565b9695505050505050565b600081519050919050565b60005b83811015612ae8578082015181840152602081019050612acd565b60008484015250505050565b6000601f19601f8301169050919050565b6000612b1082612abf565b612b1a8185612667565b9350612b2a818560208601612aca565b612b3381612af4565b840191505092915050565b60006040820190508181036000830152612b588185612b05565b9050612b676020830184612259565b9392505050565b7f4e487b7100000000000000000000000000000000000000000000000000000000600052605160045260246000fdfea2646970667358221220593c50bb1d3e95914c6330f33cfbd97180ada614e9e76ad3d1e95211ed27504164736f6c63430008170033",
  "linkReferences": {},
  "deployedLinkReferences": {}
}