{
  "_format": "hh-sol-artifact-1",
  "contractName": "Feedback",
  "sourceName": "contracts/Feedback.sol",
  "abi": [
    {
      "inputs": [
        {
          "internalType": "address",
          "name": "semaphoreAddress",
          "type": "address"
        },
        {
          "internalType": "string",
          "name": "tokenAName",
          "type": "string"
        },
        {
          "internalType": "string",
          "name": "tokenBName",
          "type": "string"
        },
        {
          "internalType": "string",
          "name": "tokenASymbol",
          "type": "string"
        },
        {
          "internalType": "string",
          "name": "tokenBSymbol",
          "type": "string"
        }
      ],
      "stateMutability": "nonpayable",
      "type": "constructor"
    },
    {
      "anonymous": false,
      "inputs": [
        {
          "indexed": false,
          "internalType": "uint256",
          "name": "groupId",
          "type": "uint256"
        },
        {
          "indexed": false,
          "internalType": "uint256",
          "name": "timestamp",
          "type": "uint256"
        },
        {
          "indexed": false,
          "internalType": "uint256",
          "name": "newCoinBalance",
          "type": "uint256"
        },
        {
          "indexed": false,
          "internalType": "uint256",
          "name": "newTokenABalance",
          "type": "uint256"
        },
        {
          "indexed": false,
          "internalType": "uint256",
          "name": "newTokenBBalance",
          "type": "uint256"
        }
      ],
      "name": "UpdatePoolBalances",
      "type": "event"
    },
    {
      "inputs": [
        {
          "internalType": "uint256",
          "name": "groupIdsIdx",
          "type": "uint256"
        },
        {
          "internalType": "uint256[2]",
          "name": "a",
          "type": "uint256[2]"
        },
        {
          "internalType": "uint256[2][2]",
          "name": "b",
          "type": "uint256[2][2]"
        },
        {
          "internalType": "uint256[2]",
          "name": "c",
          "type": "uint256[2]"
        },
        {
          "internalType": "uint256[8]",
          "name": "input",
          "type": "uint256[8]"
        }
      ],
      "name": "_verifyCheck",
      "outputs": [
        {
          "internalType": "bool",
          "name": "",
          "type": "bool"
        }
      ],
      "stateMutability": "view",
      "type": "function"
    },
    {
      "inputs": [
        {
          "internalType": "uint256",
          "name": "groupIdsIdx",
          "type": "uint256"
        }
      ],
      "name": "checkBalances",
      "outputs": [
        {
          "internalType": "uint256",
          "name": "",
          "type": "uint256"
        },
        {
          "internalType": "uint256",
          "name": "",
          "type": "uint256"
        },
        {
          "internalType": "uint256",
          "name": "",
          "type": "uint256"
        },
        {
          "internalType": "uint256",
          "name": "",
          "type": "uint256"
        }
      ],
      "stateMutability": "view",
      "type": "function"
    },
    {
      "inputs": [],
      "name": "checkGroupIds",
      "outputs": [
        {
          "internalType": "uint256[]",
          "name": "",
          "type": "uint256[]"
        }
      ],
      "stateMutability": "view",
      "type": "function"
    },
    {
      "inputs": [
        {
          "internalType": "uint256",
          "name": "groupIdsIdx",
          "type": "uint256"
        }
      ],
      "name": "checkPrice",
      "outputs": [
        {
          "internalType": "uint256",
          "name": "",
          "type": "uint256"
        },
        {
          "internalType": "uint256",
          "name": "",
          "type": "uint256"
        }
      ],
      "stateMutability": "view",
      "type": "function"
    },
    {
      "inputs": [
        {
          "internalType": "uint256",
          "name": "_groupIdsIdx",
          "type": "uint256"
        }
      ],
      "name": "claim",
      "outputs": [],
      "stateMutability": "nonpayable",
      "type": "function"
    },
    {
      "inputs": [
        {
          "internalType": "uint256",
          "name": "",
          "type": "uint256"
        }
      ],
      "name": "coinBalances",
      "outputs": [
        {
          "internalType": "uint256",
          "name": "",
          "type": "uint256"
        }
      ],
      "stateMutability": "view",
      "type": "function"
    },
    {
      "inputs": [],
      "name": "createGroup",
      "outputs": [],
      "stateMutability": "nonpayable",
      "type": "function"
    },
    {
      "inputs": [
        {
          "internalType": "uint256",
          "name": "groupIdsIdx",
          "type": "uint256"
        },
        {
          "internalType": "uint256",
          "name": "amount",
          "type": "uint256"
        }
      ],
      "name": "deposit",
      "outputs": [],
      "stateMutability": "nonpayable",
      "type": "function"
    },
    {
      "inputs": [
        {
          "internalType": "uint256",
          "name": "",
          "type": "uint256"
        }
      ],
      "name": "groupIds",
      "outputs": [
        {
          "internalType": "uint256",
          "name": "",
          "type": "uint256"
        }
      ],
      "stateMutability": "view",
      "type": "function"
    },
    {
      "inputs": [
        {
          "internalType": "uint256",
          "name": "identityCommitment",
          "type": "uint256"
        },
        {
          "internalType": "uint256",
          "name": "groupIdsIdx",
          "type": "uint256"
        }
      ],
      "name": "joinGroup",
      "outputs": [],
      "stateMutability": "nonpayable",
      "type": "function"
    },
    {
      "inputs": [],
      "name": "mockCoin",
      "outputs": [
        {
          "internalType": "contract MockCoin",
          "name": "",
          "type": "address"
        }
      ],
      "stateMutability": "view",
      "type": "function"
    },
    {
      "inputs": [
        {
          "internalType": "uint256",
          "name": "",
          "type": "uint256"
        }
      ],
      "name": "results",
      "outputs": [
        {
          "internalType": "uint256",
          "name": "",
          "type": "uint256"
        }
      ],
      "stateMutability": "view",
      "type": "function"
    },
    {
      "inputs": [],
      "name": "semaphore",
      "outputs": [
        {
          "internalType": "contract ISemaphore",
          "name": "",
          "type": "address"
        }
      ],
      "stateMutability": "view",
      "type": "function"
    },
    {
      "inputs": [
        {
          "components": [
            {
              "internalType": "uint256",
              "name": "merkleTreeDepth",
              "type": "uint256"
            },
            {
              "internalType": "uint256",
              "name": "merkleTreeRoot",
              "type": "uint256"
            },
            {
              "internalType": "uint256",
              "name": "nullifier",
              "type": "uint256"
            },
            {
              "internalType": "uint256",
              "name": "feedback",
              "type": "uint256"
            },
            {
              "internalType": "uint256",
              "name": "scope",
              "type": "uint256"
            },
            {
              "internalType": "uint256[8]",
              "name": "points",
              "type": "uint256[8]"
            },
            {
              "internalType": "uint256[2]",
              "name": "a",
              "type": "uint256[2]"
            },
            {
              "internalType": "uint256[2][2]",
              "name": "b",
              "type": "uint256[2][2]"
            },
            {
              "internalType": "uint256[2]",
              "name": "c",
              "type": "uint256[2]"
            },
            {
              "internalType": "uint256[8]",
              "name": "input",
              "type": "uint256[8]"
            }
          ],
          "internalType": "struct Feedback.FeedbackInput",
          "name": "feedbackInput",
          "type": "tuple"
        },
        {
          "internalType": "uint256",
          "name": "groupIdsIdx",
          "type": "uint256"
        },
        {
          "internalType": "address",
          "name": "ethAddress",
          "type": "address"
        },
        {
          "internalType": "uint256[4]",
          "name": "diffAmounts",
          "type": "uint256[4]"
        }
      ],
      "name": "sendFeedback",
      "outputs": [],
      "stateMutability": "nonpayable",
      "type": "function"
    },
    {
      "inputs": [
        {
          "internalType": "address",
          "name": "mockCoinAddress",
          "type": "address"
        }
      ],
      "name": "setMockCoin",
      "outputs": [],
      "stateMutability": "nonpayable",
      "type": "function"
    },
    {
      "inputs": [
        {
          "internalType": "uint256",
          "name": "_groupIdsIdx",
          "type": "uint256"
        },
        {
          "internalType": "uint256",
          "name": "_result",
          "type": "uint256"
        }
      ],
      "name": "setResult",
      "outputs": [],
      "stateMutability": "nonpayable",
      "type": "function"
    },
    {
      "inputs": [
        {
          "internalType": "uint256",
          "name": "",
          "type": "uint256"
        }
      ],
      "name": "tokenABalances",
      "outputs": [
        {
          "internalType": "uint256",
          "name": "",
          "type": "uint256"
        }
      ],
      "stateMutability": "view",
      "type": "function"
    },
    {
      "inputs": [
        {
          "internalType": "uint256",
          "name": "",
          "type": "uint256"
        }
      ],
      "name": "tokenBBalances",
      "outputs": [
        {
          "internalType": "uint256",
          "name": "",
          "type": "uint256"
        }
      ],
      "stateMutability": "view",
      "type": "function"
    },
    {
      "inputs": [
        {
          "internalType": "uint256[2]",
          "name": "a",
          "type": "uint256[2]"
        },
        {
          "internalType": "uint256[2][2]",
          "name": "b",
          "type": "uint256[2][2]"
        },
        {
          "internalType": "uint256[2]",
          "name": "c",
          "type": "uint256[2]"
        },
        {
          "internalType": "uint256[8]",
          "name": "input",
          "type": "uint256[8]"
        }
      ],
      "name": "verify",
      "outputs": [
        {
          "internalType": "bool",
          "name": "",
          "type": "bool"
        }
      ],
      "stateMutability": "view",
      "type": "function"
    },
    {
      "inputs": [
        {
          "internalType": "uint256[2]",
          "name": "_pA",
          "type": "uint256[2]"
        },
        {
          "internalType": "uint256[2][2]",
          "name": "_pB",
          "type": "uint256[2][2]"
        },
        {
          "internalType": "uint256[2]",
          "name": "_pC",
          "type": "uint256[2]"
        },
        {
          "internalType": "uint256[8]",
          "name": "_pubSignals",
          "type": "uint256[8]"
        }
      ],
      "name": "verifyProof",
      "outputs": [
        {
          "internalType": "bool",
          "name": "isValid",
          "type": "bool"
        }
      ],
      "stateMutability": "view",
      "type": "function"
    }
  ],
  "bytecode": "0x60806040523480156200001157600080fd5b50604051620029dd380380620029dd8339818101604052810190620000379190620005ba565b846000806101000a81548173ffffffffffffffffffffffffffffffffffffffff021916908373ffffffffffffffffffffffffffffffffffffffff16021790555060008060009054906101000a900473ffffffffffffffffffffffffffffffffffffffff1673ffffffffffffffffffffffffffffffffffffffff16635c3f3b60306040518263ffffffff1660e01b8152600401620000d59190620006cf565b6020604051808303816000875af1158015620000f5573d6000803e3d6000fd5b505050506040513d601f19601f820116820180604052508101906200011b919062000727565b9050600181908060018154018082558091505060019003906000526020600020016000909190919091505560008060009054906101000a900473ffffffffffffffffffffffffffffffffffffffff1673ffffffffffffffffffffffffffffffffffffffff16635c3f3b60306040518263ffffffff1660e01b8152600401620001a49190620006cf565b6020604051808303816000875af1158015620001c4573d6000803e3d6000fd5b505050506040513d601f19601f82011682018060405250810190620001ea919062000727565b9050600181908060018154018082558091505060019003906000526020600020016000909190919091505560008060009054906101000a900473ffffffffffffffffffffffffffffffffffffffff1673ffffffffffffffffffffffffffffffffffffffff16635c3f3b60306040518263ffffffff1660e01b8152600401620002739190620006cf565b6020604051808303816000875af115801562000293573d6000803e3d6000fd5b505050506040513d601f19601f82011682018060405250810190620002b9919062000727565b9050600181908060018154018082558091505060019003906000526020600020016000909190919091505560008060009054906101000a900473ffffffffffffffffffffffffffffffffffffffff1673ffffffffffffffffffffffffffffffffffffffff16635c3f3b60306040518263ffffffff1660e01b8152600401620003429190620006cf565b6020604051808303816000875af115801562000362573d6000803e3d6000fd5b505050506040513d601f19601f8201168201806040525081019062000388919062000727565b9050600181908060018154018082558091505060019003906000526020600020016000909190919091505550505050505050505062000759565b6000604051905090565b600080fd5b600080fd5b600073ffffffffffffffffffffffffffffffffffffffff82169050919050565b60006200040382620003d6565b9050919050565b6200041581620003f6565b81146200042157600080fd5b50565b60008151905062000435816200040a565b92915050565b600080fd5b600080fd5b6000601f19601f8301169050919050565b7f4e487b7100000000000000000000000000000000000000000000000000000000600052604160045260246000fd5b620004908262000445565b810181811067ffffffffffffffff82111715620004b257620004b162000456565b5b80604052505050565b6000620004c7620003c2565b9050620004d5828262000485565b919050565b600067ffffffffffffffff821115620004f857620004f762000456565b5b620005038262000445565b9050602081019050919050565b60005b838110156200053057808201518184015260208101905062000513565b60008484015250505050565b6000620005536200054d84620004da565b620004bb565b90508281526020810184848401111562000572576200057162000440565b5b6200057f84828562000510565b509392505050565b600082601f8301126200059f576200059e6200043b565b5b8151620005b18482602086016200053c565b91505092915050565b600080600080600060a08688031215620005d957620005d8620003cc565b5b6000620005e98882890162000424565b955050602086015167ffffffffffffffff8111156200060d576200060c620003d1565b5b6200061b8882890162000587565b945050604086015167ffffffffffffffff8111156200063f576200063e620003d1565b5b6200064d8882890162000587565b935050606086015167ffffffffffffffff811115620006715762000670620003d1565b5b6200067f8882890162000587565b925050608086015167ffffffffffffffff811115620006a357620006a2620003d1565b5b620006b18882890162000587565b9150509295509295909350565b620006c981620003f6565b82525050565b6000602082019050620006e66000830184620006be565b92915050565b6000819050919050565b6200070181620006ec565b81146200070d57600080fd5b50565b6000815190506200072181620006f6565b92915050565b60006020828403121562000740576200073f620003cc565b5b6000620007508482850162000710565b91505092915050565b61227480620007696000396000f3fe608060405234801561001057600080fd5b506004361061012c5760003560e01c80634fdda1f5116100ad578063c9219a7a11610071578063c9219a7a1461036b578063d2c571321461039b578063d4be2573146103b9578063e2bbb158146103d5578063eb610a85146103f15761012c565b80634fdda1f5146102b0578063575185ed146102e35780637b5d2534146102ed578063817edf941461030b578063b7ea1d271461033b5761012c565b8063310efb48116100f4578063310efb48146101e85780633266f9ca14610204578063379607f51461023457806340876fe9146102505780634093d7a1146102805761012c565b806304c68fa9146101315780630aa87dbe1461014f5780631a0c750c1461016b5780631b0c27da146101875780631de7463a146101b7575b600080fd5b610139610421565b60405161014691906118eb565b60405180910390f35b610169600480360381019061016491906119e8565b610479565b005b61018560048036038101906101809190611a53565b610af6565b005b6101a1600480360381019061019c9190611a93565b610ba5565b6040516101ae9190611acf565b60405180910390f35b6101d160048036038101906101cc9190611a93565b610bbd565b6040516101df929190611aea565b60405180910390f35b61020260048036038101906101fd9190611a53565b610c8d565b005b61021e60048036038101906102199190611a93565b610ca9565b60405161022b9190611acf565b60405180910390f35b61024e60048036038101906102499190611a93565b610cc1565b005b61026a60048036038101906102659190611a93565b610d1a565b6040516102779190611acf565b60405180910390f35b61029a60048036038101906102959190611a93565b610d32565b6040516102a79190611acf565b60405180910390f35b6102ca60048036038101906102c59190611a93565b610d56565b6040516102da9493929190611b13565b60405180910390f35b6102eb610e43565b005b6102f5610f10565b6040516103029190611bb7565b60405180910390f35b61032560048036038101906103209190611c38565b610f34565b6040516103329190611cd0565b60405180910390f35b61035560048036038101906103509190611a93565b610f52565b6040516103629190611acf565b60405180910390f35b61038560048036038101906103809190611ceb565b610f6a565b6040516103929190611cd0565b60405180910390f35b6103a361165f565b6040516103b09190611d75565b60405180910390f35b6103d360048036038101906103ce9190611d90565b611685565b005b6103ef60048036038101906103ea9190611a53565b6116c9565b005b61040b60048036038101906104069190611ceb565b611806565b6040516104189190611cd0565b60405180910390f35b6060600180548060200260200160405190810160405280929190818152602001828054801561046f57602002820191906000526020600020905b81548152602001906001019080831161045b575b5050505050905090565b61049683856101a001866101e0018761026001886102a001610f34565b50600160076000866102a0016004600881106104b5576104b4611dbd565b5b6020020135815260200190815260200160002060006101000a81548160ff02191690831515021790555060006040518060c0016040528086600001358152602001866020013581526020018660400135815260200186606001358152602001866080013581526020018660a0016008806020026040519081016040528092919082600860200280828437600081840152601f19601f820116905080830192505050505050815250905060006040518060e00160405280876102a00160056008811061058357610582611dbd565b5b60200201358152602001876102a0016006600881106105a5576105a4611dbd565b5b60200201358152602001876102a0016007600881106105c7576105c6611dbd565b5b602002013581526020016003600088815260200190815260200160002054815260200160046000888152602001908152602001600020548152602001600560008881526020019081526020016000205481526020016006600088815260200190815260200160002054815250905060008160c00151036108315760008360036004811061065757610656611dbd565b5b602002013514610765576000600260009054906101000a900473ffffffffffffffffffffffffffffffffffffffff1673ffffffffffffffffffffffffffffffffffffffff166323b872dd8630876003600481106106b7576106b6611dbd565b5b60200201356040518463ffffffff1660e01b81526004016106da93929190611dfb565b6020604051808303816000875af11580156106f9573d6000803e3d6000fd5b505050506040513d601f19601f8201168201806040525081019061071d9190611e5e565b90508061075f576040517f08c379a000000000000000000000000000000000000000000000000000000000815260040161075690611ee8565b60405180910390fd5b5061082c565b8260006004811061077957610778611dbd565b5b60200201356003600087815260200190815260200160002060008282546107a09190611f37565b92505081905550826001600481106107bb576107ba611dbd565b5b60200201356004600087815260200190815260200160002060008282546107e29190611f37565b92505081905550826002600481106107fd576107fc611dbd565b5b60200201356005600087815260200190815260200160002060008282546108249190611f37565b925050819055505b610aa3565b60018160c0015114801561085d575060008360026004811061085657610855611dbd565b5b6020020135145b15610a985760008360006004811061087857610877611dbd565b5b6020020135141580156108a4575060008360016004811061089c5761089b611dbd565b5b602002013514155b80156108c857506000836003600481106108c1576108c0611dbd565b5b6020020135145b15610974576000836001600481106108e3576108e2611dbd565b5b6020020135826080015183606001516108fc9190611f6b565b6109069190611fdc565b9050808260600151610918919061200d565b60036000888152602001908152602001600020819055508360016004811061094357610942611dbd565b5b60200201358260800151610957919061200d565b600460008881526020019081526020016000208190555050610a93565b60008360036004811061098a57610989611dbd565b5b602002013514610a92576000600260009054906101000a900473ffffffffffffffffffffffffffffffffffffffff1673ffffffffffffffffffffffffffffffffffffffff1663a9059cbb86866003600481106109e9576109e8611dbd565b5b60200201356040518363ffffffff1660e01b8152600401610a0b929190612041565b6020604051808303816000875af1158015610a2a573d6000803e3d6000fd5b505050506040513d601f19601f82011682018060405250810190610a4e9190611e5e565b905080610a90576040517f08c379a0000000000000000000000000000000000000000000000000000000008152600401610a8790611ee8565b60405180910390fd5b505b5b610aa2565b60028160c0015150505b5b7f66d5bbe67f59694833fb31dee9460ea88b4e3614d741ddba079f5ca31901fb268542836000015184602001518560400151604051610ae695949392919061206a565b60405180910390a1505050505050565b60008054906101000a900473ffffffffffffffffffffffffffffffffffffffff1673ffffffffffffffffffffffffffffffffffffffff16631783efc360018381548110610b4657610b45611dbd565b5b9060005260206000200154846040518363ffffffff1660e01b8152600401610b6f929190611aea565b600060405180830381600087803b158015610b8957600080fd5b505af1158015610b9d573d6000803e3d6000fd5b505050505050565b60066020528060005260406000206000915090505481565b600080600060056000858152602001908152602001600020546004600086815260200190815260200160002054610bf49190611f37565b905060008111610c39576040517f08c379a0000000000000000000000000000000000000000000000000000000008152600401610c3090612155565b60405180910390fd5b6000816004600087815260200190815260200160002054610c5a9190611fdc565b90506000826005600088815260200190815260200160002054610c7d9190611fdc565b9050818194509450505050915091565b8060066000848152602001908152602001600020819055505050565b60036020528060005260406000206000915090505481565b6000600660008381526020019081526020016000205403610d17576040517f08c379a0000000000000000000000000000000000000000000000000000000008152600401610d0e906121c1565b60405180910390fd5b50565b60046020528060005260406000206000915090505481565b60018181548110610d4257600080fd5b906000526020600020016000915090505481565b600080600080600360008681526020019081526020016000205460046000878152602001908152602001600020546005600088815260200190815260200160002054600260009054906101000a900473ffffffffffffffffffffffffffffffffffffffff1673ffffffffffffffffffffffffffffffffffffffff166370a08231306040518263ffffffff1660e01b8152600401610df391906121e1565b602060405180830381865afa158015610e10573d6000803e3d6000fd5b505050506040513d601f19601f82011682018060405250810190610e349190612211565b93509350935093509193509193565b60008060009054906101000a900473ffffffffffffffffffffffffffffffffffffffff1673ffffffffffffffffffffffffffffffffffffffff16635c3f3b60306040518263ffffffff1660e01b8152600401610e9f91906121e1565b6020604051808303816000875af1158015610ebe573d6000803e3d6000fd5b505050506040513d601f19601f82011682018060405250810190610ee29190612211565b9050600181908060018154018082558091505060019003906000526020600020016000909190919091505550565b60008054906101000a900473ffffffffffffffffffffffffffffffffffffffff1681565b600080610f4386868686610f6a565b90508091505095945050505050565b60056020528060005260406000206000915090505481565b60006115c6565b7f30644e72e131a029b85045b68181585d97816a916871ca8d3c208c16d87cfd478110610fa2576000805260206000f35b50565b600060405183815284602082015285604082015260408160608360076107d05a03fa915081610fd8576000805260206000f35b825160408201526020830151606082015260408360808360066107d05a03fa915081611008576000805260206000f35b505050505050565b600060808601600087017f07680b0e87510917debac113c08121cc767cb9143dd7316a1d10b2602b1c469b81527f11020d15b91e4c7f262ada447cf40da74eeec4cf8cffd3980b4b78b6d655e96260208201526110b360008801357f198da9afa1f34a3e510427dda3a622ce5e9bc2f659b598e53788018b9df84c2a7f271294c476ae7bda4d9534fb55c02da81e2bf576814251e6e0f5ae170e8ac3e484610fa5565b61110360208801357f1c08c89d1c97163ad3ec4078a4f85563d9655ab40bb0e3e28a82883fd4c7094f7f2061dd346e6edd869b6fb2e5f3ac74134d7e9fd2b645d4109e50fa8b40df97c584610fa5565b61115360408801357f176f5a4e5d77241015a6dd4067ec14f50f6975ca9b9f06eaf57b5454c6f0d0d47f0a89b0c0a21cc4da06b0d15cbcfb85f560fb194f378dbdf9da4f5e6a445573a884610fa5565b6111a360608801357f268f6edb3ab5a2dd24c04ba3c5b9de98dbe3c0dd08ca75c4bbc4553d3d9e96b37f0aebdde9d084f96310cca8b01b340eeca25371eba3486a8724f2911d645db32384610fa5565b6111f360808801357f10347a0330c7b5c6d45a814cc82008d1b77fa334ad4acf57f00a059faeba6d7f7f1799fafebdd53ba3494883bd50064618a818beb7c5f7f061c5cb8ee7ac248f2984610fa5565b61124360a08801357f20a9f83a80bf1cb399620155d0976ee3cf056fe7b810a25a5605a985944ae5c37f0deb79f71a5bce5fcf62dec4e1e2040dc75eecb4f7986d4cc5785ee2d0e4f41684610fa5565b61129360c08801357f0ce942786ff47ebff7ed141f7a0b41555e4162db811be207e437d3e96a9e7e0e7f0f6b735aeddac41aa105d3ad6427626b0b037303304434759b73971a4c73aa9184610fa5565b6112e260e08801357e351654f5db2b1ab1a7a418b9dbed4dcebd810e5a6839eb973ab2b1a5df52be7f0585e30c0285e391a3c75029a77798f9268885f76c29a2d0d4b79cba0073bff584610fa5565b833582527f30644e72e131a029b85045b68181585d97816a916871ca8d3c208c16d87cfd4760208501357f30644e72e131a029b85045b68181585d97816a916871ca8d3c208c16d87cfd4703066020830152843560408301526020850135606083015260408501356080830152606085013560a08301527f2d4d9aa7e302d9df41749d5507949d05dbea33fbb16c643b22f599a2be6df2e260c08301527f14bedd503c37ceb061d8ec60209fe345ce89830a19230301f076caff004d192660e08301527f0967032fcbf776d1afc985f88877f182d38480a653f2decaa9794cbc3bf3060c6101008301527f0e187847ad4c798374d0d6732bf501847dd68bc0e071241e0213bc7fc13db7ab6101208301527f304cfbd1e08a704a99f5e847d93f8c3caafddec46b7a0d379da69a4d112346a76101408301527f1739c1b1a457a8c7313123d24d2f9192f896b7c63eea05a9d57f06547ad0cec8610160830152600088015161018083015260206000018801516101a08301527f198e9393920d483a7260bfb731fb5d25f1aa493335a9e71297e485b7aef312c26101c08301527f1800deef121f1e76426a00665e5c4479674322d4f75edadd46debd5cd992f6ed6101e08301527f090689d0585ff075ec9e99ad690c3395bc4b313370b38ef355acdadcd122975b6102008301527f12c85ea5db8c6deb4aab71808dcb408fe3d1e7690c43d37b4ce6cc0166fa7daa610220830152853561024083015260208601356102608301527f1ab03618ac85e2c195730eebfefc62875e02975704c45821433ed377062bc79c6102808301527f0b5a3644e26318de97f40bd4648fa7f94bb593e85e51e8ade0163f3b507915e56102a08301527f29bcada1ea1f8b4bde4e31434501e59710f44e562717ece2578f7aa5dcc65a166102c08301527f17d36c2a6c79bb496b2697493851731f3a9f71e9bef8a79ca1492d80ff74b8976102e08301526020826103008460086107d05a03fa82518116935050505095945050505050565b60405161038081016040526115de6000840135610f71565b6115eb6020840135610f71565b6115f86040840135610f71565b6116056060840135610f71565b6116126080840135610f71565b61161f60a0840135610f71565b61162c60c0840135610f71565b61163960e0840135610f71565b611647610100840135610f71565b611654818486888a611010565b915050949350505050565b600260009054906101000a900473ffffffffffffffffffffffffffffffffffffffff1681565b80600260006101000a81548173ffffffffffffffffffffffffffffffffffffffff021916908373ffffffffffffffffffffffffffffffffffffffff16021790555050565b600260009054906101000a900473ffffffffffffffffffffffffffffffffffffffff1673ffffffffffffffffffffffffffffffffffffffff166323b872dd3330846040518463ffffffff1660e01b815260040161172893929190611dfb565b6020604051808303816000875af1158015611747573d6000803e3d6000fd5b505050506040513d601f19601f8201168201806040525081019061176b9190611e5e565b508060036000848152602001908152602001600020600082825461178f9190611f37565b92505081905550600a816117a39190611f6b565b6004600084815260200190815260200160002060008282546117c59190611f37565b92505081905550600a816117d99190611f6b565b6005600084815260200190815260200160002060008282546117fb9190611f37565b925050819055505050565b60008061181586868686610f6a565b905080915050949350505050565b600081519050919050565b600082825260208201905092915050565b6000819050602082019050919050565b6000819050919050565b6118628161184f565b82525050565b60006118748383611859565b60208301905092915050565b6000602082019050919050565b600061189882611823565b6118a2818561182e565b93506118ad8361183f565b8060005b838110156118de5781516118c58882611868565b97506118d083611880565b9250506001810190506118b1565b5085935050505092915050565b60006020820190508181036000830152611905818461188d565b905092915050565b600080fd5b600080fd5b60006103a0828403121561192e5761192d611912565b5b81905092915050565b6119408161184f565b811461194b57600080fd5b50565b60008135905061195d81611937565b92915050565b600073ffffffffffffffffffffffffffffffffffffffff82169050919050565b600061198e82611963565b9050919050565b61199e81611983565b81146119a957600080fd5b50565b6000813590506119bb81611995565b92915050565b600080fd5b6000819050826020600402820111156119e2576119e16119c1565b5b92915050565b6000806000806104608587031215611a0357611a0261190d565b5b6000611a1187828801611917565b9450506103a0611a238782880161194e565b9350506103c0611a35878288016119ac565b9250506103e0611a47878288016119c6565b91505092959194509250565b60008060408385031215611a6a57611a6961190d565b5b6000611a788582860161194e565b9250506020611a898582860161194e565b9150509250929050565b600060208284031215611aa957611aa861190d565b5b6000611ab78482850161194e565b91505092915050565b611ac98161184f565b82525050565b6000602082019050611ae46000830184611ac0565b92915050565b6000604082019050611aff6000830185611ac0565b611b0c6020830184611ac0565b9392505050565b6000608082019050611b286000830187611ac0565b611b356020830186611ac0565b611b426040830185611ac0565b611b4f6060830184611ac0565b95945050505050565b6000819050919050565b6000611b7d611b78611b7384611963565b611b58565b611963565b9050919050565b6000611b8f82611b62565b9050919050565b6000611ba182611b84565b9050919050565b611bb181611b96565b82525050565b6000602082019050611bcc6000830184611ba8565b92915050565b600081905082602060020282011115611bee57611bed6119c1565b5b92915050565b600081905082604060020282011115611c1057611c0f6119c1565b5b92915050565b600081905082602060080282011115611c3257611c316119c1565b5b92915050565b60008060008060006102208688031215611c5557611c5461190d565b5b6000611c638882890161194e565b9550506020611c7488828901611bd2565b9450506060611c8588828901611bf4565b93505060e0611c9688828901611bd2565b925050610120611ca888828901611c16565b9150509295509295909350565b60008115159050919050565b611cca81611cb5565b82525050565b6000602082019050611ce56000830184611cc1565b92915050565b6000806000806102008587031215611d0657611d0561190d565b5b6000611d1487828801611bd2565b9450506040611d2587828801611bf4565b93505060c0611d3687828801611bd2565b925050610100611d4887828801611c16565b91505092959194509250565b6000611d5f82611b84565b9050919050565b611d6f81611d54565b82525050565b6000602082019050611d8a6000830184611d66565b92915050565b600060208284031215611da657611da561190d565b5b6000611db4848285016119ac565b91505092915050565b7f4e487b7100000000000000000000000000000000000000000000000000000000600052603260045260246000fd5b611df581611983565b82525050565b6000606082019050611e106000830186611dec565b611e1d6020830185611dec565b611e2a6040830184611ac0565b949350505050565b611e3b81611cb5565b8114611e4657600080fd5b50565b600081519050611e5881611e32565b92915050565b600060208284031215611e7457611e7361190d565b5b6000611e8284828501611e49565b91505092915050565b600082825260208201905092915050565b7f5472616e73666572206661696c65640000000000000000000000000000000000600082015250565b6000611ed2600f83611e8b565b9150611edd82611e9c565b602082019050919050565b60006020820190508181036000830152611f0181611ec5565b9050919050565b7f4e487b7100000000000000000000000000000000000000000000000000000000600052601160045260246000fd5b6000611f428261184f565b9150611f4d8361184f565b9250828201905080821115611f6557611f64611f08565b5b92915050565b6000611f768261184f565b9150611f818361184f565b9250828202611f8f8161184f565b91508282048414831517611fa657611fa5611f08565b5b5092915050565b7f4e487b7100000000000000000000000000000000000000000000000000000000600052601260045260246000fd5b6000611fe78261184f565b9150611ff28361184f565b92508261200257612001611fad565b5b828204905092915050565b60006120188261184f565b91506120238361184f565b925082820390508181111561203b5761203a611f08565b5b92915050565b60006040820190506120566000830185611dec565b6120636020830184611ac0565b9392505050565b600060a08201905061207f6000830188611ac0565b61208c6020830187611ac0565b6120996040830186611ac0565b6120a66060830185611ac0565b6120b36080830184611ac0565b9695505050505050565b7f546f74616c2062616c616e6365206d757374206265206772656174657220746860008201527f616e207a65726f20746f2070726576656e74206469766973696f6e206279207a60208201527f65726f0000000000000000000000000000000000000000000000000000000000604082015250565b600061213f604383611e8b565b915061214a826120bd565b606082019050919050565b6000602082019050818103600083015261216e81612132565b9050919050565b7f526573756c74206e6f742079657420617661696c61626c650000000000000000600082015250565b60006121ab601883611e8b565b91506121b682612175565b602082019050919050565b600060208201905081810360008301526121da8161219e565b9050919050565b60006020820190506121f66000830184611dec565b92915050565b60008151905061220b81611937565b92915050565b6000602082840312156122275761222661190d565b5b6000612235848285016121fc565b9150509291505056fea2646970667358221220f98c742c6118b17f5cf87faa9223cac57595f001d98e47d15653efaa8836be7664736f6c63430008170033",
  "linkReferences": {},
  "deployedLinkReferences": {}
}