{
  "_format": "hh-sol-artifact-1",
  "contractName": "Feedback",
  "sourceName": "contracts/Feedback.sol",
  "abi": [
    {
      "inputs": [
        {
          "internalType": "address",
          "name": "semaphoreAddress",
          "type": "address"
        },
        {
          "internalType": "string",
          "name": "tokenAName",
          "type": "string"
        },
        {
          "internalType": "string",
          "name": "tokenBName",
          "type": "string"
        },
        {
          "internalType": "string",
          "name": "tokenASymbol",
          "type": "string"
        },
        {
          "internalType": "string",
          "name": "tokenBSymbol",
          "type": "string"
        }
      ],
      "stateMutability": "nonpayable",
      "type": "constructor"
    },
    {
      "anonymous": false,
      "inputs": [
        {
          "indexed": false,
          "internalType": "uint256",
          "name": "groupId",
          "type": "uint256"
        },
        {
          "indexed": false,
          "internalType": "uint256",
          "name": "timestamp",
          "type": "uint256"
        },
        {
          "indexed": false,
          "internalType": "uint256",
          "name": "newCoinBalance",
          "type": "uint256"
        },
        {
          "indexed": false,
          "internalType": "uint256",
          "name": "newTokenABalance",
          "type": "uint256"
        },
        {
          "indexed": false,
          "internalType": "uint256",
          "name": "newTokenBBalance",
          "type": "uint256"
        }
      ],
      "name": "UpdatePoolBalances",
      "type": "event"
    },
    {
      "inputs": [
        {
          "internalType": "uint256",
          "name": "groupIdsIdx",
          "type": "uint256"
        },
        {
          "internalType": "uint256[2]",
          "name": "a",
          "type": "uint256[2]"
        },
        {
          "internalType": "uint256[2][2]",
          "name": "b",
          "type": "uint256[2][2]"
        },
        {
          "internalType": "uint256[2]",
          "name": "c",
          "type": "uint256[2]"
        },
        {
          "internalType": "uint256[8]",
          "name": "input",
          "type": "uint256[8]"
        }
      ],
      "name": "_verifyCheck",
      "outputs": [
        {
          "internalType": "bool",
          "name": "",
          "type": "bool"
        }
      ],
      "stateMutability": "view",
      "type": "function"
    },
    {
      "inputs": [
        {
          "internalType": "uint256",
          "name": "groupIdsIdx",
          "type": "uint256"
        }
      ],
      "name": "checkBalances",
      "outputs": [
        {
          "internalType": "uint256",
          "name": "",
          "type": "uint256"
        },
        {
          "internalType": "uint256",
          "name": "",
          "type": "uint256"
        },
        {
          "internalType": "uint256",
          "name": "",
          "type": "uint256"
        },
        {
          "internalType": "uint256",
          "name": "",
          "type": "uint256"
        }
      ],
      "stateMutability": "view",
      "type": "function"
    },
    {
      "inputs": [],
      "name": "checkGroupIds",
      "outputs": [
        {
          "internalType": "uint256[]",
          "name": "",
          "type": "uint256[]"
        }
      ],
      "stateMutability": "view",
      "type": "function"
    },
    {
      "inputs": [
        {
          "internalType": "uint256",
          "name": "",
          "type": "uint256"
        }
      ],
      "name": "coinBalances",
      "outputs": [
        {
          "internalType": "uint256",
          "name": "",
          "type": "uint256"
        }
      ],
      "stateMutability": "view",
      "type": "function"
    },
    {
      "inputs": [],
      "name": "createGroup",
      "outputs": [],
      "stateMutability": "nonpayable",
      "type": "function"
    },
    {
      "inputs": [
        {
          "internalType": "uint256",
          "name": "",
          "type": "uint256"
        }
      ],
      "name": "groupIds",
      "outputs": [
        {
          "internalType": "uint256",
          "name": "",
          "type": "uint256"
        }
      ],
      "stateMutability": "view",
      "type": "function"
    },
    {
      "inputs": [
        {
          "internalType": "uint256",
          "name": "identityCommitment",
          "type": "uint256"
        },
        {
          "internalType": "uint256",
          "name": "groupIdsIdx",
          "type": "uint256"
        }
      ],
      "name": "joinGroup",
      "outputs": [],
      "stateMutability": "nonpayable",
      "type": "function"
    },
    {
      "inputs": [],
      "name": "mockCoin",
      "outputs": [
        {
          "internalType": "contract MockCoin",
          "name": "",
          "type": "address"
        }
      ],
      "stateMutability": "view",
      "type": "function"
    },
    {
      "inputs": [
        {
          "internalType": "uint256",
          "name": "",
          "type": "uint256"
        }
      ],
      "name": "results",
      "outputs": [
        {
          "internalType": "uint256",
          "name": "",
          "type": "uint256"
        }
      ],
      "stateMutability": "view",
      "type": "function"
    },
    {
      "inputs": [],
      "name": "semaphore",
      "outputs": [
        {
          "internalType": "contract ISemaphore",
          "name": "",
          "type": "address"
        }
      ],
      "stateMutability": "view",
      "type": "function"
    },
    {
      "inputs": [
        {
          "components": [
            {
              "internalType": "uint256",
              "name": "merkleTreeDepth",
              "type": "uint256"
            },
            {
              "internalType": "uint256",
              "name": "merkleTreeRoot",
              "type": "uint256"
            },
            {
              "internalType": "uint256",
              "name": "nullifier",
              "type": "uint256"
            },
            {
              "internalType": "uint256",
              "name": "feedback",
              "type": "uint256"
            },
            {
              "internalType": "uint256",
              "name": "scope",
              "type": "uint256"
            },
            {
              "internalType": "uint256[8]",
              "name": "points",
              "type": "uint256[8]"
            },
            {
              "internalType": "uint256[2]",
              "name": "a",
              "type": "uint256[2]"
            },
            {
              "internalType": "uint256[2][2]",
              "name": "b",
              "type": "uint256[2][2]"
            },
            {
              "internalType": "uint256[2]",
              "name": "c",
              "type": "uint256[2]"
            },
            {
              "internalType": "uint256[8]",
              "name": "input",
              "type": "uint256[8]"
            }
          ],
          "internalType": "struct Feedback.FeedbackInput",
          "name": "feedbackInput",
          "type": "tuple"
        },
        {
          "internalType": "uint256",
          "name": "groupIdsIdx",
          "type": "uint256"
        },
        {
          "internalType": "address",
          "name": "ethAddress",
          "type": "address"
        },
        {
          "internalType": "uint256[4]",
          "name": "diffAmounts",
          "type": "uint256[4]"
        }
      ],
      "name": "sendFeedback",
      "outputs": [],
      "stateMutability": "nonpayable",
      "type": "function"
    },
    {
      "inputs": [
        {
          "internalType": "uint256",
          "name": "_groupIdsIdx",
          "type": "uint256"
        },
        {
          "internalType": "uint256",
          "name": "_coinBalance",
          "type": "uint256"
        },
        {
          "internalType": "uint256",
          "name": "_tokenABalance",
          "type": "uint256"
        },
        {
          "internalType": "uint256",
          "name": "_tokenBBalance",
          "type": "uint256"
        },
        {
          "internalType": "address",
          "name": "_ethAddress",
          "type": "address"
        },
        {
          "internalType": "uint256",
          "name": "_poolAdd",
          "type": "uint256"
        },
        {
          "internalType": "uint256",
          "name": "_poolSub",
          "type": "uint256"
        }
      ],
      "name": "setBalances",
      "outputs": [],
      "stateMutability": "nonpayable",
      "type": "function"
    },
    {
      "inputs": [
        {
          "internalType": "address",
          "name": "mockCoinAddress",
          "type": "address"
        }
      ],
      "name": "setMockCoin",
      "outputs": [],
      "stateMutability": "nonpayable",
      "type": "function"
    },
    {
      "inputs": [
        {
          "internalType": "uint256",
          "name": "_groupIdsIdx",
          "type": "uint256"
        },
        {
          "internalType": "uint256",
          "name": "_result",
          "type": "uint256"
        }
      ],
      "name": "setResult",
      "outputs": [],
      "stateMutability": "nonpayable",
      "type": "function"
    },
    {
      "inputs": [
        {
          "internalType": "uint256",
          "name": "",
          "type": "uint256"
        }
      ],
      "name": "tokenABalances",
      "outputs": [
        {
          "internalType": "uint256",
          "name": "",
          "type": "uint256"
        }
      ],
      "stateMutability": "view",
      "type": "function"
    },
    {
      "inputs": [
        {
          "internalType": "uint256",
          "name": "",
          "type": "uint256"
        }
      ],
      "name": "tokenBBalances",
      "outputs": [
        {
          "internalType": "uint256",
          "name": "",
          "type": "uint256"
        }
      ],
      "stateMutability": "view",
      "type": "function"
    },
    {
      "inputs": [
        {
          "internalType": "uint256",
          "name": "",
          "type": "uint256"
        }
      ],
      "name": "utxoHashStatus",
      "outputs": [
        {
          "internalType": "bool",
          "name": "",
          "type": "bool"
        }
      ],
      "stateMutability": "view",
      "type": "function"
    },
    {
      "inputs": [
        {
          "internalType": "uint256[2]",
          "name": "a",
          "type": "uint256[2]"
        },
        {
          "internalType": "uint256[2][2]",
          "name": "b",
          "type": "uint256[2][2]"
        },
        {
          "internalType": "uint256[2]",
          "name": "c",
          "type": "uint256[2]"
        },
        {
          "internalType": "uint256[8]",
          "name": "input",
          "type": "uint256[8]"
        }
      ],
      "name": "verify",
      "outputs": [
        {
          "internalType": "bool",
          "name": "",
          "type": "bool"
        }
      ],
      "stateMutability": "view",
      "type": "function"
    },
    {
      "inputs": [
        {
          "internalType": "uint256[2]",
          "name": "_pA",
          "type": "uint256[2]"
        },
        {
          "internalType": "uint256[2][2]",
          "name": "_pB",
          "type": "uint256[2][2]"
        },
        {
          "internalType": "uint256[2]",
          "name": "_pC",
          "type": "uint256[2]"
        },
        {
          "internalType": "uint256[8]",
          "name": "_pubSignals",
          "type": "uint256[8]"
        }
      ],
      "name": "verifyProof",
      "outputs": [
        {
          "internalType": "bool",
          "name": "isValid",
          "type": "bool"
        }
      ],
      "stateMutability": "view",
      "type": "function"
    }
  ],
  "bytecode": "0x60806040523480156200001157600080fd5b5060405162002bb638038062002bb68339818101604052810190620000379190620005ba565b846000806101000a81548173ffffffffffffffffffffffffffffffffffffffff021916908373ffffffffffffffffffffffffffffffffffffffff16021790555060008060009054906101000a900473ffffffffffffffffffffffffffffffffffffffff1673ffffffffffffffffffffffffffffffffffffffff16635c3f3b60306040518263ffffffff1660e01b8152600401620000d59190620006cf565b6020604051808303816000875af1158015620000f5573d6000803e3d6000fd5b505050506040513d601f19601f820116820180604052508101906200011b919062000727565b9050600181908060018154018082558091505060019003906000526020600020016000909190919091505560008060009054906101000a900473ffffffffffffffffffffffffffffffffffffffff1673ffffffffffffffffffffffffffffffffffffffff16635c3f3b60306040518263ffffffff1660e01b8152600401620001a49190620006cf565b6020604051808303816000875af1158015620001c4573d6000803e3d6000fd5b505050506040513d601f19601f82011682018060405250810190620001ea919062000727565b9050600181908060018154018082558091505060019003906000526020600020016000909190919091505560008060009054906101000a900473ffffffffffffffffffffffffffffffffffffffff1673ffffffffffffffffffffffffffffffffffffffff16635c3f3b60306040518263ffffffff1660e01b8152600401620002739190620006cf565b6020604051808303816000875af115801562000293573d6000803e3d6000fd5b505050506040513d601f19601f82011682018060405250810190620002b9919062000727565b9050600181908060018154018082558091505060019003906000526020600020016000909190919091505560008060009054906101000a900473ffffffffffffffffffffffffffffffffffffffff1673ffffffffffffffffffffffffffffffffffffffff16635c3f3b60306040518263ffffffff1660e01b8152600401620003429190620006cf565b6020604051808303816000875af115801562000362573d6000803e3d6000fd5b505050506040513d601f19601f8201168201806040525081019062000388919062000727565b9050600181908060018154018082558091505060019003906000526020600020016000909190919091505550505050505050505062000759565b6000604051905090565b600080fd5b600080fd5b600073ffffffffffffffffffffffffffffffffffffffff82169050919050565b60006200040382620003d6565b9050919050565b6200041581620003f6565b81146200042157600080fd5b50565b60008151905062000435816200040a565b92915050565b600080fd5b600080fd5b6000601f19601f8301169050919050565b7f4e487b7100000000000000000000000000000000000000000000000000000000600052604160045260246000fd5b620004908262000445565b810181811067ffffffffffffffff82111715620004b257620004b162000456565b5b80604052505050565b6000620004c7620003c2565b9050620004d5828262000485565b919050565b600067ffffffffffffffff821115620004f857620004f762000456565b5b620005038262000445565b9050602081019050919050565b60005b838110156200053057808201518184015260208101905062000513565b60008484015250505050565b6000620005536200054d84620004da565b620004bb565b90508281526020810184848401111562000572576200057162000440565b5b6200057f84828562000510565b509392505050565b600082601f8301126200059f576200059e6200043b565b5b8151620005b18482602086016200053c565b91505092915050565b600080600080600060a08688031215620005d957620005d8620003cc565b5b6000620005e98882890162000424565b955050602086015167ffffffffffffffff8111156200060d576200060c620003d1565b5b6200061b8882890162000587565b945050604086015167ffffffffffffffff8111156200063f576200063e620003d1565b5b6200064d8882890162000587565b935050606086015167ffffffffffffffff811115620006715762000670620003d1565b5b6200067f8882890162000587565b925050608086015167ffffffffffffffff811115620006a357620006a2620003d1565b5b620006b18882890162000587565b9150509295509295909350565b620006c981620003f6565b82525050565b6000602082019050620006e66000830184620006be565b92915050565b6000819050919050565b6200070181620006ec565b81146200070d57600080fd5b50565b6000815190506200072181620006f6565b92915050565b60006020828403121562000740576200073f620003cc565b5b6000620007508482850162000710565b91505092915050565b61244d80620007696000396000f3fe608060405234801561001057600080fd5b50600436106101215760003560e01c8063575185ed116100ad578063cc0a40dc11610071578063cc0a40dc14610343578063d2c5713214610373578063d4be257314610391578063e4927805146103ad578063eb610a85146103c957610121565b8063575185ed1461028b5780637b5d253414610295578063817edf94146102b3578063b7ea1d27146102e3578063c9219a7a1461031357610121565b8063310efb48116100f4578063310efb48146101ac5780633266f9ca146101c857806340876fe9146101f85780634093d7a1146102285780634fdda1f51461025857610121565b806304c68fa9146101265780630aa87dbe146101445780631a0c750c146101605780631b0c27da1461017c575b600080fd5b61012e6103f9565b60405161013b91906119b0565b60405180910390f35b61015e60048036038101906101599190611aad565b610451565b005b61017a60048036038101906101759190611b18565b610c6c565b005b61019660048036038101906101919190611b58565b610d1b565b6040516101a39190611b94565b60405180910390f35b6101c660048036038101906101c19190611b18565b610d33565b005b6101e260048036038101906101dd9190611b58565b610d4f565b6040516101ef9190611b94565b60405180910390f35b610212600480360381019061020d9190611b58565b610d67565b60405161021f9190611b94565b60405180910390f35b610242600480360381019061023d9190611b58565b610d7f565b60405161024f9190611b94565b60405180910390f35b610272600480360381019061026d9190611b58565b610da3565b6040516102829493929190611baf565b60405180910390f35b610293610e90565b005b61029d610f5d565b6040516102aa9190611c53565b60405180910390f35b6102cd60048036038101906102c89190611cd4565b610f81565b6040516102da9190611d6c565b60405180910390f35b6102fd60048036038101906102f89190611b58565b610f9f565b60405161030a9190611b94565b60405180910390f35b61032d60048036038101906103289190611d87565b610fb7565b60405161033a9190611d6c565b60405180910390f35b61035d60048036038101906103589190611b58565b6116ac565b60405161036a9190611d6c565b60405180910390f35b61037b6116cc565b6040516103889190611e11565b60405180910390f35b6103ab60048036038101906103a69190611e2c565b6116f2565b005b6103c760048036038101906103c29190611e59565b611736565b005b6103e360048036038101906103de9190611d87565b6118cb565b6040516103f09190611d6c565b60405180910390f35b6060600180548060200260200160405190810160405280929190818152602001828054801561044757602002820191906000526020600020905b815481526020019060010190808311610433575b5050505050905090565b61046e83856101a001866101e0018761026001886102a001610f81565b506000846102a00160036008811061048957610488611efb565b5b60200201351461055f576001151560076000866102a0016003600881106104b3576104b2611efb565b5b6020020135815260200190815260200160002060009054906101000a900460ff16151514610516576040517f08c379a000000000000000000000000000000000000000000000000000000000815260040161050d90611f87565b60405180910390fd5b600060076000866102a00160036008811061053457610533611efb565b5b6020020135815260200190815260200160002060006101000a81548160ff0219169083151502179055505b600160076000866102a00160046008811061057d5761057c611efb565b5b6020020135815260200190815260200160002060006101000a81548160ff02191690831515021790555060006040518060c0016040528086600001358152602001866020013581526020018660400135815260200186606001358152602001866080013581526020018660a0016008806020026040519081016040528092919082600860200280828437600081840152601f19601f820116905080830192505050505050815250905060008054906101000a900473ffffffffffffffffffffffffffffffffffffffff1673ffffffffffffffffffffffffffffffffffffffff1663d0d898dd6001868154811061067657610675611efb565b5b9060005260206000200154836040518363ffffffff1660e01b815260040161069f9291906120a7565b600060405180830381600087803b1580156106b957600080fd5b505af11580156106cd573d6000803e3d6000fd5b5050505060006040518060e00160405280876102a0016005600881106106f6576106f5611efb565b5b60200201358152602001876102a00160066008811061071857610717611efb565b5b60200201358152602001876102a00160076008811061073a57610739611efb565b5b602002013581526020016003600088815260200190815260200160002054815260200160046000888152602001908152602001600020548152602001600560008881526020019081526020016000205481526020016006600088815260200190815260200160002054815250905060008160c00151036109a4576000836003600481106107ca576107c9611efb565b5b6020020135146108d8576000600260009054906101000a900473ffffffffffffffffffffffffffffffffffffffff1673ffffffffffffffffffffffffffffffffffffffff166323b872dd86308760036004811061082a57610829611efb565b5b60200201356040518463ffffffff1660e01b815260040161084d939291906120e0565b6020604051808303816000875af115801561086c573d6000803e3d6000fd5b505050506040513d601f19601f820116820180604052508101906108909190612143565b9050806108d2576040517f08c379a00000000000000000000000000000000000000000000000000000000081526004016108c9906121bc565b60405180910390fd5b5061099f565b826000600481106108ec576108eb611efb565b5b6020020135600360008781526020019081526020016000206000828254610913919061220b565b925050819055508260016004811061092e5761092d611efb565b5b6020020135600460008781526020019081526020016000206000828254610955919061220b565b92505081905550826002600481106109705761096f611efb565b5b6020020135600560008781526020019081526020016000206000828254610997919061220b565b925050819055505b610c19565b60018160c001511480156109d057506000836002600481106109c9576109c8611efb565b5b6020020135145b15610c0e576000836000600481106109eb576109ea611efb565b5b602002013514158015610a175750600083600160048110610a0f57610a0e611efb565b5b602002013514155b8015610a3b5750600083600360048110610a3457610a33611efb565b5b6020020135145b15610aea576000816080015184600160048110610a5b57610a5a611efb565b5b60200201358360600151610a6f919061223f565b610a7991906122b0565b905080600360008881526020019081526020016000206000828254610a9e91906122e1565b9250508190555083600160048110610ab957610ab8611efb565b5b60200201358260800151610acd91906122e1565b600460008881526020019081526020016000208190555050610c09565b600083600360048110610b0057610aff611efb565b5b602002013514610c08576000600260009054906101000a900473ffffffffffffffffffffffffffffffffffffffff1673ffffffffffffffffffffffffffffffffffffffff1663a9059cbb8686600360048110610b5f57610b5e611efb565b5b60200201356040518363ffffffff1660e01b8152600401610b81929190612315565b6020604051808303816000875af1158015610ba0573d6000803e3d6000fd5b505050506040513d601f19601f82011682018060405250810190610bc49190612143565b905080610c06576040517f08c379a0000000000000000000000000000000000000000000000000000000008152600401610bfd906121bc565b60405180910390fd5b505b5b610c18565b60028160c0015150505b5b7f66d5bbe67f59694833fb31dee9460ea88b4e3614d741ddba079f5ca31901fb268542836000015184602001518560400151604051610c5c95949392919061233e565b60405180910390a1505050505050565b60008054906101000a900473ffffffffffffffffffffffffffffffffffffffff1673ffffffffffffffffffffffffffffffffffffffff16631783efc360018381548110610cbc57610cbb611efb565b5b9060005260206000200154846040518363ffffffff1660e01b8152600401610ce5929190612391565b600060405180830381600087803b158015610cff57600080fd5b505af1158015610d13573d6000803e3d6000fd5b505050505050565b60066020528060005260406000206000915090505481565b8060066000848152602001908152602001600020819055505050565b60036020528060005260406000206000915090505481565b60046020528060005260406000206000915090505481565b60018181548110610d8f57600080fd5b906000526020600020016000915090505481565b600080600080600360008681526020019081526020016000205460046000878152602001908152602001600020546005600088815260200190815260200160002054600260009054906101000a900473ffffffffffffffffffffffffffffffffffffffff1673ffffffffffffffffffffffffffffffffffffffff166370a08231306040518263ffffffff1660e01b8152600401610e4091906123ba565b602060405180830381865afa158015610e5d573d6000803e3d6000fd5b505050506040513d601f19601f82011682018060405250810190610e8191906123ea565b93509350935093509193509193565b60008060009054906101000a900473ffffffffffffffffffffffffffffffffffffffff1673ffffffffffffffffffffffffffffffffffffffff16635c3f3b60306040518263ffffffff1660e01b8152600401610eec91906123ba565b6020604051808303816000875af1158015610f0b573d6000803e3d6000fd5b505050506040513d601f19601f82011682018060405250810190610f2f91906123ea565b9050600181908060018154018082558091505060019003906000526020600020016000909190919091505550565b60008054906101000a900473ffffffffffffffffffffffffffffffffffffffff1681565b600080610f9086868686610fb7565b90508091505095945050505050565b60056020528060005260406000206000915090505481565b6000611613565b7f30644e72e131a029b85045b68181585d97816a916871ca8d3c208c16d87cfd478110610fef576000805260206000f35b50565b600060405183815284602082015285604082015260408160608360076107d05a03fa915081611025576000805260206000f35b825160408201526020830151606082015260408360808360066107d05a03fa915081611055576000805260206000f35b505050505050565b600060808601600087017f07081aa3f80c7bc2a3127e77605d685b82f4de12658dffd62e764f5965cb0cff81527f20aa517929057cc3466008f253de90132ebf2213c0aaa7a3d935308ec5b7ce96602082015261110060008801357f0bcf48ca5f2c0f19e22d4264b16ac6ff0775616ef4990b6b9977bef3211ef73d7f27b0a3cb3ea9dec037fab4df3f313aff21972805e6ce873dbbc05ec281191f3384610ff2565b61115060208801357f22fd3ca0867e192b7efea809409f2a4e2972bcf0846ef186b28088c1d1f741297f2b4fc80c5e100ccd6ae3238ed0b187aec7f33a2f203d044030b2f3dcee5cfb9f84610ff2565b6111a060408801357f104d7379c32cd44d33ea6a8ef0c6779d73f7d963cceb97dae2b80cecfe74b5317f1dc972366ddc00e64e9e0cc946bebf5638aeeeb5f500c605821df74a1f58d84584610ff2565b6111f060608801357f151b9b16593cf12cfc83bab33a1663b6a8397c2343b23fd5ed27ff440e714bd37f2f99eef587a8b406aeafd164f1d62a55e7f918f36d08249d88b7852a043b251884610ff2565b61124060808801357f2c3bb099016fbb4d6c402eb012080daf76ff9b5b04f1ff7949fef1c832533d5a7f16f25eb2e4f0b2081f0ca89d0f724e043f66fc5c10ebe57853b3cf0afea824f484610ff2565b61128f60a08801357e6a5bb91a1baf26ef30d1f23ecc4c3bcf5d96d0a535bbe8bb6cca53967973737f15117ee0d3d4378548895d2d573e0718aea96cc4473b75a917bde29eec9d5f2e84610ff2565b6112df60c08801357f2a0939e88d47d170dcd764165996763e99d406899e974cbfac79c2085e550fad7f17f21c852d268987ede177ebcdcb6c1db8a7dc592baf180d2e905b4fd4d9f1a584610ff2565b61132f60e08801357f18ef950f9c595fd17b6293301a818200ef6d762584409d68c077be0685d93c087f164b03a6c60f4c262949141b40f394d12ef4bdedf09101a0972ea82b005c421884610ff2565b833582527f30644e72e131a029b85045b68181585d97816a916871ca8d3c208c16d87cfd4760208501357f30644e72e131a029b85045b68181585d97816a916871ca8d3c208c16d87cfd4703066020830152843560408301526020850135606083015260408501356080830152606085013560a08301527f2d4d9aa7e302d9df41749d5507949d05dbea33fbb16c643b22f599a2be6df2e260c08301527f14bedd503c37ceb061d8ec60209fe345ce89830a19230301f076caff004d192660e08301527f0967032fcbf776d1afc985f88877f182d38480a653f2decaa9794cbc3bf3060c6101008301527f0e187847ad4c798374d0d6732bf501847dd68bc0e071241e0213bc7fc13db7ab6101208301527f304cfbd1e08a704a99f5e847d93f8c3caafddec46b7a0d379da69a4d112346a76101408301527f1739c1b1a457a8c7313123d24d2f9192f896b7c63eea05a9d57f06547ad0cec8610160830152600088015161018083015260206000018801516101a08301527f198e9393920d483a7260bfb731fb5d25f1aa493335a9e71297e485b7aef312c26101c08301527f1800deef121f1e76426a00665e5c4479674322d4f75edadd46debd5cd992f6ed6101e08301527f090689d0585ff075ec9e99ad690c3395bc4b313370b38ef355acdadcd122975b6102008301527f12c85ea5db8c6deb4aab71808dcb408fe3d1e7690c43d37b4ce6cc0166fa7daa610220830152853561024083015260208601356102608301527f1067b506e85fd81df3e6784e26e2d663c003680d47c473315eb785094e0c3baf6102808301527f204fec1b374c3914fae996c745ae2991d129c092816a54e947188cdea332cc986102a08301527f2a8188ced10309b7f9332aa85d45cb0b4116f7e9c5a58bccf073ef62cc2da5b46102c08301527f06cc37b0ac508a10304e88e06685f3e8cf246582680d2895dc5228c1421f807a6102e08301526020826103008460086107d05a03fa82518116935050505095945050505050565b604051610380810160405261162b6000840135610fbe565b6116386020840135610fbe565b6116456040840135610fbe565b6116526060840135610fbe565b61165f6080840135610fbe565b61166c60a0840135610fbe565b61167960c0840135610fbe565b61168660e0840135610fbe565b611694610100840135610fbe565b6116a1818486888a61105d565b915050949350505050565b60076020528060005260406000206000915054906101000a900460ff1681565b600260009054906101000a900473ffffffffffffffffffffffffffffffffffffffff1681565b80600260006101000a81548173ffffffffffffffffffffffffffffffffffffffff021916908373ffffffffffffffffffffffffffffffffffffffff16021790555050565b856003600089815260200190815260200160002081905550846004600089815260200190815260200160002081905550836005600089815260200190815260200160002081905550600260009054906101000a900473ffffffffffffffffffffffffffffffffffffffff1673ffffffffffffffffffffffffffffffffffffffff166323b872dd8430856040518463ffffffff1660e01b81526004016117dd939291906120e0565b6020604051808303816000875af11580156117fc573d6000803e3d6000fd5b505050506040513d601f19601f820116820180604052508101906118209190612143565b50600260009054906101000a900473ffffffffffffffffffffffffffffffffffffffff1673ffffffffffffffffffffffffffffffffffffffff1663a9059cbb84836040518363ffffffff1660e01b815260040161187e929190612315565b6020604051808303816000875af115801561189d573d6000803e3d6000fd5b505050506040513d601f19601f820116820180604052508101906118c19190612143565b5050505050505050565b6000806118da86868686610fb7565b905080915050949350505050565b600081519050919050565b600082825260208201905092915050565b6000819050602082019050919050565b6000819050919050565b61192781611914565b82525050565b6000611939838361191e565b60208301905092915050565b6000602082019050919050565b600061195d826118e8565b61196781856118f3565b935061197283611904565b8060005b838110156119a357815161198a888261192d565b975061199583611945565b925050600181019050611976565b5085935050505092915050565b600060208201905081810360008301526119ca8184611952565b905092915050565b600080fd5b600080fd5b60006103a082840312156119f3576119f26119d7565b5b81905092915050565b611a0581611914565b8114611a1057600080fd5b50565b600081359050611a22816119fc565b92915050565b600073ffffffffffffffffffffffffffffffffffffffff82169050919050565b6000611a5382611a28565b9050919050565b611a6381611a48565b8114611a6e57600080fd5b50565b600081359050611a8081611a5a565b92915050565b600080fd5b600081905082602060040282011115611aa757611aa6611a86565b5b92915050565b6000806000806104608587031215611ac857611ac76119d2565b5b6000611ad6878288016119dc565b9450506103a0611ae887828801611a13565b9350506103c0611afa87828801611a71565b9250506103e0611b0c87828801611a8b565b91505092959194509250565b60008060408385031215611b2f57611b2e6119d2565b5b6000611b3d85828601611a13565b9250506020611b4e85828601611a13565b9150509250929050565b600060208284031215611b6e57611b6d6119d2565b5b6000611b7c84828501611a13565b91505092915050565b611b8e81611914565b82525050565b6000602082019050611ba96000830184611b85565b92915050565b6000608082019050611bc46000830187611b85565b611bd16020830186611b85565b611bde6040830185611b85565b611beb6060830184611b85565b95945050505050565b6000819050919050565b6000611c19611c14611c0f84611a28565b611bf4565b611a28565b9050919050565b6000611c2b82611bfe565b9050919050565b6000611c3d82611c20565b9050919050565b611c4d81611c32565b82525050565b6000602082019050611c686000830184611c44565b92915050565b600081905082602060020282011115611c8a57611c89611a86565b5b92915050565b600081905082604060020282011115611cac57611cab611a86565b5b92915050565b600081905082602060080282011115611cce57611ccd611a86565b5b92915050565b60008060008060006102208688031215611cf157611cf06119d2565b5b6000611cff88828901611a13565b9550506020611d1088828901611c6e565b9450506060611d2188828901611c90565b93505060e0611d3288828901611c6e565b925050610120611d4488828901611cb2565b9150509295509295909350565b60008115159050919050565b611d6681611d51565b82525050565b6000602082019050611d816000830184611d5d565b92915050565b6000806000806102008587031215611da257611da16119d2565b5b6000611db087828801611c6e565b9450506040611dc187828801611c90565b93505060c0611dd287828801611c6e565b925050610100611de487828801611cb2565b91505092959194509250565b6000611dfb82611c20565b9050919050565b611e0b81611df0565b82525050565b6000602082019050611e266000830184611e02565b92915050565b600060208284031215611e4257611e416119d2565b5b6000611e5084828501611a71565b91505092915050565b600080600080600080600060e0888a031215611e7857611e776119d2565b5b6000611e868a828b01611a13565b9750506020611e978a828b01611a13565b9650506040611ea88a828b01611a13565b9550506060611eb98a828b01611a13565b9450506080611eca8a828b01611a71565b93505060a0611edb8a828b01611a13565b92505060c0611eec8a828b01611a13565b91505092959891949750929550565b7f4e487b7100000000000000000000000000000000000000000000000000000000600052603260045260246000fd5b600082825260208201905092915050565b7f7574786f4861736820616c726561647920757365640000000000000000000000600082015250565b6000611f71601583611f2a565b9150611f7c82611f3b565b602082019050919050565b60006020820190508181036000830152611fa081611f64565b9050919050565b600060089050919050565b600081905092915050565b6000819050919050565b6000602082019050919050565b611fdd81611fa7565b611fe78184611fb2565b9250611ff282611fbd565b8060005b8381101561202357815161200a878261192d565b965061201583611fc7565b925050600181019050611ff6565b505050505050565b6101a082016000820151612042600085018261191e565b506020820151612055602085018261191e565b506040820151612068604085018261191e565b50606082015161207b606085018261191e565b50608082015161208e608085018261191e565b5060a08201516120a160a0850182611fd4565b50505050565b60006101c0820190506120bd6000830185611b85565b6120ca602083018461202b565b9392505050565b6120da81611a48565b82525050565b60006060820190506120f560008301866120d1565b61210260208301856120d1565b61210f6040830184611b85565b949350505050565b61212081611d51565b811461212b57600080fd5b50565b60008151905061213d81612117565b92915050565b600060208284031215612159576121586119d2565b5b60006121678482850161212e565b91505092915050565b7f5472616e73666572206661696c65640000000000000000000000000000000000600082015250565b60006121a6600f83611f2a565b91506121b182612170565b602082019050919050565b600060208201905081810360008301526121d581612199565b9050919050565b7f4e487b7100000000000000000000000000000000000000000000000000000000600052601160045260246000fd5b600061221682611914565b915061222183611914565b9250828201905080821115612239576122386121dc565b5b92915050565b600061224a82611914565b915061225583611914565b925082820261226381611914565b9150828204841483151761227a576122796121dc565b5b5092915050565b7f4e487b7100000000000000000000000000000000000000000000000000000000600052601260045260246000fd5b60006122bb82611914565b91506122c683611914565b9250826122d6576122d5612281565b5b828204905092915050565b60006122ec82611914565b91506122f783611914565b925082820390508181111561230f5761230e6121dc565b5b92915050565b600060408201905061232a60008301856120d1565b6123376020830184611b85565b9392505050565b600060a0820190506123536000830188611b85565b6123606020830187611b85565b61236d6040830186611b85565b61237a6060830185611b85565b6123876080830184611b85565b9695505050505050565b60006040820190506123a66000830185611b85565b6123b36020830184611b85565b9392505050565b60006020820190506123cf60008301846120d1565b92915050565b6000815190506123e4816119fc565b92915050565b600060208284031215612400576123ff6119d2565b5b600061240e848285016123d5565b9150509291505056fea2646970667358221220e4247a9e920c0457ad625175f1954006297ed36aa8439d8b81ba9753f57eed0b64736f6c63430008170033",
  "linkReferences": {},
  "deployedLinkReferences": {}
}